{
	"data": {
		"bytecode": {
			"linkReferences": {},
			"object": "60c0604052601560809081527f4661696c656420746f2073656e6420457468657221000000000000000000000060a052600c9061003c9082610e67565b50348015610048575f5ffd5b506040805180820182526006815265447261636f7360d01b6020808301919091528251808401909352600383526244524160e81b90830152903360025f8484848481806100a8576040516306b620db60e21b815260040160405180910390fd5b6100b181610c43565b506040805180820190915260048152632936598960e21b60208201526100f8907feafec4d89fa9619884b60000a4d96624a38f7ac2d8d9a604ecf07c12c77e480c90610cad565b6101227fdeba1e292f8ba88238e10ab3c7f88bd4be4fac56cad5194b6ecceaf653468af185610cad565b61014c7f2f0a68ab07768e01943a599e73362a0e17a63a72e94dd2e384d2c1d4db93275684610cad565b6040805160208101839052610193917fe0261fa95db2eb3b5439bd033cda66d56b96f92f243a8228fd87550ed7bdfdb3910160408051601f19818403018152919052610cad565b505060408051602081018590526101de93507ff675e9361af1c1664c1868cfa3eb97672d6b1a513aa5b81dec34c9ee330e818d92500160408051601f19818403018152919052610d01565b50506007805460ff19908116909155673782dace9d900000600b55670de0b6b3a7640000600a9081556040805163616c747360e01b8152600d600480830182905283516024938190038401812080546001600160a01b031990811673c1a411b2f0332c86c90af22f5367a0265bcb1df9179091556330b6b4b960e11b825291810183905284519081900390930183208054821673188eec07287d876a23565c3c568cbe0bb1984b8317905565647261636f7360d01b835260068301919091529151602691819003919091019020805490911673e4dac493fc79373936aaba777b58ed60a8ef583417905560106020527f460567df57cd54fafa0b012b537d990333351441dc8a10bddd095e391a12e59f8054831660059081179091557f4a8a10bce0aa1faae8757abc5aa655fe292f42048b7759d04cbf1c6bcb974b7f80548416821790557fdea28108950a48cd731e6e9cecd9d9d21fe27df9f9e47853d822c94a292b773a80548416821790557fa5979886620bf1e3814baca33ff219f7ca7e237a0c1ba50f69820a84c6442eff80548416821790557f2fe76b18f3c330f9bfd3ecd94a624add54ac0c57a041c89068fcbbe818bd9fa380548416600f9081179091557f319b80e0bcf4ef68d6d952e19e3a699a62153d78914af53356fc333ccd3e232e80548516841790557f836ce04ef77619c6cb8e6b40e9822c1fe4eaf98c71b4bfd7eb90f0c86310e05f80548516841790557fdcf81a84fff3eef05895f3b3be616000d4a5044063a081f0c3058bdacd8f9a0480548516831790557f3c2173c84c8fc27c0c18a6aa011246d1cce228becd538f5f89d6b223032bc45480548516841790557fef1cbfa596b82f3ebd67af5da17dbfa7a26cc064d3b4187e5ecd4d83cd3c677280548516821790557f11df4542153122f52981e0d7f8e153850ad63b8a2f823d8a7eb911a641fad0b98054851660191790557ea19deaa5ac4ad2b9c9759a7a1772b892eb208a1c5c955ca067e886200c20d080548516831790557f5b33a33c2ff1bff7cb2fc35e734ae3ac284e64abd791846dde0f732a1666955b80548516831790557fe52938416cbc64b0132dbd93926b51233ab10ba22bd94dfa2895ccd3b6be464580548516841790557f8a17b7238a89a2ac13d567c80053fedee483fece610b2d7f499b75b20d77c6e580548516841790557f01cbb5c4eeed4bec59cc2c3d0fc766379ec3f078f6c9a42b4798ce9a796b373780548516831790557f765328b0d1dd2c76b6f743b62b2b4b4eaad584f0a9fc15edafc0c525ae18fe7f80548516841790557f9532a05e5ffefbef80af6e33796baee1bdf2f79d6a8ab1a6f2770cf06d1ee48f80548516831790557f792f7452a68fa699960fdfd1f196259d56760364c4fabbd3708833dba4a66b7f80548516831790557f3d8381d8f2eb9e857e8ced46d9e1765f50ec74c7de94fdd97a3cd885dc890c9980548516831790557fe9f829b6540a30b65687522f6baddb273789b7a3b93d97e3ec93016f260febfa80548516831790557f8f573e8ee3c73e8b74d85b5249f2990af7a7c450597c0130531124a3416e046380548516831790557f0edf6a46fb6cdc09774642fb2ffbdcd50c34cddf69771e26d3be6f8685739aaf80548516831790557ff6ec96b2cce6105ddf79dbba81d7df8d5e98d34c418336a8f529a53a1f7334d68054851690911790557f95b55be5fa883902bdaa61752d3344ebadb5bfb70dc38986da9642b58d9deb4a80548416821790557fa8e450d508e8846a3351d24a0f0281691c6c666ff422bd0bab02afdac7f68e6680548416821790557f7a543878e663e62236db18d0c68bc15ad08ab066a6011937f84c8ce811e5991180548416603c1790557f238140aad6b198f93f635249555220d87b30d77ee78f6388a829629bbd8d1dea80548416821790557ff43ccdcfa77f6341970200d8123780b1976e28c2681636a071af3a40c530e40680548416831790557ff4aecf617a411e253f36f0914bc51f78a922532f2b3d83aa407e49a5c794716580548416821790557f97862e5a9ffd0d3ebdc3cce3a3b0887353c7d7bd76cc5c8c2d73fa76fae1d9f480548416821790557fe49603d01438aec3b6284cf7745e38530af57aa969b64fdf26dd30a975cc6aee8054841660141790557ff06a37bd61b268de9a220b29065a170152ff3c15788c860452951903ab9aa22480548416831790557fbcd0683c85dd392fa9ad251b3fa3932d4c24eef0fa3a7062f0715325f4655aae80548416821790557f7b7800cef92899576454791692673cb95888317cd65a77d900b394191a2ca9cf80548416821790557f2321a98626aa46e99ac38b6021d2bc55154712cde455a1ff9b8eebc54ef6ae6a80548416821790557ffff5d575b65de5a6d6cdf9ade2b43a9fa7d6abb8d0f5e943da96a974d2fccee780548416821790557f7c4da39e8915de9f6a5d1d3aedffad399f3dfbf1b0d58cf898ae6df69905c10280548416821790557f61d02a600e3d412cd4d209fa7cd83fcfbe9a8a605e8970585ffcd7f92951179f80548416821790557f8f831ce447d525de84933ce2de3928aaaabcac08cefd35e3d1d4875d26f9c62780548416821790557f8de81a0eb0c56d2fc3b235c4aa35108fe6bcc2271dba45003201c92465a2684b80548416821790557f884f64844951ae6298fbe071a92aac5e9e9cea05492f4be95dba659d854870eb80548416821790557fdf3619772a5b60a3c0665dbc21c20d630eead36e2acfae2a462abef41a83c4fb80548416821790557f4c0c255487a9f0ad0d4009285ddcdcda80235c0e4bc8c52ee4bdff469fb8999080548416821790557f89589929756592818f1890f42f32bc5cf3f27b44ed19f919826849685042658a80548416821790557f80a03ead6da37d2f6d91360867a3f7a23f4ca987335cc49339370b5a7cee095580548416821790557f6744a9a5f073769a5bb26dd628712858b2be07874aa13f29f6853999121db0df80548416821790557f038a7107715739ef2aaa8d442088169b24d4948f677668c84e9c023fcacc575e80548416821790557f4f607f13c90767836b836d49e4232176a6f46d05c5f05fb2529d7963e8a2a44280548416821790557ff45e426e0c3c247d2c758f9758b1d212ca96686afd323689eeb505adbe81882f80548416831790557f82530645a4a1e25eebcfa9d2523ad7918a84a282924d1dad9e5903eb3f01fd1080548416831790557f84a08d0c60b9d528c5ed44d3d072d24aa66977ec7a7045db000c71f9002bed9980548416821790557fcda45e15ad34aa3ea33f44c394431602372f5220ae0827c2af26b110ab825fab80548416821790557f6fdaf99a102c8868da607ea340d059ae2851d1579e83846482299f497b6e7cd580548416821790557faeeaea84a20c9d85c353cda77961e9848d1991fc7c3198ec1573530bfbd624d880548416821790557fdca5f37caf63976c95fda87135ee4c632da1709dbd9ba4231b771d05ab07f91380548416821790557f2b5f5657ef60795c40f59560df7e4ad10e01e704103ab49f9ac737068112c44580548416909117905573ad39ffbd42ab449adceedb83e4dfb4c238d5eabd5f527f772f5ecd9346fcbc5a2a0b52de7263cef5b8ba7e19716da6fc51a135718c66cb805490921617905550610f56915050565b5f546001600160a01b03828116911614610caa575f80546040516001600160a01b03808516939216917f8be0079c531659141344cd1fd0a4f28419497f9722a3daafe3b4186f6b6457e091a35f80546001600160a01b0319166001600160a01b0383161790555b50565b5f828152600160205260409020610cc48282610e67565b50817fece574603820d07bc9b91f2a932baadf4628aabcb8afba49776529c14a6104b282604051610cf59190610f21565b60405180910390a25050565b610d0b8282610d0f565b5050565b7f2145e1d6d074577dc71ef54c3807742b41b053a9352ae6b491331509acb9750f8201610d4f576040516385c169bd60e01b815260040160405180910390fd5b7fd0f59754f88971fe6bc5a6618cc9d5f1e859c58d16b22d1c7b2d3e2b246cd8aa8201610d8f57604051630eceab6760e31b815260040160405180910390fd5b7f1fd9e056a24d14c4abc642fcc325992a946906d0dbc57dd70278aaf12842024d8201610cad57604051634ef6d7fb60e01b815260040160405180910390fd5b634e487b7160e01b5f52604160045260245ffd5b600181811c90821680610df757607f821691505b602082108103610e1557634e487b7160e01b5f52602260045260245ffd5b50919050565b601f821115610e6257805f5260205f20601f840160051c81016020851015610e405750805b601f840160051c820191505b81811015610e5f575f8155600101610e4c565b50505b505050565b81516001600160401b03811115610e8057610e80610dcf565b610e9481610e8e8454610de3565b84610e1b565b6020601f821160018114610ec6575f8315610eaf5750848201515b5f19600385901b1c1916600184901b178455610e5f565b5f84815260208120601f198516915b82811015610ef55787850151825560209485019460019092019101610ed5565b5084821015610f1257868401515f19600387901b60f8161c191681555b50505050600190811b01905550565b602081525f82518060208401528060208501604085015e5f604082850101526040601f19601f83011684010191505092915050565b613beb80610f635f395ff3fe608060405260043610610295575f3560e01c8063715018a611610159578063af8214ef116100c0578063db8c966311610079578063db8c966314610857578063dedff9c614610876578063df43a36f14610895578063f2fde38b146108c3578063fc7a9f30146108e2578063ffa1ad7414610910576102ee565b8063af8214ef146107bb578063b47d510b146107cf578063be9f0e6f146107e4578063cc40ea0114610803578063d11a1f0714610819578063d6c1407c14610838576102ee565b806386a10ddd1161011257806386a10ddd146107005780638da5cb5b1461071f578063979024211461073b5780639b19251a1461074e5780639c1d18831461077c578063a3b261f21461078f576102ee565b8063715018a61461067b578063758b4e861461068f5780637e87632c146106a45780637f23690c146106c35780638456cb59146106d657806384c4bd4b146106ea576102ee565b806349a6078d116101fd578063626aad6b116101b6578063626aad6b146105aa5780636817c76c146105c95780636963d438146105de5780636aca0b5f146105fd5780636af5842e1461063d57806370a082311461065c576102ee565b806349a6078d146104eb5780634d399cb314610517578063511b69521461053657806354f6127f1461055557806356a6d9ef146105745780635c975abb14610593576102ee565b80631d26fce61161024f5780631d26fce6146103f8578063217b2270146104245780632a3654a41461045b57806330edc0f51461047a5780633ccfd60b146104c35780633f4ba83a146104d7576102ee565b8062728e461461032e57806301ffc9a71461034f57806312065fe01461038357806316e023b3146103a557806318160ddd146103d15780631b659657146103e5576102ee565b366102ee57345f036102d55760405163e5099ee360e01b81526004016102cc9060208082526004908201525f604082015260600190565b60405180910390fd5b6040516330fa4a2160e11b815260040160405180910390fd5b5f366060600482101561031857828260405163e5099ee360e01b81526004016102cc929190612c4e565b6103228383610940565b80519350602001915050f35b348015610339575f5ffd5b5061034d610348366004612c7c565b610a2f565b005b34801561035a575f5ffd5b5061036e610369366004612c93565b610a83565b60405190151581526020015b60405180910390f35b34801561038e575f5ffd5b50610397610ab6565b60405190815260200161037a565b3480156103b0575f5ffd5b506103c46103bf366004612cba565b610ac4565b60405161037a9190612d08565b3480156103dc575f5ffd5b50600254610397565b61036e6103f3366004612dd8565b610ad7565b348015610403575f5ffd5b50610417610412366004612e90565b610cd1565b60405161037a9190612ef3565b34801561042f575f5ffd5b5061044361043e366004612c7c565b610db7565b6040516001600160a01b03909116815260200161037a565b348015610466575f5ffd5b5061036e610475366004612f6a565b610def565b348015610485575f5ffd5b506104b1610494366004612f94565b6001600160a01b03165f9081526010602052604090205460ff1690565b60405160ff909116815260200161037a565b3480156104ce575f5ffd5b5061034d610dfa565b3480156104e2575f5ffd5b5061034d610e9f565b3480156104f6575f5ffd5b5061050a610505366004612c7c565b610eb1565b60405161037a9190612faf565b348015610522575f5ffd5b5061034d610531366004612ffa565b610ed2565b348015610541575f5ffd5b5061034d610550366004613045565b610f06565b348015610560575f5ffd5b506103c461056f366004612c7c565b610f4a565b34801561057f575f5ffd5b5061034d61058e366004612f6a565b610f55565b34801561059e575f5ffd5b5060075460ff1661036e565b3480156105b5575f5ffd5b5061034d6105c43660046130bc565b610fea565b3480156105d4575f5ffd5b50610397600b5481565b3480156105e9575f5ffd5b506104176105f83660046130ff565b61106e565b348015610608575f5ffd5b50610443610617366004612dd8565b8051602081830181018051600d825292820191909301209152546001600160a01b031681565b348015610648575f5ffd5b5061034d610657366004612c7c565b611198565b348015610667575f5ffd5b50610397610676366004612f94565b6111dd565b348015610686575f5ffd5b5061034d6111fd565b34801561069a575f5ffd5b50610397611e6181565b3480156106af575f5ffd5b5061034d6106be3660046132b2565b61120e565b61034d6106d1366004613383565b6112fc565b3480156106e1575f5ffd5b5061034d61132d565b3480156106f5575f5ffd5b506008546103979081565b34801561070b575f5ffd5b5061034d61071a3660046133bc565b61133d565b34801561072a575f5ffd5b505f546001600160a01b0316610443565b61034d610749366004613410565b6114b4565b348015610759575f5ffd5b506104b1610768366004612f94565b60106020525f908152604090205460ff1681565b61036e61078a366004613383565b61156d565b34801561079a575f5ffd5b506107ae6107a9366004612f94565b6116d7565b60405161037a9190613469565b3480156107c6575f5ffd5b506104b1604d81565b3480156107da575f5ffd5b50610397600a5481565b3480156107ef575f5ffd5b5061034d6107fe3660046134a0565b6116fa565b34801561080e575f5ffd5b506009546103979081565b348015610824575f5ffd5b506103c4610833366004612dd8565b6117c3565b348015610843575f5ffd5b5061034d610852366004613521565b61181c565b348015610862575f5ffd5b5061034d610871366004613556565b61182f565b348015610881575f5ffd5b506104176108903660046135bb565b611910565b3480156108a0575f5ffd5b506104b16108af366004612f94565b600e6020525f908152604090205460ff1681565b3480156108ce575f5ffd5b5061034d6108dd366004612f94565b6119b9565b3480156108ed575f5ffd5b506104b16108fc366004612c7c565b600f6020525f908152604090205460ff1681565b34801561091b575f5ffd5b506103c4604051806040016040528060058152602001640312e302e360dc1b81525081565b60605f6109575f356001600160e01b0319166119f4565b5090506001600160a01b03811661098e5760405163bb370b2b60e01b81526001600160e01b03195f351660048201526024016102cc565b5f5f826001600160a01b031634878733346040516020016109b294939291906135ec565b60408051601f19818403018152908290526109cc9161362e565b5f6040518083038185875af1925050503d805f8114610a06576040519150601f19603f3d011682016040523d82523d5f602084013e610a0b565b606091505b50915091508115610a20579250610a29915050565b80518060208301fd5b92915050565b610a37611a70565b600b8190557f627f3f9abdceb64f973da0c4835eba8d0147329526e6325906e29601a203e63a81335b604080519283526001600160a01b0390911660208301520160405180910390a150565b5f6001600160e01b03198216631d138b8360e11b1480610aa75750610aa782611aab565b80610a295750610a2982611acf565b5f610abf611a70565b504790565b6060610ad08383611b04565b9392505050565b5f610ae0611baf565b600254611e6111610b2a5760405162461bcd60e51b815260206004820152601460248201527326b0bc1039bab838363c9032bc31b2b2b232b21760611b60448201526064016102cc565b335f908152600e602052604090205460ff16604d11610b8b5760405162461bcd60e51b815260206004820152601f60248201527f4c696d69746174696f6e207065722077616c6c65742065786365656465642e0060448201526064016102cc565b600b5415610c2157335f90815260106020526040902054600160ff9091161015610be257600b54341015610bd457604051639266535160e01b81523460048201526024016102cc565b610bdd34611bd3565b610c21565b335f90815260106020526040902054610c009060019060ff1661364d565b335f908152601060205260409020805460ff191660ff929092169190911790555b610c2f600880546001019055565b5f610c3960085490565b9050610c563382600160405180602001604052805f815250611dba565b610c89817f9afb95cacc9f95858ec44aa8c3b685511002e30ae54415823f406128b85b238e610c84866117c3565b611f23565b335f908152600e6020526040902054610ca69060ff166001613666565b335f908152600e60205260409020805460ff191660ff9290921691909117905550600190505b919050565b60608151835114610cf5576040516317d38eff60e11b815260040160405180910390fd5b82516001600160401b03811115610d0e57610d0e612d1a565b604051908082528060200260200182016040528015610d4157816020015b6060815260200190600190039081610d2c5790505b5090505f5b8351811015610db057610d8b848281518110610d6457610d6461367f565b6020026020010151848381518110610d7e57610d7e61367f565b6020026020010151611b04565b828281518110610d9d57610d9d61367f565b6020908102919091010152600101610d46565b5092915050565b5f818152600360205260408120546001600160a01b031680610a2957604051635747cd1b60e11b8152600481018490526024016102cc565b5f610ad08383611f84565b610e02611a70565b475f610e155f546001600160a01b031690565b6001600160a01b0316826040515f6040518083038185875af1925050503d805f8114610e5c576040519150601f19603f3d011682016040523d82523d5f602084013e610e61565b606091505b5050905080610e9b5760405162461bcd60e51b815260206004820152600660248201526511985a5b195960d21b60448201526064016102cc565b5050565b610ea7611a70565b610eaf611fbf565b565b6060610ebc82612011565b5f828152600560205260409020610a2990612048565b610eda611a70565b6001600160a01b03919091165f908152601060205260409020805460ff191660ff909216919091179055565b610f103384611f84565b610f3657604051631294d2a960e01b8152600481018490523360248201526044016102cc565b610f438585858585612054565b5050505050565b6060610a2982612230565b610f5d611a70565b5f826001600160a01b0316826040515f6040518083038185875af1925050503d805f8114610fa6576040519150601f19603f3d011682016040523d82523d5f602084013e610fab565b606091505b5050905080610fe55760405162461bcd60e51b815260206004820152600660248201526511985a5b195960d21b60448201526064016102cc565b505050565b610ff2611a70565b80600d83604051611003919061362e565b90815260405190819003602001812080546001600160a01b03939093166001600160a01b0319909316929092179091557fa55bfbf28b3e4791376d4e67253f1743a34a31a8824092ec7dda235c4c5c6ec1906110629084908490613693565b60405180910390a15050565b6060816001600160401b0381111561108857611088612d1a565b6040519080825280602002602001820160405280156110bb57816020015b60608152602001906001900390816110a65790505b5090505f5b82811015610db0575f80308686858181106110dd576110dd61367f565b90506020028101906110ef91906136bc565b6040516110fd929190613705565b5f60405180830381855af49150503d805f8114611135576040519150601f19603f3d011682016040523d82523d5f602084013e61113a565b606091505b509150915081611170578051156111545780518082602001fd5b60405163234eb81960e01b8152600481018490526024016102cc565b808484815181106111835761118361367f565b602090810291909101015250506001016110c0565b6111a0611a70565b606481106111b0576111b0613714565b600a8190557f4e0225ff6ef5e95b2a87452ed36819ff10077c4f1562f7cd0e02ca890e8d07438133610a60565b6001600160a01b0381165f908152600460205260408120610a29906122cf565b611205611a70565b610eaf5f6122d8565b8451845181141580611221575083518114155b8061122d575082518114155b80611239575081518114155b15611257576040516393a8311960e01b815260040160405180910390fd5b5f5b818110156112f3576112eb8782815181106112765761127661367f565b60200260200101518783815181106112905761129061367f565b60200260200101518784815181106112aa576112aa61367f565b60200260200101518785815181106112c4576112c461367f565b60200260200101518786815181106112de576112de61367f565b6020026020010151610f06565b600101611259565b50505050505050565b611304611a70565b34156113235760405163f36ba73760e01b815260040160405180910390fd5b610e9b8282612343565b611335611a70565b610eaf61238d565b5f61134783610db7565b90506001600160a01b038116331461138a57604051632d938f5160e11b81526001600160a01b0382166004820152602481018490523360448201526064016102cc565b6001600160a01b0384166113b157604051639577b8b360e01b815260040160405180910390fd5b836001600160a01b0316816001600160a01b0316036113e3576040516344fed6b160e11b815260040160405180910390fd5b5f8381526005602052604081206113fa90866123ca565b90508061142c576040516314ec4d6d60e31b81526001600160a01b0386166004820152602481018590526044016102cc565b83826001600160a01b0316866001600160a01b03167f1b1b58aa2ec0cec2228b2d37124556d41f5a1f7b12f089171f896cc236671215866040516114709190612d08565b60405180910390a45f33856001866040516020016114919493929190613728565b60405160208183030381529060405290506114ac86826123de565b505050505050565b6114bc611a70565b34156114db5760405163f36ba73760e01b815260040160405180910390fd5b80518251146114fd57604051633bcc897960e01b815260040160405180910390fd5b81515f0361151e576040516397da5f9560e01b815260040160405180910390fd5b5f5b8251811015610fe55761156583828151811061153e5761153e61367f565b60200260200101518383815181106115585761155861367f565b6020026020010151612343565b600101611520565b5f611576611baf565b600254611e61116115c05760405162461bcd60e51b815260206004820152601460248201527326b0bc1039bab838363c9032bc31b2b2b232b21760611b60448201526064016102cc565b5f838152600f6020526040902054600460ff909116106116225760405162461bcd60e51b815260206004820152601d60248201527f5377697065206c696d697420686173206265656e20657863656564656400000060448201526064016102cc565b600a541561165857600a5434101561164f57604051639266535160e01b81523460048201526024016102cc565b61165834611bd3565b611666600980546001019055565b611694837f9afb95cacc9f95858ec44aa8c3b685511002e30ae54415823f406128b85b238e610c84856117c3565b5f838152600f602052604081208054600192906116b590849060ff16613666565b92506101000a81548160ff021916908360ff1602179055506001905092915050565b6001600160a01b0381165f908152600460205260409020606090610a2990612048565b611702611a70565b8151835114158061171557508051825114155b15611733576040516317d38eff60e11b815260040160405180910390fd5b82515f03611754576040516380c9830560e01b815260040160405180910390fd5b5f5b83518110156117bd576117b58482815181106117745761177461367f565b602002602001015184838151811061178e5761178e61367f565b60200260200101518484815181106117a8576117a861367f565b6020026020010151611f23565b600101611756565b50505050565b60605f82805190602001206117d784612409565b6040516020016117e79190613760565b60408051601f19818403018152908290526118059291602001613791565b60408051601f198184030181529190529392505050565b611824611a70565b610fe5838383611f23565b5f61183984610db7565b9050336001600160a01b0382161461188c576001600160a01b038516331461188c5760405163760b5acd60e01b81523360048201526001600160a01b0382166024820152604481018590526064016102cc565b6001600160a01b0385166118b357604051639577b8b360e01b815260040160405180910390fd5b846001600160a01b0316816001600160a01b0316036118e5576040516344fed6b160e11b815260040160405180910390fd5b6118f28582868686612563565b8215610f43575f81855f856040516020016114919493929190613728565b606081516001600160401b0381111561192b5761192b612d1a565b60405190808252806020026020018201604052801561195e57816020015b60608152602001906001900390816119495790505b5090505f5b82518110156119b35761198e8382815181106119815761198161367f565b6020026020010151612230565b8282815181106119a0576119a061367f565b6020908102919091010152600101611963565b50919050565b6119c1611a70565b6001600160a01b0381166119e8576040516306b620db60e21b815260040160405180910390fd5b6119f1816122d8565b50565b5f8080611a18696773c5a04a6d4300884b60b11b6001600160e01b03198616612602565b90505f611a2482612230565b90508051601414158015611a385750805115155b15611a5857806040516342bfe79f60e01b81526004016102cc9190612d08565b611a61816137b2565b60601c95600195509350505050565b33611a825f546001600160a01b031690565b6001600160a01b031614610eaf5760405163bf1169c560e01b81523360048201526024016102cc565b5f6001600160e01b0319821663a918fa6b60e01b1480610a295750610a2982612655565b5f80611ae16301ffc9a760e01b6119f4565b5090506001600160a01b038116611afa57505f92915050565b610ad08184612689565b5f8281526006602090815260408083208484529091529020805460609190611b2b90613800565b80601f0160208091040260200160405190810160405280929190818152602001828054611b5790613800565b8015611ba25780601f10611b7957610100808354040283529160200191611ba2565b820191905f5260205f20905b815481529060010190602001808311611b8557829003601f168201915b5050505050905092915050565b60075460ff1615610eaf5760405163d93c066560e01b815260040160405180910390fd5b5f600d604051611bed9063616c747360e01b815260040190565b908152604051908190036020019020546001600160a01b0316611c1183601961270f565b6040515f81818185875af1925050503d805f8114611c4a576040519150601f19603f3d011682016040523d82523d5f602084013e611c4f565b606091505b5050905080600c90611c745760405162461bcd60e51b81526004016102cc9190613832565b505f600d604051611c8f906330b6b4b960e11b815260040190565b908152604051908190036020019020546001600160a01b0316611cb384601961270f565b6040515f81818185875af1925050503d805f8114611cec576040519150601f19603f3d011682016040523d82523d5f602084013e611cf1565b606091505b5050905080600c90611d165760405162461bcd60e51b81526004016102cc9190613832565b505f600d604051611d339065647261636f7360d01b815260060190565b908152604051908190036020019020546001600160a01b0316611d5785603261270f565b6040515f81818185875af1925050503d805f8114611d90576040519150601f19603f3d011682016040523d82523d5f602084013e611d95565b606091505b5050905080600c90610f435760405162461bcd60e51b81526004016102cc9190613832565b6001600160a01b038416611de1576040516324ecef4d60e01b815260040160405180910390fd5b5f838152600360205260409020546001600160a01b031615611e19576040516334c7b51160e01b8152600481018490526024016102cc565b5f838152600360205260409020546001600160a01b031615611e51576040516334c7b51160e01b8152600481018490526024016102cc565b60025f8154611e5f906138b8565b909155506001600160a01b0384165f908152600460205260409020611e84908461273c565b505f8381526003602052604080822080546001600160a01b0319166001600160a01b03881690811790915590518592907fb333c813a7426a7a11e2b190cad52c44119421594b47f6f32ace6d8c7207b2bf90611ee5903390889088906138d0565b60405180910390a45f335f868685604051602001611f07959493929190613904565b6040516020818303038152906040529050610f43858483612747565b5f8381526006602090815260408083208584529091529020611f458282613982565b5081837fa6e4251f855f750545fe414f120db91c76b88def14d120969e5bb2d3f05debbb83604051611f779190612d08565b60405180910390a3505050565b5f611f8e82610db7565b6001600160a01b0316836001600160a01b03161480610ad057505f828152600560205260409020610ad0908461284a565b611fc761286b565b6007805460ff191690557f5db9ee0a495bf2e6ff9c91a7834c1ba4fdd244a5e8aa4e537bd38aeae4b073aa335b6040516001600160a01b03909116815260200160405180910390a1565b5f818152600360205260409020546001600160a01b03166119f157604051635747cd1b60e11b8152600481018290526024016102cc565b60605f610ad08361288e565b5f61205e84610db7565b9050856001600160a01b0316816001600160a01b0316146120ac57604051632d938f5160e11b81526001600160a01b03808316600483015260248201869052871660448201526064016102cc565b6001600160a01b0385166120d3576040516324ecef4d60e01b815260040160405180910390fd5b5f6120dd85610db7565b9050806001600160a01b0316826001600160a01b03161461212b57604051635a9c31d360e01b8152600481018690526001600160a01b038084166024830152821660448201526064016102cc565b61213587866128e6565b6001600160a01b0387165f9081526004602052604090206121569086612939565b506001600160a01b0386165f908152600460205260409020612178908661273c565b505f858152600360205260409081902080546001600160a01b0319166001600160a01b0389811691821790925591518792918a16907fb333c813a7426a7a11e2b190cad52c44119421594b47f6f32ace6d8c7207b2bf906121de9033908a908a906138d0565b60405180910390a45f3388888887604051602001612200959493929190613904565b604051602081830303815290604052905061221b8882612944565b612226878683612747565b5050505050505050565b5f81815260016020526040902080546060919061224c90613800565b80601f016020809104026020016040519081016040528092919081815260200182805461227890613800565b80156122c35780601f1061229a576101008083540402835291602001916122c3565b820191905f5260205f20905b8154815290600101906020018083116122a657829003601f168201915b50505050509050919050565b5f610a29825490565b5f546001600160a01b038281169116146119f1575f80546040516001600160a01b03808516939216917f8be0079c531659141344cd1fd0a4f28419497f9722a3daafe3b4186f6b6457e091a35f80546001600160a01b0383166001600160a01b031990911617905550565b7f098a16c9e50e3e99b3e797305c146898d294e5aec55a47e213cb3611ccf17e73820161238357604051631b32400560e11b815260040160405180910390fd5b610e9b828261296f565b612395611baf565b6007805460ff191660011790557f62e78cea01bee320cd4e420270b5ea74000d11b0c9f74754ebdbfc544b05a258611ff43390565b5f610ad0836001600160a01b038416612979565b610e9b827f8a1c15a8799f71b547e08e2bcb2e85257e81b0a07eee2ce6712549eef1f00970836129c5565b606081515f0361242657505060408051602081019091525f815290565b5f604051806060016040528060408152602001613b766040913990505f6003845160026124539190613a3c565b61245d9190613a4f565b612468906004613a6e565b6001600160401b0381111561247f5761247f612d1a565b6040519080825280601f01601f1916602001820160405280156124a9576020820181803683370190505b509050600182016020820185865187016020810180515f82525b8284101561251e576003840193508351603f8160121c168701518653600186019550603f81600c1c168701518653600186019550603f8160061c168701518653600186019550603f81168701518653506001850194506124c3565b905250508551600390066001811461253d576002811461255057612558565b603d6001830353603d6002830353612558565b603d60018303535b509195945050505050565b5f83815260056020526040812061257a9087612a12565b9050806125ac576040516312a8c6a360e21b81526001600160a01b0387166004820152602481018590526044016102cc565b83856001600160a01b0316876001600160a01b03167fc78cd419d6136f9f1c1c6aec1d3fae098cffaf8bc86314a8f2685e32fe574e3c86866040516125f2929190613a85565b60405180910390a4505050505050565b604080516001600160b01b0319841660208201525f602a82018190526001600160601b03198416602c8301529182910160405160208183030381529060405290508061264d90613a9f565b949350505050565b5f6001600160e01b031982166318a6a9a560e21b1480610a2957506301ffc9a760e01b6001600160e01b0319831614610a29565b604080516001600160e01b03198316602480830191909152825180830390910181526044909101909152602080820180516001600160e01b03166301ffc9a760e01b17815282515f9392849283928392918391908a617530fa92503d91505f5190508280156126f9575060208210155b801561270457505f81115b979650505050505050565b5f606461271c8385613a6e565b1015612726575f5ffd5b60646127328385613a6e565b610ad09190613a4f565b5f610ad08383612979565b61275883631aed5a8560e21b612689565b156127ed57604051631aed5a8560e21b81526001600160a01b03841690636bb56a14906127ab907f0b084a55ebf70fd3c06fd755269dac2212c4d3f0f4d09079780bfa50c1b2984d908590600401613ac2565b5f604051808303815f875af11580156127c6573d5f5f3e3d5ffd5b505050506040513d5f823e601f3d908101601f191682016040526117bd9190810190613ada565b81610fe5576001600160a01b0383163b1561282657604051634349776d60e01b81526001600160a01b03841660048201526024016102cc565b604051630317313760e01b81526001600160a01b03841660048201526024016102cc565b6001600160a01b0381165f9081526001830160205260408120541515610ad0565b60075460ff16610eaf57604051638dfc202b60e01b815260040160405180910390fd5b6060815f018054806020026020016040519081016040528092919081815260200182805480156122c357602002820191905f5260205f20905b8154815260200190600101908083116128c75750505050509050919050565b5f818152600560205260408120906128fd826122cf565b90505f5f5b828110156114ac57612914845f612a26565b91506129318287875f60405180602001604052805f815250612563565b600101612902565b5f610ad08383612a31565b610e9b827fb23eae7e6d1564b295b4c3e3be402d9a2f0776c57bdf365903496f6fa481ab00836129c5565b610e9b8282612b14565b5f8181526001830160205260408120546129be57508154600181810184555f848152602080822090930184905584548482528286019093526040902091909155610a29565b505f610a29565b6129df6001600160a01b038416631aed5a8560e21b612689565b15610fe557604051631aed5a8560e21b81526001600160a01b03841690636bb56a14906127ab9085908590600401613ac2565b5f610ad0836001600160a01b038416612a31565b5f610ad08383612c28565b5f8181526001830160205260408120548015612b0b575f612a53600183613b4e565b85549091505f90612a6690600190613b4e565b9050818114612ac5575f865f018281548110612a8457612a8461367f565b905f5260205f200154905080875f018481548110612aa457612aa461367f565b5f918252602080832090910192909255918252600188019052604090208390555b8554869080612ad657612ad6613b61565b600190038181905f5260205f20015f90559055856001015f8681526020019081526020015f205f905560019350505050610a29565b5f915050610a29565b7f2145e1d6d074577dc71ef54c3807742b41b053a9352ae6b491331509acb9750f8201612b54576040516385c169bd60e01b815260040160405180910390fd5b7fd0f59754f88971fe6bc5a6618cc9d5f1e859c58d16b22d1c7b2d3e2b246cd8aa8201612b9457604051630eceab6760e31b815260040160405180910390fd5b7f1fd9e056a24d14c4abc642fcc325992a946906d0dbc57dd70278aaf12842024d8201612bd457604051634ef6d7fb60e01b815260040160405180910390fd5b5f828152600160205260409020612beb8282613982565b50817fece574603820d07bc9b91f2a932baadf4628aabcb8afba49776529c14a6104b282604051612c1c9190612d08565b60405180910390a25050565b5f825f018281548110612c3d57612c3d61367f565b905f5260205f200154905092915050565b60208152816020820152818360408301375f818301604090810191909152601f909201601f19160101919050565b5f60208284031215612c8c575f5ffd5b5035919050565b5f60208284031215612ca3575f5ffd5b81356001600160e01b031981168114610ad0575f5ffd5b5f5f60408385031215612ccb575f5ffd5b50508035926020909101359150565b5f81518084528060208401602086015e5f602082860101526020601f19601f83011685010191505092915050565b602081525f610ad06020830184612cda565b634e487b7160e01b5f52604160045260245ffd5b604051601f8201601f191681016001600160401b0381118282101715612d5657612d56612d1a565b604052919050565b5f6001600160401b03821115612d7657612d76612d1a565b50601f01601f191660200190565b5f82601f830112612d93575f5ffd5b8135602083015f612dab612da684612d5e565b612d2e565b9050828152858383011115612dbe575f5ffd5b828260208301375f92810160200192909252509392505050565b5f60208284031215612de8575f5ffd5b81356001600160401b03811115612dfd575f5ffd5b61264d84828501612d84565b5f6001600160401b03821115612e2157612e21612d1a565b5060051b60200190565b5f82601f830112612e3a575f5ffd5b8135612e48612da682612e09565b8082825260208201915060208360051b860101925085831115612e69575f5ffd5b602085015b83811015612e86578035835260209283019201612e6e565b5095945050505050565b5f5f60408385031215612ea1575f5ffd5b82356001600160401b03811115612eb6575f5ffd5b612ec285828601612e2b565b92505060208301356001600160401b03811115612edd575f5ffd5b612ee985828601612e2b565b9150509250929050565b5f602082016020835280845180835260408501915060408160051b8601019250602086015f5b82811015612f4a57603f19878603018452612f35858351612cda565b94506020938401939190910190600101612f19565b50929695505050505050565b6001600160a01b03811681146119f1575f5ffd5b5f5f60408385031215612f7b575f5ffd5b8235612f8681612f56565b946020939093013593505050565b5f60208284031215612fa4575f5ffd5b8135610ad081612f56565b602080825282518282018190525f918401906040840190835b81811015612fef5783516001600160a01b0316835260209384019390920191600101612fc8565b509095945050505050565b5f5f6040838503121561300b575f5ffd5b823561301681612f56565b9150602083013560ff8116811461302b575f5ffd5b809150509250929050565b80358015158114610ccc575f5ffd5b5f5f5f5f5f60a08688031215613059575f5ffd5b853561306481612f56565b9450602086013561307481612f56565b93506040860135925061308960608701613036565b915060808601356001600160401b038111156130a3575f5ffd5b6130af88828901612d84565b9150509295509295909350565b5f5f604083850312156130cd575f5ffd5b82356001600160401b038111156130e2575f5ffd5b6130ee85828601612d84565b925050602083013561302b81612f56565b5f5f60208385031215613110575f5ffd5b82356001600160401b03811115613125575f5ffd5b8301601f81018513613135575f5ffd5b80356001600160401b0381111561314a575f5ffd5b8560208260051b840101111561315e575f5ffd5b6020919091019590945092505050565b5f82601f83011261317d575f5ffd5b813561318b612da682612e09565b8082825260208201915060208360051b8601019250858311156131ac575f5ffd5b602085015b83811015612e865780356131c481612f56565b8352602092830192016131b1565b5f82601f8301126131e1575f5ffd5b81356131ef612da682612e09565b8082825260208201915060208360051b860101925085831115613210575f5ffd5b602085015b83811015612e865761322681613036565b835260209283019201613215565b5f82601f830112613243575f5ffd5b8135613251612da682612e09565b8082825260208201915060208360051b860101925085831115613272575f5ffd5b602085015b83811015612e865780356001600160401b03811115613294575f5ffd5b6132a3886020838a0101612d84565b84525060209283019201613277565b5f5f5f5f5f60a086880312156132c6575f5ffd5b85356001600160401b038111156132db575f5ffd5b6132e78882890161316e565b95505060208601356001600160401b03811115613302575f5ffd5b61330e8882890161316e565b94505060408601356001600160401b03811115613329575f5ffd5b61333588828901612e2b565b93505060608601356001600160401b03811115613350575f5ffd5b61335c888289016131d2565b92505060808601356001600160401b03811115613377575f5ffd5b6130af88828901613234565b5f5f60408385031215613394575f5ffd5b8235915060208301356001600160401b038111156133b0575f5ffd5b612ee985828601612d84565b5f5f5f606084860312156133ce575f5ffd5b83356133d981612f56565b92506020840135915060408401356001600160401b038111156133fa575f5ffd5b61340686828701612d84565b9150509250925092565b5f5f60408385031215613421575f5ffd5b82356001600160401b03811115613436575f5ffd5b61344285828601612e2b565b92505060208301356001600160401b0381111561345d575f5ffd5b612ee985828601613234565b602080825282518282018190525f918401906040840190835b81811015612fef578351835260209384019390920191600101613482565b5f5f5f606084860312156134b2575f5ffd5b83356001600160401b038111156134c7575f5ffd5b6134d386828701612e2b565b93505060208401356001600160401b038111156134ee575f5ffd5b6134fa86828701612e2b565b92505060408401356001600160401b03811115613515575f5ffd5b61340686828701613234565b5f5f5f60608486031215613533575f5ffd5b833592506020840135915060408401356001600160401b038111156133fa575f5ffd5b5f5f5f5f60808587031215613569575f5ffd5b843561357481612f56565b93506020850135925061358960408601613036565b915060608501356001600160401b038111156135a3575f5ffd5b6135af87828801612d84565b91505092959194509250565b5f602082840312156135cb575f5ffd5b81356001600160401b038111156135e0575f5ffd5b61264d84828501612e2b565b8385823760609290921b6001600160601b031916919092019081526014810191909152603401919050565b5f81518060208401855e5f93019283525090919050565b5f610ad08284613617565b634e487b7160e01b5f52601160045260245ffd5b60ff8281168282160390811115610a2957610a29613639565b60ff8181168382160190811115610a2957610a29613639565b634e487b7160e01b5f52603260045260245ffd5b604081525f6136a56040830185612cda565b905060018060a01b03831660208301529392505050565b5f5f8335601e198436030181126136d1575f5ffd5b8301803591506001600160401b038211156136ea575f5ffd5b6020019150368190038213156136fe575f5ffd5b9250929050565b818382375f9101908152919050565b634e487b7160e01b5f52600160045260245ffd5b60018060a01b03851681528360208201528215156040820152608060608201525f6137566080830184612cda565b9695505050505050565b7f646174613a6170706c69636174696f6e2f6a736f6e3b6261736536342c00000081525f610ad0601d830184613617565b650379abe3500160c51b8152600881018390525f61264d6028830184613617565b805160208201516001600160601b03198116919060148210156137f9576bffffffffffffffffffffffff196bffffffffffffffffffffffff198360140360031b1b82161692505b5050919050565b600181811c9082168061381457607f821691505b6020821081036119b357634e487b7160e01b5f52602260045260245ffd5b602081525f5f835461384381613800565b806020860152600182165f8114613861576001811461387d57612558565b60ff1983166040870152604082151560051b8701019350612558565b865f5260205f205f5b838110156138a557815488820160400152600190910190602001613886565b8701604001945050509195945050505050565b5f600182016138c9576138c9613639565b5060010190565b6001600160a01b038416815282151560208201526060604082018190525f906138fb90830184612cda565b95945050505050565b6001600160a01b0386811682528581166020830152841660408201526060810183905260a0608082018190525f9061270490830184612cda565b601f821115610fe557805f5260205f20601f840160051c810160208510156139635750805b601f840160051c820191505b81811015610f43575f815560010161396f565b81516001600160401b0381111561399b5761399b612d1a565b6139af816139a98454613800565b8461393e565b6020601f8211600181146139e1575f83156139ca5750848201515b5f19600385901b1c1916600184901b178455610f43565b5f84815260208120601f198516915b82811015613a1057878501518255602094850194600190920191016139f0565b5084821015613a2d57868401515f19600387901b60f8161c191681555b50505050600190811b01905550565b80820180821115610a2957610a29613639565b5f82613a6957634e487b7160e01b5f52601260045260245ffd5b500490565b8082028115828204841417610a2957610a29613639565b8215158152604060208201525f61264d6040830184612cda565b805160208083015191908110156119b3575f1960209190910360031b1b16919050565b828152604060208201525f61264d6040830184612cda565b5f60208284031215613aea575f5ffd5b81516001600160401b03811115613aff575f5ffd5b8201601f81018413613b0f575f5ffd5b8051613b1d612da682612d5e565b818152856020838501011115613b31575f5ffd5b8160208401602083015e5f91810160200191909152949350505050565b81810381811115610a2957610a29613639565b634e487b7160e01b5f52603160045260245ffdfe4142434445464748494a4b4c4d4e4f505152535455565758595a6162636465666768696a6b6c6d6e6f707172737475767778797a303132333435363738392b2fa264697066735822122092e540516a4eb0b7fe170936f241d652601ee40f7274186cff77bd1dd9a2809564736f6c634300081c0033",
			"opcodes": "PUSH1 0xC0 PUSH1 0x40 MSTORE PUSH1 0x15 PUSH1 0x80 SWAP1 DUP2 MSTORE PUSH32 0x4661696C656420746F2073656E64204574686572210000000000000000000000 PUSH1 0xA0 MSTORE PUSH1 0xC SWAP1 PUSH2 0x3C SWAP1 DUP3 PUSH2 0xE67 JUMP JUMPDEST POP CALLVALUE DUP1 ISZERO PUSH2 0x48 JUMPI PUSH0 PUSH0 REVERT JUMPDEST POP PUSH1 0x40 DUP1 MLOAD DUP1 DUP3 ADD DUP3 MSTORE PUSH1 0x6 DUP2 MSTORE PUSH6 0x447261636F73 PUSH1 0xD0 SHL PUSH1 0x20 DUP1 DUP4 ADD SWAP2 SWAP1 SWAP2 MSTORE DUP3 MLOAD DUP1 DUP5 ADD SWAP1 SWAP4 MSTORE PUSH1 0x3 DUP4 MSTORE PUSH3 0x445241 PUSH1 0xE8 SHL SWAP1 DUP4 ADD MSTORE SWAP1 CALLER PUSH1 0x2 PUSH0 DUP5 DUP5 DUP5 DUP5 DUP2 DUP1 PUSH2 0xA8 JUMPI PUSH1 0x40 MLOAD PUSH4 0x6B620DB PUSH1 0xE2 SHL DUP2 MSTORE PUSH1 0x4 ADD PUSH1 0x40 MLOAD DUP1 SWAP2 SUB SWAP1 REVERT JUMPDEST PUSH2 0xB1 DUP2 PUSH2 0xC43 JUMP JUMPDEST POP PUSH1 0x40 DUP1 MLOAD DUP1 DUP3 ADD SWAP1 SWAP2 MSTORE PUSH1 0x4 DUP2 MSTORE PUSH4 0x29365989 PUSH1 0xE2 SHL PUSH1 0x20 DUP3 ADD MSTORE PUSH2 0xF8 SWAP1 PUSH32 0xEAFEC4D89FA9619884B60000A4D96624A38F7AC2D8D9A604ECF07C12C77E480C SWAP1 PUSH2 0xCAD JUMP JUMPDEST PUSH2 0x122 PUSH32 0xDEBA1E292F8BA88238E10AB3C7F88BD4BE4FAC56CAD5194B6ECCEAF653468AF1 DUP6 PUSH2 0xCAD JUMP JUMPDEST PUSH2 0x14C PUSH32 0x2F0A68AB07768E01943A599E73362A0E17A63A72E94DD2E384D2C1D4DB932756 DUP5 PUSH2 0xCAD JUMP JUMPDEST PUSH1 0x40 DUP1 MLOAD PUSH1 0x20 DUP2 ADD DUP4 SWAP1 MSTORE PUSH2 0x193 SWAP2 PUSH32 0xE0261FA95DB2EB3B5439BD033CDA66D56B96F92F243A8228FD87550ED7BDFDB3 SWAP2 ADD PUSH1 0x40 DUP1 MLOAD PUSH1 0x1F NOT DUP2 DUP5 SUB ADD DUP2 MSTORE SWAP2 SWAP1 MSTORE PUSH2 0xCAD JUMP JUMPDEST POP POP PUSH1 0x40 DUP1 MLOAD PUSH1 0x20 DUP2 ADD DUP6 SWAP1 MSTORE PUSH2 0x1DE SWAP4 POP PUSH32 0xF675E9361AF1C1664C1868CFA3EB97672D6B1A513AA5B81DEC34C9EE330E818D SWAP3 POP ADD PUSH1 0x40 DUP1 MLOAD PUSH1 0x1F NOT DUP2 DUP5 SUB ADD DUP2 MSTORE SWAP2 SWAP1 MSTORE PUSH2 0xD01 JUMP JUMPDEST POP POP PUSH1 0x7 DUP1 SLOAD PUSH1 0xFF NOT SWAP1 DUP2 AND SWAP1 SWAP2 SSTORE PUSH8 0x3782DACE9D900000 PUSH1 0xB SSTORE PUSH8 0xDE0B6B3A7640000 PUSH1 0xA SWAP1 DUP2 SSTORE PUSH1 0x40 DUP1 MLOAD PUSH4 0x616C7473 PUSH1 0xE0 SHL DUP2 MSTORE PUSH1 0xD PUSH1 0x4 DUP1 DUP4 ADD DUP3 SWAP1 MSTORE DUP4 MLOAD PUSH1 0x24 SWAP4 DUP2 SWAP1 SUB DUP5 ADD DUP2 KECCAK256 DUP1 SLOAD PUSH1 0x1 PUSH1 0x1 PUSH1 0xA0 SHL SUB NOT SWAP1 DUP2 AND PUSH20 0xC1A411B2F0332C86C90AF22F5367A0265BCB1DF9 OR SWAP1 SWAP2 SSTORE PUSH4 0x30B6B4B9 PUSH1 0xE1 SHL DUP3 MSTORE SWAP2 DUP2 ADD DUP4 SWAP1 MSTORE DUP5 MLOAD SWAP1 DUP2 SWAP1 SUB SWAP1 SWAP4 ADD DUP4 KECCAK256 DUP1 SLOAD DUP3 AND PUSH20 0x188EEC07287D876A23565C3C568CBE0BB1984B83 OR SWAP1 SSTORE PUSH6 0x647261636F73 PUSH1 0xD0 SHL DUP4 MSTORE PUSH1 0x6 DUP4 ADD SWAP2 SWAP1 SWAP2 MSTORE SWAP2 MLOAD PUSH1 0x26 SWAP2 DUP2 SWAP1 SUB SWAP2 SWAP1 SWAP2 ADD SWAP1 KECCAK256 DUP1 SLOAD SWAP1 SWAP2 AND PUSH20 0xE4DAC493FC79373936AABA777B58ED60A8EF5834 OR SWAP1 SSTORE PUSH1 0x10 PUSH1 0x20 MSTORE PUSH32 0x460567DF57CD54FAFA0B012B537D990333351441DC8A10BDDD095E391A12E59F DUP1 SLOAD DUP4 AND PUSH1 0x5 SWAP1 DUP2 OR SWAP1 SWAP2 SSTORE PUSH32 0x4A8A10BCE0AA1FAAE8757ABC5AA655FE292F42048B7759D04CBF1C6BCB974B7F DUP1 SLOAD DUP5 AND DUP3 OR SWAP1 SSTORE PUSH32 0xDEA28108950A48CD731E6E9CECD9D9D21FE27DF9F9E47853D822C94A292B773A DUP1 SLOAD DUP5 AND DUP3 OR SWAP1 SSTORE PUSH32 0xA5979886620BF1E3814BACA33FF219F7CA7E237A0C1BA50F69820A84C6442EFF DUP1 SLOAD DUP5 AND DUP3 OR SWAP1 SSTORE PUSH32 0x2FE76B18F3C330F9BFD3ECD94A624ADD54AC0C57A041C89068FCBBE818BD9FA3 DUP1 SLOAD DUP5 AND PUSH1 0xF SWAP1 DUP2 OR SWAP1 SWAP2 SSTORE PUSH32 0x319B80E0BCF4EF68D6D952E19E3A699A62153D78914AF53356FC333CCD3E232E DUP1 SLOAD DUP6 AND DUP5 OR SWAP1 SSTORE PUSH32 0x836CE04EF77619C6CB8E6B40E9822C1FE4EAF98C71B4BFD7EB90F0C86310E05F DUP1 SLOAD DUP6 AND DUP5 OR SWAP1 SSTORE PUSH32 0xDCF81A84FFF3EEF05895F3B3BE616000D4A5044063A081F0C3058BDACD8F9A04 DUP1 SLOAD DUP6 AND DUP4 OR SWAP1 SSTORE PUSH32 0x3C2173C84C8FC27C0C18A6AA011246D1CCE228BECD538F5F89D6B223032BC454 DUP1 SLOAD DUP6 AND DUP5 OR SWAP1 SSTORE PUSH32 0xEF1CBFA596B82F3EBD67AF5DA17DBFA7A26CC064D3B4187E5ECD4D83CD3C6772 DUP1 SLOAD DUP6 AND DUP3 OR SWAP1 SSTORE PUSH32 0x11DF4542153122F52981E0D7F8E153850AD63B8A2F823D8A7EB911A641FAD0B9 DUP1 SLOAD DUP6 AND PUSH1 0x19 OR SWAP1 SSTORE PUSH31 0xA19DEAA5AC4AD2B9C9759A7A1772B892EB208A1C5C955CA067E886200C20D0 DUP1 SLOAD DUP6 AND DUP4 OR SWAP1 SSTORE PUSH32 0x5B33A33C2FF1BFF7CB2FC35E734AE3AC284E64ABD791846DDE0F732A1666955B DUP1 SLOAD DUP6 AND DUP4 OR SWAP1 SSTORE PUSH32 0xE52938416CBC64B0132DBD93926B51233AB10BA22BD94DFA2895CCD3B6BE4645 DUP1 SLOAD DUP6 AND DUP5 OR SWAP1 SSTORE PUSH32 0x8A17B7238A89A2AC13D567C80053FEDEE483FECE610B2D7F499B75B20D77C6E5 DUP1 SLOAD DUP6 AND DUP5 OR SWAP1 SSTORE PUSH32 0x1CBB5C4EEED4BEC59CC2C3D0FC766379EC3F078F6C9A42B4798CE9A796B3737 DUP1 SLOAD DUP6 AND DUP4 OR SWAP1 SSTORE PUSH32 0x765328B0D1DD2C76B6F743B62B2B4B4EAAD584F0A9FC15EDAFC0C525AE18FE7F DUP1 SLOAD DUP6 AND DUP5 OR SWAP1 SSTORE PUSH32 0x9532A05E5FFEFBEF80AF6E33796BAEE1BDF2F79D6A8AB1A6F2770CF06D1EE48F DUP1 SLOAD DUP6 AND DUP4 OR SWAP1 SSTORE PUSH32 0x792F7452A68FA699960FDFD1F196259D56760364C4FABBD3708833DBA4A66B7F DUP1 SLOAD DUP6 AND DUP4 OR SWAP1 SSTORE PUSH32 0x3D8381D8F2EB9E857E8CED46D9E1765F50EC74C7DE94FDD97A3CD885DC890C99 DUP1 SLOAD DUP6 AND DUP4 OR SWAP1 SSTORE PUSH32 0xE9F829B6540A30B65687522F6BADDB273789B7A3B93D97E3EC93016F260FEBFA DUP1 SLOAD DUP6 AND DUP4 OR SWAP1 SSTORE PUSH32 0x8F573E8EE3C73E8B74D85B5249F2990AF7A7C450597C0130531124A3416E0463 DUP1 SLOAD DUP6 AND DUP4 OR SWAP1 SSTORE PUSH32 0xEDF6A46FB6CDC09774642FB2FFBDCD50C34CDDF69771E26D3BE6F8685739AAF DUP1 SLOAD DUP6 AND DUP4 OR SWAP1 SSTORE PUSH32 0xF6EC96B2CCE6105DDF79DBBA81D7DF8D5E98D34C418336A8F529A53A1F7334D6 DUP1 SLOAD DUP6 AND SWAP1 SWAP2 OR SWAP1 SSTORE PUSH32 0x95B55BE5FA883902BDAA61752D3344EBADB5BFB70DC38986DA9642B58D9DEB4A DUP1 SLOAD DUP5 AND DUP3 OR SWAP1 SSTORE PUSH32 0xA8E450D508E8846A3351D24A0F0281691C6C666FF422BD0BAB02AFDAC7F68E66 DUP1 SLOAD DUP5 AND DUP3 OR SWAP1 SSTORE PUSH32 0x7A543878E663E62236DB18D0C68BC15AD08AB066A6011937F84C8CE811E59911 DUP1 SLOAD DUP5 AND PUSH1 0x3C OR SWAP1 SSTORE PUSH32 0x238140AAD6B198F93F635249555220D87B30D77EE78F6388A829629BBD8D1DEA DUP1 SLOAD DUP5 AND DUP3 OR SWAP1 SSTORE PUSH32 0xF43CCDCFA77F6341970200D8123780B1976E28C2681636A071AF3A40C530E406 DUP1 SLOAD DUP5 AND DUP4 OR SWAP1 SSTORE PUSH32 0xF4AECF617A411E253F36F0914BC51F78A922532F2B3D83AA407E49A5C7947165 DUP1 SLOAD DUP5 AND DUP3 OR SWAP1 SSTORE PUSH32 0x97862E5A9FFD0D3EBDC3CCE3A3B0887353C7D7BD76CC5C8C2D73FA76FAE1D9F4 DUP1 SLOAD DUP5 AND DUP3 OR SWAP1 SSTORE PUSH32 0xE49603D01438AEC3B6284CF7745E38530AF57AA969B64FDF26DD30A975CC6AEE DUP1 SLOAD DUP5 AND PUSH1 0x14 OR SWAP1 SSTORE PUSH32 0xF06A37BD61B268DE9A220B29065A170152FF3C15788C860452951903AB9AA224 DUP1 SLOAD DUP5 AND DUP4 OR SWAP1 SSTORE PUSH32 0xBCD0683C85DD392FA9AD251B3FA3932D4C24EEF0FA3A7062F0715325F4655AAE DUP1 SLOAD DUP5 AND DUP3 OR SWAP1 SSTORE PUSH32 0x7B7800CEF92899576454791692673CB95888317CD65A77D900B394191A2CA9CF DUP1 SLOAD DUP5 AND DUP3 OR SWAP1 SSTORE PUSH32 0x2321A98626AA46E99AC38B6021D2BC55154712CDE455A1FF9B8EEBC54EF6AE6A DUP1 SLOAD DUP5 AND DUP3 OR SWAP1 SSTORE PUSH32 0xFFF5D575B65DE5A6D6CDF9ADE2B43A9FA7D6ABB8D0F5E943DA96A974D2FCCEE7 DUP1 SLOAD DUP5 AND DUP3 OR SWAP1 SSTORE PUSH32 0x7C4DA39E8915DE9F6A5D1D3AEDFFAD399F3DFBF1B0D58CF898AE6DF69905C102 DUP1 SLOAD DUP5 AND DUP3 OR SWAP1 SSTORE PUSH32 0x61D02A600E3D412CD4D209FA7CD83FCFBE9A8A605E8970585FFCD7F92951179F DUP1 SLOAD DUP5 AND DUP3 OR SWAP1 SSTORE PUSH32 0x8F831CE447D525DE84933CE2DE3928AAAABCAC08CEFD35E3D1D4875D26F9C627 DUP1 SLOAD DUP5 AND DUP3 OR SWAP1 SSTORE PUSH32 0x8DE81A0EB0C56D2FC3B235C4AA35108FE6BCC2271DBA45003201C92465A2684B DUP1 SLOAD DUP5 AND DUP3 OR SWAP1 SSTORE PUSH32 0x884F64844951AE6298FBE071A92AAC5E9E9CEA05492F4BE95DBA659D854870EB DUP1 SLOAD DUP5 AND DUP3 OR SWAP1 SSTORE PUSH32 0xDF3619772A5B60A3C0665DBC21C20D630EEAD36E2ACFAE2A462ABEF41A83C4FB DUP1 SLOAD DUP5 AND DUP3 OR SWAP1 SSTORE PUSH32 0x4C0C255487A9F0AD0D4009285DDCDCDA80235C0E4BC8C52EE4BDFF469FB89990 DUP1 SLOAD DUP5 AND DUP3 OR SWAP1 SSTORE PUSH32 0x89589929756592818F1890F42F32BC5CF3F27B44ED19F919826849685042658A DUP1 SLOAD DUP5 AND DUP3 OR SWAP1 SSTORE PUSH32 0x80A03EAD6DA37D2F6D91360867A3F7A23F4CA987335CC49339370B5A7CEE0955 DUP1 SLOAD DUP5 AND DUP3 OR SWAP1 SSTORE PUSH32 0x6744A9A5F073769A5BB26DD628712858B2BE07874AA13F29F6853999121DB0DF DUP1 SLOAD DUP5 AND DUP3 OR SWAP1 SSTORE PUSH32 0x38A7107715739EF2AAA8D442088169B24D4948F677668C84E9C023FCACC575E DUP1 SLOAD DUP5 AND DUP3 OR SWAP1 SSTORE PUSH32 0x4F607F13C90767836B836D49E4232176A6F46D05C5F05FB2529D7963E8A2A442 DUP1 SLOAD DUP5 AND DUP3 OR SWAP1 SSTORE PUSH32 0xF45E426E0C3C247D2C758F9758B1D212CA96686AFD323689EEB505ADBE81882F DUP1 SLOAD DUP5 AND DUP4 OR SWAP1 SSTORE PUSH32 0x82530645A4A1E25EEBCFA9D2523AD7918A84A282924D1DAD9E5903EB3F01FD10 DUP1 SLOAD DUP5 AND DUP4 OR SWAP1 SSTORE PUSH32 0x84A08D0C60B9D528C5ED44D3D072D24AA66977EC7A7045DB000C71F9002BED99 DUP1 SLOAD DUP5 AND DUP3 OR SWAP1 SSTORE PUSH32 0xCDA45E15AD34AA3EA33F44C394431602372F5220AE0827C2AF26B110AB825FAB DUP1 SLOAD DUP5 AND DUP3 OR SWAP1 SSTORE PUSH32 0x6FDAF99A102C8868DA607EA340D059AE2851D1579E83846482299F497B6E7CD5 DUP1 SLOAD DUP5 AND DUP3 OR SWAP1 SSTORE PUSH32 0xAEEAEA84A20C9D85C353CDA77961E9848D1991FC7C3198EC1573530BFBD624D8 DUP1 SLOAD DUP5 AND DUP3 OR SWAP1 SSTORE PUSH32 0xDCA5F37CAF63976C95FDA87135EE4C632DA1709DBD9BA4231B771D05AB07F913 DUP1 SLOAD DUP5 AND DUP3 OR SWAP1 SSTORE PUSH32 0x2B5F5657EF60795C40F59560DF7E4AD10E01E704103AB49F9AC737068112C445 DUP1 SLOAD DUP5 AND SWAP1 SWAP2 OR SWAP1 SSTORE PUSH20 0xAD39FFBD42AB449ADCEEDB83E4DFB4C238D5EABD PUSH0 MSTORE PUSH32 0x772F5ECD9346FCBC5A2A0B52DE7263CEF5B8BA7E19716DA6FC51A135718C66CB DUP1 SLOAD SWAP1 SWAP3 AND OR SWAP1 SSTORE POP PUSH2 0xF56 SWAP2 POP POP JUMP JUMPDEST PUSH0 SLOAD PUSH1 0x1 PUSH1 0x1 PUSH1 0xA0 SHL SUB DUP3 DUP2 AND SWAP2 AND EQ PUSH2 0xCAA JUMPI PUSH0 DUP1 SLOAD PUSH1 0x40 MLOAD PUSH1 0x1 PUSH1 0x1 PUSH1 0xA0 SHL SUB DUP1 DUP6 AND SWAP4 SWAP3 AND SWAP2 PUSH32 0x8BE0079C531659141344CD1FD0A4F28419497F9722A3DAAFE3B4186F6B6457E0 SWAP2 LOG3 PUSH0 DUP1 SLOAD PUSH1 0x1 PUSH1 0x1 PUSH1 0xA0 SHL SUB NOT AND PUSH1 0x1 PUSH1 0x1 PUSH1 0xA0 SHL SUB DUP4 AND OR SWAP1 SSTORE JUMPDEST POP JUMP JUMPDEST PUSH0 DUP3 DUP2 MSTORE PUSH1 0x1 PUSH1 0x20 MSTORE PUSH1 0x40 SWAP1 KECCAK256 PUSH2 0xCC4 DUP3 DUP3 PUSH2 0xE67 JUMP JUMPDEST POP DUP2 PUSH32 0xECE574603820D07BC9B91F2A932BAADF4628AABCB8AFBA49776529C14A6104B2 DUP3 PUSH1 0x40 MLOAD PUSH2 0xCF5 SWAP2 SWAP1 PUSH2 0xF21 JUMP JUMPDEST PUSH1 0x40 MLOAD DUP1 SWAP2 SUB SWAP1 LOG2 POP POP JUMP JUMPDEST PUSH2 0xD0B DUP3 DUP3 PUSH2 0xD0F JUMP JUMPDEST POP POP JUMP JUMPDEST PUSH32 0x2145E1D6D074577DC71EF54C3807742B41B053A9352AE6B491331509ACB9750F DUP3 ADD PUSH2 0xD4F JUMPI PUSH1 0x40 MLOAD PUSH4 0x85C169BD PUSH1 0xE0 SHL DUP2 MSTORE PUSH1 0x4 ADD PUSH1 0x40 MLOAD DUP1 SWAP2 SUB SWAP1 REVERT JUMPDEST PUSH32 0xD0F59754F88971FE6BC5A6618CC9D5F1E859C58D16B22D1C7B2D3E2B246CD8AA DUP3 ADD PUSH2 0xD8F JUMPI PUSH1 0x40 MLOAD PUSH4 0xECEAB67 PUSH1 0xE3 SHL DUP2 MSTORE PUSH1 0x4 ADD PUSH1 0x40 MLOAD DUP1 SWAP2 SUB SWAP1 REVERT JUMPDEST PUSH32 0x1FD9E056A24D14C4ABC642FCC325992A946906D0DBC57DD70278AAF12842024D DUP3 ADD PUSH2 0xCAD JUMPI PUSH1 0x40 MLOAD PUSH4 0x4EF6D7FB PUSH1 0xE0 SHL DUP2 MSTORE PUSH1 0x4 ADD PUSH1 0x40 MLOAD DUP1 SWAP2 SUB SWAP1 REVERT JUMPDEST PUSH4 0x4E487B71 PUSH1 0xE0 SHL PUSH0 MSTORE PUSH1 0x41 PUSH1 0x4 MSTORE PUSH1 0x24 PUSH0 REVERT JUMPDEST PUSH1 0x1 DUP2 DUP2 SHR SWAP1 DUP3 AND DUP1 PUSH2 0xDF7 JUMPI PUSH1 0x7F DUP3 AND SWAP2 POP JUMPDEST PUSH1 0x20 DUP3 LT DUP2 SUB PUSH2 0xE15 JUMPI PUSH4 0x4E487B71 PUSH1 0xE0 SHL PUSH0 MSTORE PUSH1 0x22 PUSH1 0x4 MSTORE PUSH1 0x24 PUSH0 REVERT JUMPDEST POP SWAP2 SWAP1 POP JUMP JUMPDEST PUSH1 0x1F DUP3 GT ISZERO PUSH2 0xE62 JUMPI DUP1 PUSH0 MSTORE PUSH1 0x20 PUSH0 KECCAK256 PUSH1 0x1F DUP5 ADD PUSH1 0x5 SHR DUP2 ADD PUSH1 0x20 DUP6 LT ISZERO PUSH2 0xE40 JUMPI POP DUP1 JUMPDEST PUSH1 0x1F DUP5 ADD PUSH1 0x5 SHR DUP3 ADD SWAP2 POP JUMPDEST DUP2 DUP2 LT ISZERO PUSH2 0xE5F JUMPI PUSH0 DUP2 SSTORE PUSH1 0x1 ADD PUSH2 0xE4C JUMP JUMPDEST POP POP JUMPDEST POP POP POP JUMP JUMPDEST DUP2 MLOAD PUSH1 0x1 PUSH1 0x1 PUSH1 0x40 SHL SUB DUP2 GT ISZERO PUSH2 0xE80 JUMPI PUSH2 0xE80 PUSH2 0xDCF JUMP JUMPDEST PUSH2 0xE94 DUP2 PUSH2 0xE8E DUP5 SLOAD PUSH2 0xDE3 JUMP JUMPDEST DUP5 PUSH2 0xE1B JUMP JUMPDEST PUSH1 0x20 PUSH1 0x1F DUP3 GT PUSH1 0x1 DUP2 EQ PUSH2 0xEC6 JUMPI PUSH0 DUP4 ISZERO PUSH2 0xEAF JUMPI POP DUP5 DUP3 ADD MLOAD JUMPDEST PUSH0 NOT PUSH1 0x3 DUP6 SWAP1 SHL SHR NOT AND PUSH1 0x1 DUP5 SWAP1 SHL OR DUP5 SSTORE PUSH2 0xE5F JUMP JUMPDEST PUSH0 DUP5 DUP2 MSTORE PUSH1 0x20 DUP2 KECCAK256 PUSH1 0x1F NOT DUP6 AND SWAP2 JUMPDEST DUP3 DUP2 LT ISZERO PUSH2 0xEF5 JUMPI DUP8 DUP6 ADD MLOAD DUP3 SSTORE PUSH1 0x20 SWAP5 DUP6 ADD SWAP5 PUSH1 0x1 SWAP1 SWAP3 ADD SWAP2 ADD PUSH2 0xED5 JUMP JUMPDEST POP DUP5 DUP3 LT ISZERO PUSH2 0xF12 JUMPI DUP7 DUP5 ADD MLOAD PUSH0 NOT PUSH1 0x3 DUP8 SWAP1 SHL PUSH1 0xF8 AND SHR NOT AND DUP2 SSTORE JUMPDEST POP POP POP POP PUSH1 0x1 SWAP1 DUP2 SHL ADD SWAP1 SSTORE POP JUMP JUMPDEST PUSH1 0x20 DUP2 MSTORE PUSH0 DUP3 MLOAD DUP1 PUSH1 0x20 DUP5 ADD MSTORE DUP1 PUSH1 0x20 DUP6 ADD PUSH1 0x40 DUP6 ADD MCOPY PUSH0 PUSH1 0x40 DUP3 DUP6 ADD ADD MSTORE PUSH1 0x40 PUSH1 0x1F NOT PUSH1 0x1F DUP4 ADD AND DUP5 ADD ADD SWAP2 POP POP SWAP3 SWAP2 POP POP JUMP JUMPDEST PUSH2 0x3BEB DUP1 PUSH2 0xF63 PUSH0 CODECOPY PUSH0 RETURN INVALID PUSH1 0x80 PUSH1 0x40 MSTORE PUSH1 0x4 CALLDATASIZE LT PUSH2 0x295 JUMPI PUSH0 CALLDATALOAD PUSH1 0xE0 SHR DUP1 PUSH4 0x715018A6 GT PUSH2 0x159 JUMPI DUP1 PUSH4 0xAF8214EF GT PUSH2 0xC0 JUMPI DUP1 PUSH4 0xDB8C9663 GT PUSH2 0x79 JUMPI DUP1 PUSH4 0xDB8C9663 EQ PUSH2 0x857 JUMPI DUP1 PUSH4 0xDEDFF9C6 EQ PUSH2 0x876 JUMPI DUP1 PUSH4 0xDF43A36F EQ PUSH2 0x895 JUMPI DUP1 PUSH4 0xF2FDE38B EQ PUSH2 0x8C3 JUMPI DUP1 PUSH4 0xFC7A9F30 EQ PUSH2 0x8E2 JUMPI DUP1 PUSH4 0xFFA1AD74 EQ PUSH2 0x910 JUMPI PUSH2 0x2EE JUMP JUMPDEST DUP1 PUSH4 0xAF8214EF EQ PUSH2 0x7BB JUMPI DUP1 PUSH4 0xB47D510B EQ PUSH2 0x7CF JUMPI DUP1 PUSH4 0xBE9F0E6F EQ PUSH2 0x7E4 JUMPI DUP1 PUSH4 0xCC40EA01 EQ PUSH2 0x803 JUMPI DUP1 PUSH4 0xD11A1F07 EQ PUSH2 0x819 JUMPI DUP1 PUSH4 0xD6C1407C EQ PUSH2 0x838 JUMPI PUSH2 0x2EE JUMP JUMPDEST DUP1 PUSH4 0x86A10DDD GT PUSH2 0x112 JUMPI DUP1 PUSH4 0x86A10DDD EQ PUSH2 0x700 JUMPI DUP1 PUSH4 0x8DA5CB5B EQ PUSH2 0x71F JUMPI DUP1 PUSH4 0x97902421 EQ PUSH2 0x73B JUMPI DUP1 PUSH4 0x9B19251A EQ PUSH2 0x74E JUMPI DUP1 PUSH4 0x9C1D1883 EQ PUSH2 0x77C JUMPI DUP1 PUSH4 0xA3B261F2 EQ PUSH2 0x78F JUMPI PUSH2 0x2EE JUMP JUMPDEST DUP1 PUSH4 0x715018A6 EQ PUSH2 0x67B JUMPI DUP1 PUSH4 0x758B4E86 EQ PUSH2 0x68F JUMPI DUP1 PUSH4 0x7E87632C EQ PUSH2 0x6A4 JUMPI DUP1 PUSH4 0x7F23690C EQ PUSH2 0x6C3 JUMPI DUP1 PUSH4 0x8456CB59 EQ PUSH2 0x6D6 JUMPI DUP1 PUSH4 0x84C4BD4B EQ PUSH2 0x6EA JUMPI PUSH2 0x2EE JUMP JUMPDEST DUP1 PUSH4 0x49A6078D GT PUSH2 0x1FD JUMPI DUP1 PUSH4 0x626AAD6B GT PUSH2 0x1B6 JUMPI DUP1 PUSH4 0x626AAD6B EQ PUSH2 0x5AA JUMPI DUP1 PUSH4 0x6817C76C EQ PUSH2 0x5C9 JUMPI DUP1 PUSH4 0x6963D438 EQ PUSH2 0x5DE JUMPI DUP1 PUSH4 0x6ACA0B5F EQ PUSH2 0x5FD JUMPI DUP1 PUSH4 0x6AF5842E EQ PUSH2 0x63D JUMPI DUP1 PUSH4 0x70A08231 EQ PUSH2 0x65C JUMPI PUSH2 0x2EE JUMP JUMPDEST DUP1 PUSH4 0x49A6078D EQ PUSH2 0x4EB JUMPI DUP1 PUSH4 0x4D399CB3 EQ PUSH2 0x517 JUMPI DUP1 PUSH4 0x511B6952 EQ PUSH2 0x536 JUMPI DUP1 PUSH4 0x54F6127F EQ PUSH2 0x555 JUMPI DUP1 PUSH4 0x56A6D9EF EQ PUSH2 0x574 JUMPI DUP1 PUSH4 0x5C975ABB EQ PUSH2 0x593 JUMPI PUSH2 0x2EE JUMP JUMPDEST DUP1 PUSH4 0x1D26FCE6 GT PUSH2 0x24F JUMPI DUP1 PUSH4 0x1D26FCE6 EQ PUSH2 0x3F8 JUMPI DUP1 PUSH4 0x217B2270 EQ PUSH2 0x424 JUMPI DUP1 PUSH4 0x2A3654A4 EQ PUSH2 0x45B JUMPI DUP1 PUSH4 0x30EDC0F5 EQ PUSH2 0x47A JUMPI DUP1 PUSH4 0x3CCFD60B EQ PUSH2 0x4C3 JUMPI DUP1 PUSH4 0x3F4BA83A EQ PUSH2 0x4D7 JUMPI PUSH2 0x2EE JUMP JUMPDEST DUP1 PUSH3 0x728E46 EQ PUSH2 0x32E JUMPI DUP1 PUSH4 0x1FFC9A7 EQ PUSH2 0x34F JUMPI DUP1 PUSH4 0x12065FE0 EQ PUSH2 0x383 JUMPI DUP1 PUSH4 0x16E023B3 EQ PUSH2 0x3A5 JUMPI DUP1 PUSH4 0x18160DDD EQ PUSH2 0x3D1 JUMPI DUP1 PUSH4 0x1B659657 EQ PUSH2 0x3E5 JUMPI PUSH2 0x2EE JUMP JUMPDEST CALLDATASIZE PUSH2 0x2EE JUMPI CALLVALUE PUSH0 SUB PUSH2 0x2D5 JUMPI PUSH1 0x40 MLOAD PUSH4 0xE5099EE3 PUSH1 0xE0 SHL DUP2 MSTORE PUSH1 0x4 ADD PUSH2 0x2CC SWAP1 PUSH1 0x20 DUP1 DUP3 MSTORE PUSH1 0x4 SWAP1 DUP3 ADD MSTORE PUSH0 PUSH1 0x40 DUP3 ADD MSTORE PUSH1 0x60 ADD SWAP1 JUMP JUMPDEST PUSH1 0x40 MLOAD DUP1 SWAP2 SUB SWAP1 REVERT JUMPDEST PUSH1 0x40 MLOAD PUSH4 0x30FA4A21 PUSH1 0xE1 SHL DUP2 MSTORE PUSH1 0x4 ADD PUSH1 0x40 MLOAD DUP1 SWAP2 SUB SWAP1 REVERT JUMPDEST PUSH0 CALLDATASIZE PUSH1 0x60 PUSH1 0x4 DUP3 LT ISZERO PUSH2 0x318 JUMPI DUP3 DUP3 PUSH1 0x40 MLOAD PUSH4 0xE5099EE3 PUSH1 0xE0 SHL DUP2 MSTORE PUSH1 0x4 ADD PUSH2 0x2CC SWAP3 SWAP2 SWAP1 PUSH2 0x2C4E JUMP JUMPDEST PUSH2 0x322 DUP4 DUP4 PUSH2 0x940 JUMP JUMPDEST DUP1 MLOAD SWAP4 POP PUSH1 0x20 ADD SWAP2 POP POP RETURN JUMPDEST CALLVALUE DUP1 ISZERO PUSH2 0x339 JUMPI PUSH0 PUSH0 REVERT JUMPDEST POP PUSH2 0x34D PUSH2 0x348 CALLDATASIZE PUSH1 0x4 PUSH2 0x2C7C JUMP JUMPDEST PUSH2 0xA2F JUMP JUMPDEST STOP JUMPDEST CALLVALUE DUP1 ISZERO PUSH2 0x35A JUMPI PUSH0 PUSH0 REVERT JUMPDEST POP PUSH2 0x36E PUSH2 0x369 CALLDATASIZE PUSH1 0x4 PUSH2 0x2C93 JUMP JUMPDEST PUSH2 0xA83 JUMP JUMPDEST PUSH1 0x40 MLOAD SWAP1 ISZERO ISZERO DUP2 MSTORE PUSH1 0x20 ADD JUMPDEST PUSH1 0x40 MLOAD DUP1 SWAP2 SUB SWAP1 RETURN JUMPDEST CALLVALUE DUP1 ISZERO PUSH2 0x38E JUMPI PUSH0 PUSH0 REVERT JUMPDEST POP PUSH2 0x397 PUSH2 0xAB6 JUMP JUMPDEST PUSH1 0x40 MLOAD SWAP1 DUP2 MSTORE PUSH1 0x20 ADD PUSH2 0x37A JUMP JUMPDEST CALLVALUE DUP1 ISZERO PUSH2 0x3B0 JUMPI PUSH0 PUSH0 REVERT JUMPDEST POP PUSH2 0x3C4 PUSH2 0x3BF CALLDATASIZE PUSH1 0x4 PUSH2 0x2CBA JUMP JUMPDEST PUSH2 0xAC4 JUMP JUMPDEST PUSH1 0x40 MLOAD PUSH2 0x37A SWAP2 SWAP1 PUSH2 0x2D08 JUMP JUMPDEST CALLVALUE DUP1 ISZERO PUSH2 0x3DC JUMPI PUSH0 PUSH0 REVERT JUMPDEST POP PUSH1 0x2 SLOAD PUSH2 0x397 JUMP JUMPDEST PUSH2 0x36E PUSH2 0x3F3 CALLDATASIZE PUSH1 0x4 PUSH2 0x2DD8 JUMP JUMPDEST PUSH2 0xAD7 JUMP JUMPDEST CALLVALUE DUP1 ISZERO PUSH2 0x403 JUMPI PUSH0 PUSH0 REVERT JUMPDEST POP PUSH2 0x417 PUSH2 0x412 CALLDATASIZE PUSH1 0x4 PUSH2 0x2E90 JUMP JUMPDEST PUSH2 0xCD1 JUMP JUMPDEST PUSH1 0x40 MLOAD PUSH2 0x37A SWAP2 SWAP1 PUSH2 0x2EF3 JUMP JUMPDEST CALLVALUE DUP1 ISZERO PUSH2 0x42F JUMPI PUSH0 PUSH0 REVERT JUMPDEST POP PUSH2 0x443 PUSH2 0x43E CALLDATASIZE PUSH1 0x4 PUSH2 0x2C7C JUMP JUMPDEST PUSH2 0xDB7 JUMP JUMPDEST PUSH1 0x40 MLOAD PUSH1 0x1 PUSH1 0x1 PUSH1 0xA0 SHL SUB SWAP1 SWAP2 AND DUP2 MSTORE PUSH1 0x20 ADD PUSH2 0x37A JUMP JUMPDEST CALLVALUE DUP1 ISZERO PUSH2 0x466 JUMPI PUSH0 PUSH0 REVERT JUMPDEST POP PUSH2 0x36E PUSH2 0x475 CALLDATASIZE PUSH1 0x4 PUSH2 0x2F6A JUMP JUMPDEST PUSH2 0xDEF JUMP JUMPDEST CALLVALUE DUP1 ISZERO PUSH2 0x485 JUMPI PUSH0 PUSH0 REVERT JUMPDEST POP PUSH2 0x4B1 PUSH2 0x494 CALLDATASIZE PUSH1 0x4 PUSH2 0x2F94 JUMP JUMPDEST PUSH1 0x1 PUSH1 0x1 PUSH1 0xA0 SHL SUB AND PUSH0 SWAP1 DUP2 MSTORE PUSH1 0x10 PUSH1 0x20 MSTORE PUSH1 0x40 SWAP1 KECCAK256 SLOAD PUSH1 0xFF AND SWAP1 JUMP JUMPDEST PUSH1 0x40 MLOAD PUSH1 0xFF SWAP1 SWAP2 AND DUP2 MSTORE PUSH1 0x20 ADD PUSH2 0x37A JUMP JUMPDEST CALLVALUE DUP1 ISZERO PUSH2 0x4CE JUMPI PUSH0 PUSH0 REVERT JUMPDEST POP PUSH2 0x34D PUSH2 0xDFA JUMP JUMPDEST CALLVALUE DUP1 ISZERO PUSH2 0x4E2 JUMPI PUSH0 PUSH0 REVERT JUMPDEST POP PUSH2 0x34D PUSH2 0xE9F JUMP JUMPDEST CALLVALUE DUP1 ISZERO PUSH2 0x4F6 JUMPI PUSH0 PUSH0 REVERT JUMPDEST POP PUSH2 0x50A PUSH2 0x505 CALLDATASIZE PUSH1 0x4 PUSH2 0x2C7C JUMP JUMPDEST PUSH2 0xEB1 JUMP JUMPDEST PUSH1 0x40 MLOAD PUSH2 0x37A SWAP2 SWAP1 PUSH2 0x2FAF JUMP JUMPDEST CALLVALUE DUP1 ISZERO PUSH2 0x522 JUMPI PUSH0 PUSH0 REVERT JUMPDEST POP PUSH2 0x34D PUSH2 0x531 CALLDATASIZE PUSH1 0x4 PUSH2 0x2FFA JUMP JUMPDEST PUSH2 0xED2 JUMP JUMPDEST CALLVALUE DUP1 ISZERO PUSH2 0x541 JUMPI PUSH0 PUSH0 REVERT JUMPDEST POP PUSH2 0x34D PUSH2 0x550 CALLDATASIZE PUSH1 0x4 PUSH2 0x3045 JUMP JUMPDEST PUSH2 0xF06 JUMP JUMPDEST CALLVALUE DUP1 ISZERO PUSH2 0x560 JUMPI PUSH0 PUSH0 REVERT JUMPDEST POP PUSH2 0x3C4 PUSH2 0x56F CALLDATASIZE PUSH1 0x4 PUSH2 0x2C7C JUMP JUMPDEST PUSH2 0xF4A JUMP JUMPDEST CALLVALUE DUP1 ISZERO PUSH2 0x57F JUMPI PUSH0 PUSH0 REVERT JUMPDEST POP PUSH2 0x34D PUSH2 0x58E CALLDATASIZE PUSH1 0x4 PUSH2 0x2F6A JUMP JUMPDEST PUSH2 0xF55 JUMP JUMPDEST CALLVALUE DUP1 ISZERO PUSH2 0x59E JUMPI PUSH0 PUSH0 REVERT JUMPDEST POP PUSH1 0x7 SLOAD PUSH1 0xFF AND PUSH2 0x36E JUMP JUMPDEST CALLVALUE DUP1 ISZERO PUSH2 0x5B5 JUMPI PUSH0 PUSH0 REVERT JUMPDEST POP PUSH2 0x34D PUSH2 0x5C4 CALLDATASIZE PUSH1 0x4 PUSH2 0x30BC JUMP JUMPDEST PUSH2 0xFEA JUMP JUMPDEST CALLVALUE DUP1 ISZERO PUSH2 0x5D4 JUMPI PUSH0 PUSH0 REVERT JUMPDEST POP PUSH2 0x397 PUSH1 0xB SLOAD DUP2 JUMP JUMPDEST CALLVALUE DUP1 ISZERO PUSH2 0x5E9 JUMPI PUSH0 PUSH0 REVERT JUMPDEST POP PUSH2 0x417 PUSH2 0x5F8 CALLDATASIZE PUSH1 0x4 PUSH2 0x30FF JUMP JUMPDEST PUSH2 0x106E JUMP JUMPDEST CALLVALUE DUP1 ISZERO PUSH2 0x608 JUMPI PUSH0 PUSH0 REVERT JUMPDEST POP PUSH2 0x443 PUSH2 0x617 CALLDATASIZE PUSH1 0x4 PUSH2 0x2DD8 JUMP JUMPDEST DUP1 MLOAD PUSH1 0x20 DUP2 DUP4 ADD DUP2 ADD DUP1 MLOAD PUSH1 0xD DUP3 MSTORE SWAP3 DUP3 ADD SWAP2 SWAP1 SWAP4 ADD KECCAK256 SWAP2 MSTORE SLOAD PUSH1 0x1 PUSH1 0x1 PUSH1 0xA0 SHL SUB AND DUP2 JUMP JUMPDEST CALLVALUE DUP1 ISZERO PUSH2 0x648 JUMPI PUSH0 PUSH0 REVERT JUMPDEST POP PUSH2 0x34D PUSH2 0x657 CALLDATASIZE PUSH1 0x4 PUSH2 0x2C7C JUMP JUMPDEST PUSH2 0x1198 JUMP JUMPDEST CALLVALUE DUP1 ISZERO PUSH2 0x667 JUMPI PUSH0 PUSH0 REVERT JUMPDEST POP PUSH2 0x397 PUSH2 0x676 CALLDATASIZE PUSH1 0x4 PUSH2 0x2F94 JUMP JUMPDEST PUSH2 0x11DD JUMP JUMPDEST CALLVALUE DUP1 ISZERO PUSH2 0x686 JUMPI PUSH0 PUSH0 REVERT JUMPDEST POP PUSH2 0x34D PUSH2 0x11FD JUMP JUMPDEST CALLVALUE DUP1 ISZERO PUSH2 0x69A JUMPI PUSH0 PUSH0 REVERT JUMPDEST POP PUSH2 0x397 PUSH2 0x1E61 DUP2 JUMP JUMPDEST CALLVALUE DUP1 ISZERO PUSH2 0x6AF JUMPI PUSH0 PUSH0 REVERT JUMPDEST POP PUSH2 0x34D PUSH2 0x6BE CALLDATASIZE PUSH1 0x4 PUSH2 0x32B2 JUMP JUMPDEST PUSH2 0x120E JUMP JUMPDEST PUSH2 0x34D PUSH2 0x6D1 CALLDATASIZE PUSH1 0x4 PUSH2 0x3383 JUMP JUMPDEST PUSH2 0x12FC JUMP JUMPDEST CALLVALUE DUP1 ISZERO PUSH2 0x6E1 JUMPI PUSH0 PUSH0 REVERT JUMPDEST POP PUSH2 0x34D PUSH2 0x132D JUMP JUMPDEST CALLVALUE DUP1 ISZERO PUSH2 0x6F5 JUMPI PUSH0 PUSH0 REVERT JUMPDEST POP PUSH1 0x8 SLOAD PUSH2 0x397 SWAP1 DUP2 JUMP JUMPDEST CALLVALUE DUP1 ISZERO PUSH2 0x70B JUMPI PUSH0 PUSH0 REVERT JUMPDEST POP PUSH2 0x34D PUSH2 0x71A CALLDATASIZE PUSH1 0x4 PUSH2 0x33BC JUMP JUMPDEST PUSH2 0x133D JUMP JUMPDEST CALLVALUE DUP1 ISZERO PUSH2 0x72A JUMPI PUSH0 PUSH0 REVERT JUMPDEST POP PUSH0 SLOAD PUSH1 0x1 PUSH1 0x1 PUSH1 0xA0 SHL SUB AND PUSH2 0x443 JUMP JUMPDEST PUSH2 0x34D PUSH2 0x749 CALLDATASIZE PUSH1 0x4 PUSH2 0x3410 JUMP JUMPDEST PUSH2 0x14B4 JUMP JUMPDEST CALLVALUE DUP1 ISZERO PUSH2 0x759 JUMPI PUSH0 PUSH0 REVERT JUMPDEST POP PUSH2 0x4B1 PUSH2 0x768 CALLDATASIZE PUSH1 0x4 PUSH2 0x2F94 JUMP JUMPDEST PUSH1 0x10 PUSH1 0x20 MSTORE PUSH0 SWAP1 DUP2 MSTORE PUSH1 0x40 SWAP1 KECCAK256 SLOAD PUSH1 0xFF AND DUP2 JUMP JUMPDEST PUSH2 0x36E PUSH2 0x78A CALLDATASIZE PUSH1 0x4 PUSH2 0x3383 JUMP JUMPDEST PUSH2 0x156D JUMP JUMPDEST CALLVALUE DUP1 ISZERO PUSH2 0x79A JUMPI PUSH0 PUSH0 REVERT JUMPDEST POP PUSH2 0x7AE PUSH2 0x7A9 CALLDATASIZE PUSH1 0x4 PUSH2 0x2F94 JUMP JUMPDEST PUSH2 0x16D7 JUMP JUMPDEST PUSH1 0x40 MLOAD PUSH2 0x37A SWAP2 SWAP1 PUSH2 0x3469 JUMP JUMPDEST CALLVALUE DUP1 ISZERO PUSH2 0x7C6 JUMPI PUSH0 PUSH0 REVERT JUMPDEST POP PUSH2 0x4B1 PUSH1 0x4D DUP2 JUMP JUMPDEST CALLVALUE DUP1 ISZERO PUSH2 0x7DA JUMPI PUSH0 PUSH0 REVERT JUMPDEST POP PUSH2 0x397 PUSH1 0xA SLOAD DUP2 JUMP JUMPDEST CALLVALUE DUP1 ISZERO PUSH2 0x7EF JUMPI PUSH0 PUSH0 REVERT JUMPDEST POP PUSH2 0x34D PUSH2 0x7FE CALLDATASIZE PUSH1 0x4 PUSH2 0x34A0 JUMP JUMPDEST PUSH2 0x16FA JUMP JUMPDEST CALLVALUE DUP1 ISZERO PUSH2 0x80E JUMPI PUSH0 PUSH0 REVERT JUMPDEST POP PUSH1 0x9 SLOAD PUSH2 0x397 SWAP1 DUP2 JUMP JUMPDEST CALLVALUE DUP1 ISZERO PUSH2 0x824 JUMPI PUSH0 PUSH0 REVERT JUMPDEST POP PUSH2 0x3C4 PUSH2 0x833 CALLDATASIZE PUSH1 0x4 PUSH2 0x2DD8 JUMP JUMPDEST PUSH2 0x17C3 JUMP JUMPDEST CALLVALUE DUP1 ISZERO PUSH2 0x843 JUMPI PUSH0 PUSH0 REVERT JUMPDEST POP PUSH2 0x34D PUSH2 0x852 CALLDATASIZE PUSH1 0x4 PUSH2 0x3521 JUMP JUMPDEST PUSH2 0x181C JUMP JUMPDEST CALLVALUE DUP1 ISZERO PUSH2 0x862 JUMPI PUSH0 PUSH0 REVERT JUMPDEST POP PUSH2 0x34D PUSH2 0x871 CALLDATASIZE PUSH1 0x4 PUSH2 0x3556 JUMP JUMPDEST PUSH2 0x182F JUMP JUMPDEST CALLVALUE DUP1 ISZERO PUSH2 0x881 JUMPI PUSH0 PUSH0 REVERT JUMPDEST POP PUSH2 0x417 PUSH2 0x890 CALLDATASIZE PUSH1 0x4 PUSH2 0x35BB JUMP JUMPDEST PUSH2 0x1910 JUMP JUMPDEST CALLVALUE DUP1 ISZERO PUSH2 0x8A0 JUMPI PUSH0 PUSH0 REVERT JUMPDEST POP PUSH2 0x4B1 PUSH2 0x8AF CALLDATASIZE PUSH1 0x4 PUSH2 0x2F94 JUMP JUMPDEST PUSH1 0xE PUSH1 0x20 MSTORE PUSH0 SWAP1 DUP2 MSTORE PUSH1 0x40 SWAP1 KECCAK256 SLOAD PUSH1 0xFF AND DUP2 JUMP JUMPDEST CALLVALUE DUP1 ISZERO PUSH2 0x8CE JUMPI PUSH0 PUSH0 REVERT JUMPDEST POP PUSH2 0x34D PUSH2 0x8DD CALLDATASIZE PUSH1 0x4 PUSH2 0x2F94 JUMP JUMPDEST PUSH2 0x19B9 JUMP JUMPDEST CALLVALUE DUP1 ISZERO PUSH2 0x8ED JUMPI PUSH0 PUSH0 REVERT JUMPDEST POP PUSH2 0x4B1 PUSH2 0x8FC CALLDATASIZE PUSH1 0x4 PUSH2 0x2C7C JUMP JUMPDEST PUSH1 0xF PUSH1 0x20 MSTORE PUSH0 SWAP1 DUP2 MSTORE PUSH1 0x40 SWAP1 KECCAK256 SLOAD PUSH1 0xFF AND DUP2 JUMP JUMPDEST CALLVALUE DUP1 ISZERO PUSH2 0x91B JUMPI PUSH0 PUSH0 REVERT JUMPDEST POP PUSH2 0x3C4 PUSH1 0x40 MLOAD DUP1 PUSH1 0x40 ADD PUSH1 0x40 MSTORE DUP1 PUSH1 0x5 DUP2 MSTORE PUSH1 0x20 ADD PUSH5 0x312E302E3 PUSH1 0xDC SHL DUP2 MSTORE POP DUP2 JUMP JUMPDEST PUSH1 0x60 PUSH0 PUSH2 0x957 PUSH0 CALLDATALOAD PUSH1 0x1 PUSH1 0x1 PUSH1 0xE0 SHL SUB NOT AND PUSH2 0x19F4 JUMP JUMPDEST POP SWAP1 POP PUSH1 0x1 PUSH1 0x1 PUSH1 0xA0 SHL SUB DUP2 AND PUSH2 0x98E JUMPI PUSH1 0x40 MLOAD PUSH4 0xBB370B2B PUSH1 0xE0 SHL DUP2 MSTORE PUSH1 0x1 PUSH1 0x1 PUSH1 0xE0 SHL SUB NOT PUSH0 CALLDATALOAD AND PUSH1 0x4 DUP3 ADD MSTORE PUSH1 0x24 ADD PUSH2 0x2CC JUMP JUMPDEST PUSH0 PUSH0 DUP3 PUSH1 0x1 PUSH1 0x1 PUSH1 0xA0 SHL SUB AND CALLVALUE DUP8 DUP8 CALLER CALLVALUE PUSH1 0x40 MLOAD PUSH1 0x20 ADD PUSH2 0x9B2 SWAP5 SWAP4 SWAP3 SWAP2 SWAP1 PUSH2 0x35EC JUMP JUMPDEST PUSH1 0x40 DUP1 MLOAD PUSH1 0x1F NOT DUP2 DUP5 SUB ADD DUP2 MSTORE SWAP1 DUP3 SWAP1 MSTORE PUSH2 0x9CC SWAP2 PUSH2 0x362E JUMP JUMPDEST PUSH0 PUSH1 0x40 MLOAD DUP1 DUP4 SUB DUP2 DUP6 DUP8 GAS CALL SWAP3 POP POP POP RETURNDATASIZE DUP1 PUSH0 DUP2 EQ PUSH2 0xA06 JUMPI PUSH1 0x40 MLOAD SWAP2 POP PUSH1 0x1F NOT PUSH1 0x3F RETURNDATASIZE ADD AND DUP3 ADD PUSH1 0x40 MSTORE RETURNDATASIZE DUP3 MSTORE RETURNDATASIZE PUSH0 PUSH1 0x20 DUP5 ADD RETURNDATACOPY PUSH2 0xA0B JUMP JUMPDEST PUSH1 0x60 SWAP2 POP JUMPDEST POP SWAP2 POP SWAP2 POP DUP2 ISZERO PUSH2 0xA20 JUMPI SWAP3 POP PUSH2 0xA29 SWAP2 POP POP JUMP JUMPDEST DUP1 MLOAD DUP1 PUSH1 0x20 DUP4 ADD REVERT JUMPDEST SWAP3 SWAP2 POP POP JUMP JUMPDEST PUSH2 0xA37 PUSH2 0x1A70 JUMP JUMPDEST PUSH1 0xB DUP2 SWAP1 SSTORE PUSH32 0x627F3F9ABDCEB64F973DA0C4835EBA8D0147329526E6325906E29601A203E63A DUP2 CALLER JUMPDEST PUSH1 0x40 DUP1 MLOAD SWAP3 DUP4 MSTORE PUSH1 0x1 PUSH1 0x1 PUSH1 0xA0 SHL SUB SWAP1 SWAP2 AND PUSH1 0x20 DUP4 ADD MSTORE ADD PUSH1 0x40 MLOAD DUP1 SWAP2 SUB SWAP1 LOG1 POP JUMP JUMPDEST PUSH0 PUSH1 0x1 PUSH1 0x1 PUSH1 0xE0 SHL SUB NOT DUP3 AND PUSH4 0x1D138B83 PUSH1 0xE1 SHL EQ DUP1 PUSH2 0xAA7 JUMPI POP PUSH2 0xAA7 DUP3 PUSH2 0x1AAB JUMP JUMPDEST DUP1 PUSH2 0xA29 JUMPI POP PUSH2 0xA29 DUP3 PUSH2 0x1ACF JUMP JUMPDEST PUSH0 PUSH2 0xABF PUSH2 0x1A70 JUMP JUMPDEST POP SELFBALANCE SWAP1 JUMP JUMPDEST PUSH1 0x60 PUSH2 0xAD0 DUP4 DUP4 PUSH2 0x1B04 JUMP JUMPDEST SWAP4 SWAP3 POP POP POP JUMP JUMPDEST PUSH0 PUSH2 0xAE0 PUSH2 0x1BAF JUMP JUMPDEST PUSH1 0x2 SLOAD PUSH2 0x1E61 GT PUSH2 0xB2A JUMPI PUSH1 0x40 MLOAD PUSH3 0x461BCD PUSH1 0xE5 SHL DUP2 MSTORE PUSH1 0x20 PUSH1 0x4 DUP3 ADD MSTORE PUSH1 0x14 PUSH1 0x24 DUP3 ADD MSTORE PUSH20 0x26B0BC1039BAB838363C9032BC31B2B2B232B217 PUSH1 0x61 SHL PUSH1 0x44 DUP3 ADD MSTORE PUSH1 0x64 ADD PUSH2 0x2CC JUMP JUMPDEST CALLER PUSH0 SWAP1 DUP2 MSTORE PUSH1 0xE PUSH1 0x20 MSTORE PUSH1 0x40 SWAP1 KECCAK256 SLOAD PUSH1 0xFF AND PUSH1 0x4D GT PUSH2 0xB8B JUMPI PUSH1 0x40 MLOAD PUSH3 0x461BCD PUSH1 0xE5 SHL DUP2 MSTORE PUSH1 0x20 PUSH1 0x4 DUP3 ADD MSTORE PUSH1 0x1F PUSH1 0x24 DUP3 ADD MSTORE PUSH32 0x4C696D69746174696F6E207065722077616C6C65742065786365656465642E00 PUSH1 0x44 DUP3 ADD MSTORE PUSH1 0x64 ADD PUSH2 0x2CC JUMP JUMPDEST PUSH1 0xB SLOAD ISZERO PUSH2 0xC21 JUMPI CALLER PUSH0 SWAP1 DUP2 MSTORE PUSH1 0x10 PUSH1 0x20 MSTORE PUSH1 0x40 SWAP1 KECCAK256 SLOAD PUSH1 0x1 PUSH1 0xFF SWAP1 SWAP2 AND LT ISZERO PUSH2 0xBE2 JUMPI PUSH1 0xB SLOAD CALLVALUE LT ISZERO PUSH2 0xBD4 JUMPI PUSH1 0x40 MLOAD PUSH4 0x92665351 PUSH1 0xE0 SHL DUP2 MSTORE CALLVALUE PUSH1 0x4 DUP3 ADD MSTORE PUSH1 0x24 ADD PUSH2 0x2CC JUMP JUMPDEST PUSH2 0xBDD CALLVALUE PUSH2 0x1BD3 JUMP JUMPDEST PUSH2 0xC21 JUMP JUMPDEST CALLER PUSH0 SWAP1 DUP2 MSTORE PUSH1 0x10 PUSH1 0x20 MSTORE PUSH1 0x40 SWAP1 KECCAK256 SLOAD PUSH2 0xC00 SWAP1 PUSH1 0x1 SWAP1 PUSH1 0xFF AND PUSH2 0x364D JUMP JUMPDEST CALLER PUSH0 SWAP1 DUP2 MSTORE PUSH1 0x10 PUSH1 0x20 MSTORE PUSH1 0x40 SWAP1 KECCAK256 DUP1 SLOAD PUSH1 0xFF NOT AND PUSH1 0xFF SWAP3 SWAP1 SWAP3 AND SWAP2 SWAP1 SWAP2 OR SWAP1 SSTORE JUMPDEST PUSH2 0xC2F PUSH1 0x8 DUP1 SLOAD PUSH1 0x1 ADD SWAP1 SSTORE JUMP JUMPDEST PUSH0 PUSH2 0xC39 PUSH1 0x8 SLOAD SWAP1 JUMP JUMPDEST SWAP1 POP PUSH2 0xC56 CALLER DUP3 PUSH1 0x1 PUSH1 0x40 MLOAD DUP1 PUSH1 0x20 ADD PUSH1 0x40 MSTORE DUP1 PUSH0 DUP2 MSTORE POP PUSH2 0x1DBA JUMP JUMPDEST PUSH2 0xC89 DUP2 PUSH32 0x9AFB95CACC9F95858EC44AA8C3B685511002E30AE54415823F406128B85B238E PUSH2 0xC84 DUP7 PUSH2 0x17C3 JUMP JUMPDEST PUSH2 0x1F23 JUMP JUMPDEST CALLER PUSH0 SWAP1 DUP2 MSTORE PUSH1 0xE PUSH1 0x20 MSTORE PUSH1 0x40 SWAP1 KECCAK256 SLOAD PUSH2 0xCA6 SWAP1 PUSH1 0xFF AND PUSH1 0x1 PUSH2 0x3666 JUMP JUMPDEST CALLER PUSH0 SWAP1 DUP2 MSTORE PUSH1 0xE PUSH1 0x20 MSTORE PUSH1 0x40 SWAP1 KECCAK256 DUP1 SLOAD PUSH1 0xFF NOT AND PUSH1 0xFF SWAP3 SWAP1 SWAP3 AND SWAP2 SWAP1 SWAP2 OR SWAP1 SSTORE POP PUSH1 0x1 SWAP1 POP JUMPDEST SWAP2 SWAP1 POP JUMP JUMPDEST PUSH1 0x60 DUP2 MLOAD DUP4 MLOAD EQ PUSH2 0xCF5 JUMPI PUSH1 0x40 MLOAD PUSH4 0x17D38EFF PUSH1 0xE1 SHL DUP2 MSTORE PUSH1 0x4 ADD PUSH1 0x40 MLOAD DUP1 SWAP2 SUB SWAP1 REVERT JUMPDEST DUP3 MLOAD PUSH1 0x1 PUSH1 0x1 PUSH1 0x40 SHL SUB DUP2 GT ISZERO PUSH2 0xD0E JUMPI PUSH2 0xD0E PUSH2 0x2D1A JUMP JUMPDEST PUSH1 0x40 MLOAD SWAP1 DUP1 DUP3 MSTORE DUP1 PUSH1 0x20 MUL PUSH1 0x20 ADD DUP3 ADD PUSH1 0x40 MSTORE DUP1 ISZERO PUSH2 0xD41 JUMPI DUP2 PUSH1 0x20 ADD JUMPDEST PUSH1 0x60 DUP2 MSTORE PUSH1 0x20 ADD SWAP1 PUSH1 0x1 SWAP1 SUB SWAP1 DUP2 PUSH2 0xD2C JUMPI SWAP1 POP JUMPDEST POP SWAP1 POP PUSH0 JUMPDEST DUP4 MLOAD DUP2 LT ISZERO PUSH2 0xDB0 JUMPI PUSH2 0xD8B DUP5 DUP3 DUP2 MLOAD DUP2 LT PUSH2 0xD64 JUMPI PUSH2 0xD64 PUSH2 0x367F JUMP JUMPDEST PUSH1 0x20 MUL PUSH1 0x20 ADD ADD MLOAD DUP5 DUP4 DUP2 MLOAD DUP2 LT PUSH2 0xD7E JUMPI PUSH2 0xD7E PUSH2 0x367F JUMP JUMPDEST PUSH1 0x20 MUL PUSH1 0x20 ADD ADD MLOAD PUSH2 0x1B04 JUMP JUMPDEST DUP3 DUP3 DUP2 MLOAD DUP2 LT PUSH2 0xD9D JUMPI PUSH2 0xD9D PUSH2 0x367F JUMP JUMPDEST PUSH1 0x20 SWAP1 DUP2 MUL SWAP2 SWAP1 SWAP2 ADD ADD MSTORE PUSH1 0x1 ADD PUSH2 0xD46 JUMP JUMPDEST POP SWAP3 SWAP2 POP POP JUMP JUMPDEST PUSH0 DUP2 DUP2 MSTORE PUSH1 0x3 PUSH1 0x20 MSTORE PUSH1 0x40 DUP2 KECCAK256 SLOAD PUSH1 0x1 PUSH1 0x1 PUSH1 0xA0 SHL SUB AND DUP1 PUSH2 0xA29 JUMPI PUSH1 0x40 MLOAD PUSH4 0x5747CD1B PUSH1 0xE1 SHL DUP2 MSTORE PUSH1 0x4 DUP2 ADD DUP5 SWAP1 MSTORE PUSH1 0x24 ADD PUSH2 0x2CC JUMP JUMPDEST PUSH0 PUSH2 0xAD0 DUP4 DUP4 PUSH2 0x1F84 JUMP JUMPDEST PUSH2 0xE02 PUSH2 0x1A70 JUMP JUMPDEST SELFBALANCE PUSH0 PUSH2 0xE15 PUSH0 SLOAD PUSH1 0x1 PUSH1 0x1 PUSH1 0xA0 SHL SUB AND SWAP1 JUMP JUMPDEST PUSH1 0x1 PUSH1 0x1 PUSH1 0xA0 SHL SUB AND DUP3 PUSH1 0x40 MLOAD PUSH0 PUSH1 0x40 MLOAD DUP1 DUP4 SUB DUP2 DUP6 DUP8 GAS CALL SWAP3 POP POP POP RETURNDATASIZE DUP1 PUSH0 DUP2 EQ PUSH2 0xE5C JUMPI PUSH1 0x40 MLOAD SWAP2 POP PUSH1 0x1F NOT PUSH1 0x3F RETURNDATASIZE ADD AND DUP3 ADD PUSH1 0x40 MSTORE RETURNDATASIZE DUP3 MSTORE RETURNDATASIZE PUSH0 PUSH1 0x20 DUP5 ADD RETURNDATACOPY PUSH2 0xE61 JUMP JUMPDEST PUSH1 0x60 SWAP2 POP JUMPDEST POP POP SWAP1 POP DUP1 PUSH2 0xE9B JUMPI PUSH1 0x40 MLOAD PUSH3 0x461BCD PUSH1 0xE5 SHL DUP2 MSTORE PUSH1 0x20 PUSH1 0x4 DUP3 ADD MSTORE PUSH1 0x6 PUSH1 0x24 DUP3 ADD MSTORE PUSH6 0x11985A5B1959 PUSH1 0xD2 SHL PUSH1 0x44 DUP3 ADD MSTORE PUSH1 0x64 ADD PUSH2 0x2CC JUMP JUMPDEST POP POP JUMP JUMPDEST PUSH2 0xEA7 PUSH2 0x1A70 JUMP JUMPDEST PUSH2 0xEAF PUSH2 0x1FBF JUMP JUMPDEST JUMP JUMPDEST PUSH1 0x60 PUSH2 0xEBC DUP3 PUSH2 0x2011 JUMP JUMPDEST PUSH0 DUP3 DUP2 MSTORE PUSH1 0x5 PUSH1 0x20 MSTORE PUSH1 0x40 SWAP1 KECCAK256 PUSH2 0xA29 SWAP1 PUSH2 0x2048 JUMP JUMPDEST PUSH2 0xEDA PUSH2 0x1A70 JUMP JUMPDEST PUSH1 0x1 PUSH1 0x1 PUSH1 0xA0 SHL SUB SWAP2 SWAP1 SWAP2 AND PUSH0 SWAP1 DUP2 MSTORE PUSH1 0x10 PUSH1 0x20 MSTORE PUSH1 0x40 SWAP1 KECCAK256 DUP1 SLOAD PUSH1 0xFF NOT AND PUSH1 0xFF SWAP1 SWAP3 AND SWAP2 SWAP1 SWAP2 OR SWAP1 SSTORE JUMP JUMPDEST PUSH2 0xF10 CALLER DUP5 PUSH2 0x1F84 JUMP JUMPDEST PUSH2 0xF36 JUMPI PUSH1 0x40 MLOAD PUSH4 0x1294D2A9 PUSH1 0xE0 SHL DUP2 MSTORE PUSH1 0x4 DUP2 ADD DUP5 SWAP1 MSTORE CALLER PUSH1 0x24 DUP3 ADD MSTORE PUSH1 0x44 ADD PUSH2 0x2CC JUMP JUMPDEST PUSH2 0xF43 DUP6 DUP6 DUP6 DUP6 DUP6 PUSH2 0x2054 JUMP JUMPDEST POP POP POP POP POP JUMP JUMPDEST PUSH1 0x60 PUSH2 0xA29 DUP3 PUSH2 0x2230 JUMP JUMPDEST PUSH2 0xF5D PUSH2 0x1A70 JUMP JUMPDEST PUSH0 DUP3 PUSH1 0x1 PUSH1 0x1 PUSH1 0xA0 SHL SUB AND DUP3 PUSH1 0x40 MLOAD PUSH0 PUSH1 0x40 MLOAD DUP1 DUP4 SUB DUP2 DUP6 DUP8 GAS CALL SWAP3 POP POP POP RETURNDATASIZE DUP1 PUSH0 DUP2 EQ PUSH2 0xFA6 JUMPI PUSH1 0x40 MLOAD SWAP2 POP PUSH1 0x1F NOT PUSH1 0x3F RETURNDATASIZE ADD AND DUP3 ADD PUSH1 0x40 MSTORE RETURNDATASIZE DUP3 MSTORE RETURNDATASIZE PUSH0 PUSH1 0x20 DUP5 ADD RETURNDATACOPY PUSH2 0xFAB JUMP JUMPDEST PUSH1 0x60 SWAP2 POP JUMPDEST POP POP SWAP1 POP DUP1 PUSH2 0xFE5 JUMPI PUSH1 0x40 MLOAD PUSH3 0x461BCD PUSH1 0xE5 SHL DUP2 MSTORE PUSH1 0x20 PUSH1 0x4 DUP3 ADD MSTORE PUSH1 0x6 PUSH1 0x24 DUP3 ADD MSTORE PUSH6 0x11985A5B1959 PUSH1 0xD2 SHL PUSH1 0x44 DUP3 ADD MSTORE PUSH1 0x64 ADD PUSH2 0x2CC JUMP JUMPDEST POP POP POP JUMP JUMPDEST PUSH2 0xFF2 PUSH2 0x1A70 JUMP JUMPDEST DUP1 PUSH1 0xD DUP4 PUSH1 0x40 MLOAD PUSH2 0x1003 SWAP2 SWAP1 PUSH2 0x362E JUMP JUMPDEST SWAP1 DUP2 MSTORE PUSH1 0x40 MLOAD SWAP1 DUP2 SWAP1 SUB PUSH1 0x20 ADD DUP2 KECCAK256 DUP1 SLOAD PUSH1 0x1 PUSH1 0x1 PUSH1 0xA0 SHL SUB SWAP4 SWAP1 SWAP4 AND PUSH1 0x1 PUSH1 0x1 PUSH1 0xA0 SHL SUB NOT SWAP1 SWAP4 AND SWAP3 SWAP1 SWAP3 OR SWAP1 SWAP2 SSTORE PUSH32 0xA55BFBF28B3E4791376D4E67253F1743A34A31A8824092EC7DDA235C4C5C6EC1 SWAP1 PUSH2 0x1062 SWAP1 DUP5 SWAP1 DUP5 SWAP1 PUSH2 0x3693 JUMP JUMPDEST PUSH1 0x40 MLOAD DUP1 SWAP2 SUB SWAP1 LOG1 POP POP JUMP JUMPDEST PUSH1 0x60 DUP2 PUSH1 0x1 PUSH1 0x1 PUSH1 0x40 SHL SUB DUP2 GT ISZERO PUSH2 0x1088 JUMPI PUSH2 0x1088 PUSH2 0x2D1A JUMP JUMPDEST PUSH1 0x40 MLOAD SWAP1 DUP1 DUP3 MSTORE DUP1 PUSH1 0x20 MUL PUSH1 0x20 ADD DUP3 ADD PUSH1 0x40 MSTORE DUP1 ISZERO PUSH2 0x10BB JUMPI DUP2 PUSH1 0x20 ADD JUMPDEST PUSH1 0x60 DUP2 MSTORE PUSH1 0x20 ADD SWAP1 PUSH1 0x1 SWAP1 SUB SWAP1 DUP2 PUSH2 0x10A6 JUMPI SWAP1 POP JUMPDEST POP SWAP1 POP PUSH0 JUMPDEST DUP3 DUP2 LT ISZERO PUSH2 0xDB0 JUMPI PUSH0 DUP1 ADDRESS DUP7 DUP7 DUP6 DUP2 DUP2 LT PUSH2 0x10DD JUMPI PUSH2 0x10DD PUSH2 0x367F JUMP JUMPDEST SWAP1 POP PUSH1 0x20 MUL DUP2 ADD SWAP1 PUSH2 0x10EF SWAP2 SWAP1 PUSH2 0x36BC JUMP JUMPDEST PUSH1 0x40 MLOAD PUSH2 0x10FD SWAP3 SWAP2 SWAP1 PUSH2 0x3705 JUMP JUMPDEST PUSH0 PUSH1 0x40 MLOAD DUP1 DUP4 SUB DUP2 DUP6 GAS DELEGATECALL SWAP2 POP POP RETURNDATASIZE DUP1 PUSH0 DUP2 EQ PUSH2 0x1135 JUMPI PUSH1 0x40 MLOAD SWAP2 POP PUSH1 0x1F NOT PUSH1 0x3F RETURNDATASIZE ADD AND DUP3 ADD PUSH1 0x40 MSTORE RETURNDATASIZE DUP3 MSTORE RETURNDATASIZE PUSH0 PUSH1 0x20 DUP5 ADD RETURNDATACOPY PUSH2 0x113A JUMP JUMPDEST PUSH1 0x60 SWAP2 POP JUMPDEST POP SWAP2 POP SWAP2 POP DUP2 PUSH2 0x1170 JUMPI DUP1 MLOAD ISZERO PUSH2 0x1154 JUMPI DUP1 MLOAD DUP1 DUP3 PUSH1 0x20 ADD REVERT JUMPDEST PUSH1 0x40 MLOAD PUSH4 0x234EB819 PUSH1 0xE0 SHL DUP2 MSTORE PUSH1 0x4 DUP2 ADD DUP5 SWAP1 MSTORE PUSH1 0x24 ADD PUSH2 0x2CC JUMP JUMPDEST DUP1 DUP5 DUP5 DUP2 MLOAD DUP2 LT PUSH2 0x1183 JUMPI PUSH2 0x1183 PUSH2 0x367F JUMP JUMPDEST PUSH1 0x20 SWAP1 DUP2 MUL SWAP2 SWAP1 SWAP2 ADD ADD MSTORE POP POP PUSH1 0x1 ADD PUSH2 0x10C0 JUMP JUMPDEST PUSH2 0x11A0 PUSH2 0x1A70 JUMP JUMPDEST PUSH1 0x64 DUP2 LT PUSH2 0x11B0 JUMPI PUSH2 0x11B0 PUSH2 0x3714 JUMP JUMPDEST PUSH1 0xA DUP2 SWAP1 SSTORE PUSH32 0x4E0225FF6EF5E95B2A87452ED36819FF10077C4F1562F7CD0E02CA890E8D0743 DUP2 CALLER PUSH2 0xA60 JUMP JUMPDEST PUSH1 0x1 PUSH1 0x1 PUSH1 0xA0 SHL SUB DUP2 AND PUSH0 SWAP1 DUP2 MSTORE PUSH1 0x4 PUSH1 0x20 MSTORE PUSH1 0x40 DUP2 KECCAK256 PUSH2 0xA29 SWAP1 PUSH2 0x22CF JUMP JUMPDEST PUSH2 0x1205 PUSH2 0x1A70 JUMP JUMPDEST PUSH2 0xEAF PUSH0 PUSH2 0x22D8 JUMP JUMPDEST DUP5 MLOAD DUP5 MLOAD DUP2 EQ ISZERO DUP1 PUSH2 0x1221 JUMPI POP DUP4 MLOAD DUP2 EQ ISZERO JUMPDEST DUP1 PUSH2 0x122D JUMPI POP DUP3 MLOAD DUP2 EQ ISZERO JUMPDEST DUP1 PUSH2 0x1239 JUMPI POP DUP2 MLOAD DUP2 EQ ISZERO JUMPDEST ISZERO PUSH2 0x1257 JUMPI PUSH1 0x40 MLOAD PUSH4 0x93A83119 PUSH1 0xE0 SHL DUP2 MSTORE PUSH1 0x4 ADD PUSH1 0x40 MLOAD DUP1 SWAP2 SUB SWAP1 REVERT JUMPDEST PUSH0 JUMPDEST DUP2 DUP2 LT ISZERO PUSH2 0x12F3 JUMPI PUSH2 0x12EB DUP8 DUP3 DUP2 MLOAD DUP2 LT PUSH2 0x1276 JUMPI PUSH2 0x1276 PUSH2 0x367F JUMP JUMPDEST PUSH1 0x20 MUL PUSH1 0x20 ADD ADD MLOAD DUP8 DUP4 DUP2 MLOAD DUP2 LT PUSH2 0x1290 JUMPI PUSH2 0x1290 PUSH2 0x367F JUMP JUMPDEST PUSH1 0x20 MUL PUSH1 0x20 ADD ADD MLOAD DUP8 DUP5 DUP2 MLOAD DUP2 LT PUSH2 0x12AA JUMPI PUSH2 0x12AA PUSH2 0x367F JUMP JUMPDEST PUSH1 0x20 MUL PUSH1 0x20 ADD ADD MLOAD DUP8 DUP6 DUP2 MLOAD DUP2 LT PUSH2 0x12C4 JUMPI PUSH2 0x12C4 PUSH2 0x367F JUMP JUMPDEST PUSH1 0x20 MUL PUSH1 0x20 ADD ADD MLOAD DUP8 DUP7 DUP2 MLOAD DUP2 LT PUSH2 0x12DE JUMPI PUSH2 0x12DE PUSH2 0x367F JUMP JUMPDEST PUSH1 0x20 MUL PUSH1 0x20 ADD ADD MLOAD PUSH2 0xF06 JUMP JUMPDEST PUSH1 0x1 ADD PUSH2 0x1259 JUMP JUMPDEST POP POP POP POP POP POP POP JUMP JUMPDEST PUSH2 0x1304 PUSH2 0x1A70 JUMP JUMPDEST CALLVALUE ISZERO PUSH2 0x1323 JUMPI PUSH1 0x40 MLOAD PUSH4 0xF36BA737 PUSH1 0xE0 SHL DUP2 MSTORE PUSH1 0x4 ADD PUSH1 0x40 MLOAD DUP1 SWAP2 SUB SWAP1 REVERT JUMPDEST PUSH2 0xE9B DUP3 DUP3 PUSH2 0x2343 JUMP JUMPDEST PUSH2 0x1335 PUSH2 0x1A70 JUMP JUMPDEST PUSH2 0xEAF PUSH2 0x238D JUMP JUMPDEST PUSH0 PUSH2 0x1347 DUP4 PUSH2 0xDB7 JUMP JUMPDEST SWAP1 POP PUSH1 0x1 PUSH1 0x1 PUSH1 0xA0 SHL SUB DUP2 AND CALLER EQ PUSH2 0x138A JUMPI PUSH1 0x40 MLOAD PUSH4 0x2D938F51 PUSH1 0xE1 SHL DUP2 MSTORE PUSH1 0x1 PUSH1 0x1 PUSH1 0xA0 SHL SUB DUP3 AND PUSH1 0x4 DUP3 ADD MSTORE PUSH1 0x24 DUP2 ADD DUP5 SWAP1 MSTORE CALLER PUSH1 0x44 DUP3 ADD MSTORE PUSH1 0x64 ADD PUSH2 0x2CC JUMP JUMPDEST PUSH1 0x1 PUSH1 0x1 PUSH1 0xA0 SHL SUB DUP5 AND PUSH2 0x13B1 JUMPI PUSH1 0x40 MLOAD PUSH4 0x9577B8B3 PUSH1 0xE0 SHL DUP2 MSTORE PUSH1 0x4 ADD PUSH1 0x40 MLOAD DUP1 SWAP2 SUB SWAP1 REVERT JUMPDEST DUP4 PUSH1 0x1 PUSH1 0x1 PUSH1 0xA0 SHL SUB AND DUP2 PUSH1 0x1 PUSH1 0x1 PUSH1 0xA0 SHL SUB AND SUB PUSH2 0x13E3 JUMPI PUSH1 0x40 MLOAD PUSH4 0x44FED6B1 PUSH1 0xE1 SHL DUP2 MSTORE PUSH1 0x4 ADD PUSH1 0x40 MLOAD DUP1 SWAP2 SUB SWAP1 REVERT JUMPDEST PUSH0 DUP4 DUP2 MSTORE PUSH1 0x5 PUSH1 0x20 MSTORE PUSH1 0x40 DUP2 KECCAK256 PUSH2 0x13FA SWAP1 DUP7 PUSH2 0x23CA JUMP JUMPDEST SWAP1 POP DUP1 PUSH2 0x142C JUMPI PUSH1 0x40 MLOAD PUSH4 0x14EC4D6D PUSH1 0xE3 SHL DUP2 MSTORE PUSH1 0x1 PUSH1 0x1 PUSH1 0xA0 SHL SUB DUP7 AND PUSH1 0x4 DUP3 ADD MSTORE PUSH1 0x24 DUP2 ADD DUP6 SWAP1 MSTORE PUSH1 0x44 ADD PUSH2 0x2CC JUMP JUMPDEST DUP4 DUP3 PUSH1 0x1 PUSH1 0x1 PUSH1 0xA0 SHL SUB AND DUP7 PUSH1 0x1 PUSH1 0x1 PUSH1 0xA0 SHL SUB AND PUSH32 0x1B1B58AA2EC0CEC2228B2D37124556D41F5A1F7B12F089171F896CC236671215 DUP7 PUSH1 0x40 MLOAD PUSH2 0x1470 SWAP2 SWAP1 PUSH2 0x2D08 JUMP JUMPDEST PUSH1 0x40 MLOAD DUP1 SWAP2 SUB SWAP1 LOG4 PUSH0 CALLER DUP6 PUSH1 0x1 DUP7 PUSH1 0x40 MLOAD PUSH1 0x20 ADD PUSH2 0x1491 SWAP5 SWAP4 SWAP3 SWAP2 SWAP1 PUSH2 0x3728 JUMP JUMPDEST PUSH1 0x40 MLOAD PUSH1 0x20 DUP2 DUP4 SUB SUB DUP2 MSTORE SWAP1 PUSH1 0x40 MSTORE SWAP1 POP PUSH2 0x14AC DUP7 DUP3 PUSH2 0x23DE JUMP JUMPDEST POP POP POP POP POP POP JUMP JUMPDEST PUSH2 0x14BC PUSH2 0x1A70 JUMP JUMPDEST CALLVALUE ISZERO PUSH2 0x14DB JUMPI PUSH1 0x40 MLOAD PUSH4 0xF36BA737 PUSH1 0xE0 SHL DUP2 MSTORE PUSH1 0x4 ADD PUSH1 0x40 MLOAD DUP1 SWAP2 SUB SWAP1 REVERT JUMPDEST DUP1 MLOAD DUP3 MLOAD EQ PUSH2 0x14FD JUMPI PUSH1 0x40 MLOAD PUSH4 0x3BCC8979 PUSH1 0xE0 SHL DUP2 MSTORE PUSH1 0x4 ADD PUSH1 0x40 MLOAD DUP1 SWAP2 SUB SWAP1 REVERT JUMPDEST DUP2 MLOAD PUSH0 SUB PUSH2 0x151E JUMPI PUSH1 0x40 MLOAD PUSH4 0x97DA5F95 PUSH1 0xE0 SHL DUP2 MSTORE PUSH1 0x4 ADD PUSH1 0x40 MLOAD DUP1 SWAP2 SUB SWAP1 REVERT JUMPDEST PUSH0 JUMPDEST DUP3 MLOAD DUP2 LT ISZERO PUSH2 0xFE5 JUMPI PUSH2 0x1565 DUP4 DUP3 DUP2 MLOAD DUP2 LT PUSH2 0x153E JUMPI PUSH2 0x153E PUSH2 0x367F JUMP JUMPDEST PUSH1 0x20 MUL PUSH1 0x20 ADD ADD MLOAD DUP4 DUP4 DUP2 MLOAD DUP2 LT PUSH2 0x1558 JUMPI PUSH2 0x1558 PUSH2 0x367F JUMP JUMPDEST PUSH1 0x20 MUL PUSH1 0x20 ADD ADD MLOAD PUSH2 0x2343 JUMP JUMPDEST PUSH1 0x1 ADD PUSH2 0x1520 JUMP JUMPDEST PUSH0 PUSH2 0x1576 PUSH2 0x1BAF JUMP JUMPDEST PUSH1 0x2 SLOAD PUSH2 0x1E61 GT PUSH2 0x15C0 JUMPI PUSH1 0x40 MLOAD PUSH3 0x461BCD PUSH1 0xE5 SHL DUP2 MSTORE PUSH1 0x20 PUSH1 0x4 DUP3 ADD MSTORE PUSH1 0x14 PUSH1 0x24 DUP3 ADD MSTORE PUSH20 0x26B0BC1039BAB838363C9032BC31B2B2B232B217 PUSH1 0x61 SHL PUSH1 0x44 DUP3 ADD MSTORE PUSH1 0x64 ADD PUSH2 0x2CC JUMP JUMPDEST PUSH0 DUP4 DUP2 MSTORE PUSH1 0xF PUSH1 0x20 MSTORE PUSH1 0x40 SWAP1 KECCAK256 SLOAD PUSH1 0x4 PUSH1 0xFF SWAP1 SWAP2 AND LT PUSH2 0x1622 JUMPI PUSH1 0x40 MLOAD PUSH3 0x461BCD PUSH1 0xE5 SHL DUP2 MSTORE PUSH1 0x20 PUSH1 0x4 DUP3 ADD MSTORE PUSH1 0x1D PUSH1 0x24 DUP3 ADD MSTORE PUSH32 0x5377697065206C696D697420686173206265656E206578636565646564000000 PUSH1 0x44 DUP3 ADD MSTORE PUSH1 0x64 ADD PUSH2 0x2CC JUMP JUMPDEST PUSH1 0xA SLOAD ISZERO PUSH2 0x1658 JUMPI PUSH1 0xA SLOAD CALLVALUE LT ISZERO PUSH2 0x164F JUMPI PUSH1 0x40 MLOAD PUSH4 0x92665351 PUSH1 0xE0 SHL DUP2 MSTORE CALLVALUE PUSH1 0x4 DUP3 ADD MSTORE PUSH1 0x24 ADD PUSH2 0x2CC JUMP JUMPDEST PUSH2 0x1658 CALLVALUE PUSH2 0x1BD3 JUMP JUMPDEST PUSH2 0x1666 PUSH1 0x9 DUP1 SLOAD PUSH1 0x1 ADD SWAP1 SSTORE JUMP JUMPDEST PUSH2 0x1694 DUP4 PUSH32 0x9AFB95CACC9F95858EC44AA8C3B685511002E30AE54415823F406128B85B238E PUSH2 0xC84 DUP6 PUSH2 0x17C3 JUMP JUMPDEST PUSH0 DUP4 DUP2 MSTORE PUSH1 0xF PUSH1 0x20 MSTORE PUSH1 0x40 DUP2 KECCAK256 DUP1 SLOAD PUSH1 0x1 SWAP3 SWAP1 PUSH2 0x16B5 SWAP1 DUP5 SWAP1 PUSH1 0xFF AND PUSH2 0x3666 JUMP JUMPDEST SWAP3 POP PUSH2 0x100 EXP DUP2 SLOAD DUP2 PUSH1 0xFF MUL NOT AND SWAP1 DUP4 PUSH1 0xFF AND MUL OR SWAP1 SSTORE POP PUSH1 0x1 SWAP1 POP SWAP3 SWAP2 POP POP JUMP JUMPDEST PUSH1 0x1 PUSH1 0x1 PUSH1 0xA0 SHL SUB DUP2 AND PUSH0 SWAP1 DUP2 MSTORE PUSH1 0x4 PUSH1 0x20 MSTORE PUSH1 0x40 SWAP1 KECCAK256 PUSH1 0x60 SWAP1 PUSH2 0xA29 SWAP1 PUSH2 0x2048 JUMP JUMPDEST PUSH2 0x1702 PUSH2 0x1A70 JUMP JUMPDEST DUP2 MLOAD DUP4 MLOAD EQ ISZERO DUP1 PUSH2 0x1715 JUMPI POP DUP1 MLOAD DUP3 MLOAD EQ ISZERO JUMPDEST ISZERO PUSH2 0x1733 JUMPI PUSH1 0x40 MLOAD PUSH4 0x17D38EFF PUSH1 0xE1 SHL DUP2 MSTORE PUSH1 0x4 ADD PUSH1 0x40 MLOAD DUP1 SWAP2 SUB SWAP1 REVERT JUMPDEST DUP3 MLOAD PUSH0 SUB PUSH2 0x1754 JUMPI PUSH1 0x40 MLOAD PUSH4 0x80C98305 PUSH1 0xE0 SHL DUP2 MSTORE PUSH1 0x4 ADD PUSH1 0x40 MLOAD DUP1 SWAP2 SUB SWAP1 REVERT JUMPDEST PUSH0 JUMPDEST DUP4 MLOAD DUP2 LT ISZERO PUSH2 0x17BD JUMPI PUSH2 0x17B5 DUP5 DUP3 DUP2 MLOAD DUP2 LT PUSH2 0x1774 JUMPI PUSH2 0x1774 PUSH2 0x367F JUMP JUMPDEST PUSH1 0x20 MUL PUSH1 0x20 ADD ADD MLOAD DUP5 DUP4 DUP2 MLOAD DUP2 LT PUSH2 0x178E JUMPI PUSH2 0x178E PUSH2 0x367F JUMP JUMPDEST PUSH1 0x20 MUL PUSH1 0x20 ADD ADD MLOAD DUP5 DUP5 DUP2 MLOAD DUP2 LT PUSH2 0x17A8 JUMPI PUSH2 0x17A8 PUSH2 0x367F JUMP JUMPDEST PUSH1 0x20 MUL PUSH1 0x20 ADD ADD MLOAD PUSH2 0x1F23 JUMP JUMPDEST PUSH1 0x1 ADD PUSH2 0x1756 JUMP JUMPDEST POP POP POP POP JUMP JUMPDEST PUSH1 0x60 PUSH0 DUP3 DUP1 MLOAD SWAP1 PUSH1 0x20 ADD KECCAK256 PUSH2 0x17D7 DUP5 PUSH2 0x2409 JUMP JUMPDEST PUSH1 0x40 MLOAD PUSH1 0x20 ADD PUSH2 0x17E7 SWAP2 SWAP1 PUSH2 0x3760 JUMP JUMPDEST PUSH1 0x40 DUP1 MLOAD PUSH1 0x1F NOT DUP2 DUP5 SUB ADD DUP2 MSTORE SWAP1 DUP3 SWAP1 MSTORE PUSH2 0x1805 SWAP3 SWAP2 PUSH1 0x20 ADD PUSH2 0x3791 JUMP JUMPDEST PUSH1 0x40 DUP1 MLOAD PUSH1 0x1F NOT DUP2 DUP5 SUB ADD DUP2 MSTORE SWAP2 SWAP1 MSTORE SWAP4 SWAP3 POP POP POP JUMP JUMPDEST PUSH2 0x1824 PUSH2 0x1A70 JUMP JUMPDEST PUSH2 0xFE5 DUP4 DUP4 DUP4 PUSH2 0x1F23 JUMP JUMPDEST PUSH0 PUSH2 0x1839 DUP5 PUSH2 0xDB7 JUMP JUMPDEST SWAP1 POP CALLER PUSH1 0x1 PUSH1 0x1 PUSH1 0xA0 SHL SUB DUP3 AND EQ PUSH2 0x188C JUMPI PUSH1 0x1 PUSH1 0x1 PUSH1 0xA0 SHL SUB DUP6 AND CALLER EQ PUSH2 0x188C JUMPI PUSH1 0x40 MLOAD PUSH4 0x760B5ACD PUSH1 0xE0 SHL DUP2 MSTORE CALLER PUSH1 0x4 DUP3 ADD MSTORE PUSH1 0x1 PUSH1 0x1 PUSH1 0xA0 SHL SUB DUP3 AND PUSH1 0x24 DUP3 ADD MSTORE PUSH1 0x44 DUP2 ADD DUP6 SWAP1 MSTORE PUSH1 0x64 ADD PUSH2 0x2CC JUMP JUMPDEST PUSH1 0x1 PUSH1 0x1 PUSH1 0xA0 SHL SUB DUP6 AND PUSH2 0x18B3 JUMPI PUSH1 0x40 MLOAD PUSH4 0x9577B8B3 PUSH1 0xE0 SHL DUP2 MSTORE PUSH1 0x4 ADD PUSH1 0x40 MLOAD DUP1 SWAP2 SUB SWAP1 REVERT JUMPDEST DUP5 PUSH1 0x1 PUSH1 0x1 PUSH1 0xA0 SHL SUB AND DUP2 PUSH1 0x1 PUSH1 0x1 PUSH1 0xA0 SHL SUB AND SUB PUSH2 0x18E5 JUMPI PUSH1 0x40 MLOAD PUSH4 0x44FED6B1 PUSH1 0xE1 SHL DUP2 MSTORE PUSH1 0x4 ADD PUSH1 0x40 MLOAD DUP1 SWAP2 SUB SWAP1 REVERT JUMPDEST PUSH2 0x18F2 DUP6 DUP3 DUP7 DUP7 DUP7 PUSH2 0x2563 JUMP JUMPDEST DUP3 ISZERO PUSH2 0xF43 JUMPI PUSH0 DUP2 DUP6 PUSH0 DUP6 PUSH1 0x40 MLOAD PUSH1 0x20 ADD PUSH2 0x1491 SWAP5 SWAP4 SWAP3 SWAP2 SWAP1 PUSH2 0x3728 JUMP JUMPDEST PUSH1 0x60 DUP2 MLOAD PUSH1 0x1 PUSH1 0x1 PUSH1 0x40 SHL SUB DUP2 GT ISZERO PUSH2 0x192B JUMPI PUSH2 0x192B PUSH2 0x2D1A JUMP JUMPDEST PUSH1 0x40 MLOAD SWAP1 DUP1 DUP3 MSTORE DUP1 PUSH1 0x20 MUL PUSH1 0x20 ADD DUP3 ADD PUSH1 0x40 MSTORE DUP1 ISZERO PUSH2 0x195E JUMPI DUP2 PUSH1 0x20 ADD JUMPDEST PUSH1 0x60 DUP2 MSTORE PUSH1 0x20 ADD SWAP1 PUSH1 0x1 SWAP1 SUB SWAP1 DUP2 PUSH2 0x1949 JUMPI SWAP1 POP JUMPDEST POP SWAP1 POP PUSH0 JUMPDEST DUP3 MLOAD DUP2 LT ISZERO PUSH2 0x19B3 JUMPI PUSH2 0x198E DUP4 DUP3 DUP2 MLOAD DUP2 LT PUSH2 0x1981 JUMPI PUSH2 0x1981 PUSH2 0x367F JUMP JUMPDEST PUSH1 0x20 MUL PUSH1 0x20 ADD ADD MLOAD PUSH2 0x2230 JUMP JUMPDEST DUP3 DUP3 DUP2 MLOAD DUP2 LT PUSH2 0x19A0 JUMPI PUSH2 0x19A0 PUSH2 0x367F JUMP JUMPDEST PUSH1 0x20 SWAP1 DUP2 MUL SWAP2 SWAP1 SWAP2 ADD ADD MSTORE PUSH1 0x1 ADD PUSH2 0x1963 JUMP JUMPDEST POP SWAP2 SWAP1 POP JUMP JUMPDEST PUSH2 0x19C1 PUSH2 0x1A70 JUMP JUMPDEST PUSH1 0x1 PUSH1 0x1 PUSH1 0xA0 SHL SUB DUP2 AND PUSH2 0x19E8 JUMPI PUSH1 0x40 MLOAD PUSH4 0x6B620DB PUSH1 0xE2 SHL DUP2 MSTORE PUSH1 0x4 ADD PUSH1 0x40 MLOAD DUP1 SWAP2 SUB SWAP1 REVERT JUMPDEST PUSH2 0x19F1 DUP2 PUSH2 0x22D8 JUMP JUMPDEST POP JUMP JUMPDEST PUSH0 DUP1 DUP1 PUSH2 0x1A18 PUSH10 0x6773C5A04A6D4300884B PUSH1 0xB1 SHL PUSH1 0x1 PUSH1 0x1 PUSH1 0xE0 SHL SUB NOT DUP7 AND PUSH2 0x2602 JUMP JUMPDEST SWAP1 POP PUSH0 PUSH2 0x1A24 DUP3 PUSH2 0x2230 JUMP JUMPDEST SWAP1 POP DUP1 MLOAD PUSH1 0x14 EQ ISZERO DUP1 ISZERO PUSH2 0x1A38 JUMPI POP DUP1 MLOAD ISZERO ISZERO JUMPDEST ISZERO PUSH2 0x1A58 JUMPI DUP1 PUSH1 0x40 MLOAD PUSH4 0x42BFE79F PUSH1 0xE0 SHL DUP2 MSTORE PUSH1 0x4 ADD PUSH2 0x2CC SWAP2 SWAP1 PUSH2 0x2D08 JUMP JUMPDEST PUSH2 0x1A61 DUP2 PUSH2 0x37B2 JUMP JUMPDEST PUSH1 0x60 SHR SWAP6 PUSH1 0x1 SWAP6 POP SWAP4 POP POP POP POP JUMP JUMPDEST CALLER PUSH2 0x1A82 PUSH0 SLOAD PUSH1 0x1 PUSH1 0x1 PUSH1 0xA0 SHL SUB AND SWAP1 JUMP JUMPDEST PUSH1 0x1 PUSH1 0x1 PUSH1 0xA0 SHL SUB AND EQ PUSH2 0xEAF JUMPI PUSH1 0x40 MLOAD PUSH4 0xBF1169C5 PUSH1 0xE0 SHL DUP2 MSTORE CALLER PUSH1 0x4 DUP3 ADD MSTORE PUSH1 0x24 ADD PUSH2 0x2CC JUMP JUMPDEST PUSH0 PUSH1 0x1 PUSH1 0x1 PUSH1 0xE0 SHL SUB NOT DUP3 AND PUSH4 0xA918FA6B PUSH1 0xE0 SHL EQ DUP1 PUSH2 0xA29 JUMPI POP PUSH2 0xA29 DUP3 PUSH2 0x2655 JUMP JUMPDEST PUSH0 DUP1 PUSH2 0x1AE1 PUSH4 0x1FFC9A7 PUSH1 0xE0 SHL PUSH2 0x19F4 JUMP JUMPDEST POP SWAP1 POP PUSH1 0x1 PUSH1 0x1 PUSH1 0xA0 SHL SUB DUP2 AND PUSH2 0x1AFA JUMPI POP PUSH0 SWAP3 SWAP2 POP POP JUMP JUMPDEST PUSH2 0xAD0 DUP2 DUP5 PUSH2 0x2689 JUMP JUMPDEST PUSH0 DUP3 DUP2 MSTORE PUSH1 0x6 PUSH1 0x20 SWAP1 DUP2 MSTORE PUSH1 0x40 DUP1 DUP4 KECCAK256 DUP5 DUP5 MSTORE SWAP1 SWAP2 MSTORE SWAP1 KECCAK256 DUP1 SLOAD PUSH1 0x60 SWAP2 SWAP1 PUSH2 0x1B2B SWAP1 PUSH2 0x3800 JUMP JUMPDEST DUP1 PUSH1 0x1F ADD PUSH1 0x20 DUP1 SWAP2 DIV MUL PUSH1 0x20 ADD PUSH1 0x40 MLOAD SWAP1 DUP2 ADD PUSH1 0x40 MSTORE DUP1 SWAP3 SWAP2 SWAP1 DUP2 DUP2 MSTORE PUSH1 0x20 ADD DUP3 DUP1 SLOAD PUSH2 0x1B57 SWAP1 PUSH2 0x3800 JUMP JUMPDEST DUP1 ISZERO PUSH2 0x1BA2 JUMPI DUP1 PUSH1 0x1F LT PUSH2 0x1B79 JUMPI PUSH2 0x100 DUP1 DUP4 SLOAD DIV MUL DUP4 MSTORE SWAP2 PUSH1 0x20 ADD SWAP2 PUSH2 0x1BA2 JUMP JUMPDEST DUP3 ADD SWAP2 SWAP1 PUSH0 MSTORE PUSH1 0x20 PUSH0 KECCAK256 SWAP1 JUMPDEST DUP2 SLOAD DUP2 MSTORE SWAP1 PUSH1 0x1 ADD SWAP1 PUSH1 0x20 ADD DUP1 DUP4 GT PUSH2 0x1B85 JUMPI DUP3 SWAP1 SUB PUSH1 0x1F AND DUP3 ADD SWAP2 JUMPDEST POP POP POP POP POP SWAP1 POP SWAP3 SWAP2 POP POP JUMP JUMPDEST PUSH1 0x7 SLOAD PUSH1 0xFF AND ISZERO PUSH2 0xEAF JUMPI PUSH1 0x40 MLOAD PUSH4 0xD93C0665 PUSH1 0xE0 SHL DUP2 MSTORE PUSH1 0x4 ADD PUSH1 0x40 MLOAD DUP1 SWAP2 SUB SWAP1 REVERT JUMPDEST PUSH0 PUSH1 0xD PUSH1 0x40 MLOAD PUSH2 0x1BED SWAP1 PUSH4 0x616C7473 PUSH1 0xE0 SHL DUP2 MSTORE PUSH1 0x4 ADD SWAP1 JUMP JUMPDEST SWAP1 DUP2 MSTORE PUSH1 0x40 MLOAD SWAP1 DUP2 SWAP1 SUB PUSH1 0x20 ADD SWAP1 KECCAK256 SLOAD PUSH1 0x1 PUSH1 0x1 PUSH1 0xA0 SHL SUB AND PUSH2 0x1C11 DUP4 PUSH1 0x19 PUSH2 0x270F JUMP JUMPDEST PUSH1 0x40 MLOAD PUSH0 DUP2 DUP2 DUP2 DUP6 DUP8 GAS CALL SWAP3 POP POP POP RETURNDATASIZE DUP1 PUSH0 DUP2 EQ PUSH2 0x1C4A JUMPI PUSH1 0x40 MLOAD SWAP2 POP PUSH1 0x1F NOT PUSH1 0x3F RETURNDATASIZE ADD AND DUP3 ADD PUSH1 0x40 MSTORE RETURNDATASIZE DUP3 MSTORE RETURNDATASIZE PUSH0 PUSH1 0x20 DUP5 ADD RETURNDATACOPY PUSH2 0x1C4F JUMP JUMPDEST PUSH1 0x60 SWAP2 POP JUMPDEST POP POP SWAP1 POP DUP1 PUSH1 0xC SWAP1 PUSH2 0x1C74 JUMPI PUSH1 0x40 MLOAD PUSH3 0x461BCD PUSH1 0xE5 SHL DUP2 MSTORE PUSH1 0x4 ADD PUSH2 0x2CC SWAP2 SWAP1 PUSH2 0x3832 JUMP JUMPDEST POP PUSH0 PUSH1 0xD PUSH1 0x40 MLOAD PUSH2 0x1C8F SWAP1 PUSH4 0x30B6B4B9 PUSH1 0xE1 SHL DUP2 MSTORE PUSH1 0x4 ADD SWAP1 JUMP JUMPDEST SWAP1 DUP2 MSTORE PUSH1 0x40 MLOAD SWAP1 DUP2 SWAP1 SUB PUSH1 0x20 ADD SWAP1 KECCAK256 SLOAD PUSH1 0x1 PUSH1 0x1 PUSH1 0xA0 SHL SUB AND PUSH2 0x1CB3 DUP5 PUSH1 0x19 PUSH2 0x270F JUMP JUMPDEST PUSH1 0x40 MLOAD PUSH0 DUP2 DUP2 DUP2 DUP6 DUP8 GAS CALL SWAP3 POP POP POP RETURNDATASIZE DUP1 PUSH0 DUP2 EQ PUSH2 0x1CEC JUMPI PUSH1 0x40 MLOAD SWAP2 POP PUSH1 0x1F NOT PUSH1 0x3F RETURNDATASIZE ADD AND DUP3 ADD PUSH1 0x40 MSTORE RETURNDATASIZE DUP3 MSTORE RETURNDATASIZE PUSH0 PUSH1 0x20 DUP5 ADD RETURNDATACOPY PUSH2 0x1CF1 JUMP JUMPDEST PUSH1 0x60 SWAP2 POP JUMPDEST POP POP SWAP1 POP DUP1 PUSH1 0xC SWAP1 PUSH2 0x1D16 JUMPI PUSH1 0x40 MLOAD PUSH3 0x461BCD PUSH1 0xE5 SHL DUP2 MSTORE PUSH1 0x4 ADD PUSH2 0x2CC SWAP2 SWAP1 PUSH2 0x3832 JUMP JUMPDEST POP PUSH0 PUSH1 0xD PUSH1 0x40 MLOAD PUSH2 0x1D33 SWAP1 PUSH6 0x647261636F73 PUSH1 0xD0 SHL DUP2 MSTORE PUSH1 0x6 ADD SWAP1 JUMP JUMPDEST SWAP1 DUP2 MSTORE PUSH1 0x40 MLOAD SWAP1 DUP2 SWAP1 SUB PUSH1 0x20 ADD SWAP1 KECCAK256 SLOAD PUSH1 0x1 PUSH1 0x1 PUSH1 0xA0 SHL SUB AND PUSH2 0x1D57 DUP6 PUSH1 0x32 PUSH2 0x270F JUMP JUMPDEST PUSH1 0x40 MLOAD PUSH0 DUP2 DUP2 DUP2 DUP6 DUP8 GAS CALL SWAP3 POP POP POP RETURNDATASIZE DUP1 PUSH0 DUP2 EQ PUSH2 0x1D90 JUMPI PUSH1 0x40 MLOAD SWAP2 POP PUSH1 0x1F NOT PUSH1 0x3F RETURNDATASIZE ADD AND DUP3 ADD PUSH1 0x40 MSTORE RETURNDATASIZE DUP3 MSTORE RETURNDATASIZE PUSH0 PUSH1 0x20 DUP5 ADD RETURNDATACOPY PUSH2 0x1D95 JUMP JUMPDEST PUSH1 0x60 SWAP2 POP JUMPDEST POP POP SWAP1 POP DUP1 PUSH1 0xC SWAP1 PUSH2 0xF43 JUMPI PUSH1 0x40 MLOAD PUSH3 0x461BCD PUSH1 0xE5 SHL DUP2 MSTORE PUSH1 0x4 ADD PUSH2 0x2CC SWAP2 SWAP1 PUSH2 0x3832 JUMP JUMPDEST PUSH1 0x1 PUSH1 0x1 PUSH1 0xA0 SHL SUB DUP5 AND PUSH2 0x1DE1 JUMPI PUSH1 0x40 MLOAD PUSH4 0x24ECEF4D PUSH1 0xE0 SHL DUP2 MSTORE PUSH1 0x4 ADD PUSH1 0x40 MLOAD DUP1 SWAP2 SUB SWAP1 REVERT JUMPDEST PUSH0 DUP4 DUP2 MSTORE PUSH1 0x3 PUSH1 0x20 MSTORE PUSH1 0x40 SWAP1 KECCAK256 SLOAD PUSH1 0x1 PUSH1 0x1 PUSH1 0xA0 SHL SUB AND ISZERO PUSH2 0x1E19 JUMPI PUSH1 0x40 MLOAD PUSH4 0x34C7B511 PUSH1 0xE0 SHL DUP2 MSTORE PUSH1 0x4 DUP2 ADD DUP5 SWAP1 MSTORE PUSH1 0x24 ADD PUSH2 0x2CC JUMP JUMPDEST PUSH0 DUP4 DUP2 MSTORE PUSH1 0x3 PUSH1 0x20 MSTORE PUSH1 0x40 SWAP1 KECCAK256 SLOAD PUSH1 0x1 PUSH1 0x1 PUSH1 0xA0 SHL SUB AND ISZERO PUSH2 0x1E51 JUMPI PUSH1 0x40 MLOAD PUSH4 0x34C7B511 PUSH1 0xE0 SHL DUP2 MSTORE PUSH1 0x4 DUP2 ADD DUP5 SWAP1 MSTORE PUSH1 0x24 ADD PUSH2 0x2CC JUMP JUMPDEST PUSH1 0x2 PUSH0 DUP2 SLOAD PUSH2 0x1E5F SWAP1 PUSH2 0x38B8 JUMP JUMPDEST SWAP1 SWAP2 SSTORE POP PUSH1 0x1 PUSH1 0x1 PUSH1 0xA0 SHL SUB DUP5 AND PUSH0 SWAP1 DUP2 MSTORE PUSH1 0x4 PUSH1 0x20 MSTORE PUSH1 0x40 SWAP1 KECCAK256 PUSH2 0x1E84 SWAP1 DUP5 PUSH2 0x273C JUMP JUMPDEST POP PUSH0 DUP4 DUP2 MSTORE PUSH1 0x3 PUSH1 0x20 MSTORE PUSH1 0x40 DUP1 DUP3 KECCAK256 DUP1 SLOAD PUSH1 0x1 PUSH1 0x1 PUSH1 0xA0 SHL SUB NOT AND PUSH1 0x1 PUSH1 0x1 PUSH1 0xA0 SHL SUB DUP9 AND SWAP1 DUP2 OR SWAP1 SWAP2 SSTORE SWAP1 MLOAD DUP6 SWAP3 SWAP1 PUSH32 0xB333C813A7426A7A11E2B190CAD52C44119421594B47F6F32ACE6D8C7207B2BF SWAP1 PUSH2 0x1EE5 SWAP1 CALLER SWAP1 DUP9 SWAP1 DUP9 SWAP1 PUSH2 0x38D0 JUMP JUMPDEST PUSH1 0x40 MLOAD DUP1 SWAP2 SUB SWAP1 LOG4 PUSH0 CALLER PUSH0 DUP7 DUP7 DUP6 PUSH1 0x40 MLOAD PUSH1 0x20 ADD PUSH2 0x1F07 SWAP6 SWAP5 SWAP4 SWAP3 SWAP2 SWAP1 PUSH2 0x3904 JUMP JUMPDEST PUSH1 0x40 MLOAD PUSH1 0x20 DUP2 DUP4 SUB SUB DUP2 MSTORE SWAP1 PUSH1 0x40 MSTORE SWAP1 POP PUSH2 0xF43 DUP6 DUP5 DUP4 PUSH2 0x2747 JUMP JUMPDEST PUSH0 DUP4 DUP2 MSTORE PUSH1 0x6 PUSH1 0x20 SWAP1 DUP2 MSTORE PUSH1 0x40 DUP1 DUP4 KECCAK256 DUP6 DUP5 MSTORE SWAP1 SWAP2 MSTORE SWAP1 KECCAK256 PUSH2 0x1F45 DUP3 DUP3 PUSH2 0x3982 JUMP JUMPDEST POP DUP2 DUP4 PUSH32 0xA6E4251F855F750545FE414F120DB91C76B88DEF14D120969E5BB2D3F05DEBBB DUP4 PUSH1 0x40 MLOAD PUSH2 0x1F77 SWAP2 SWAP1 PUSH2 0x2D08 JUMP JUMPDEST PUSH1 0x40 MLOAD DUP1 SWAP2 SUB SWAP1 LOG3 POP POP POP JUMP JUMPDEST PUSH0 PUSH2 0x1F8E DUP3 PUSH2 0xDB7 JUMP JUMPDEST PUSH1 0x1 PUSH1 0x1 PUSH1 0xA0 SHL SUB AND DUP4 PUSH1 0x1 PUSH1 0x1 PUSH1 0xA0 SHL SUB AND EQ DUP1 PUSH2 0xAD0 JUMPI POP PUSH0 DUP3 DUP2 MSTORE PUSH1 0x5 PUSH1 0x20 MSTORE PUSH1 0x40 SWAP1 KECCAK256 PUSH2 0xAD0 SWAP1 DUP5 PUSH2 0x284A JUMP JUMPDEST PUSH2 0x1FC7 PUSH2 0x286B JUMP JUMPDEST PUSH1 0x7 DUP1 SLOAD PUSH1 0xFF NOT AND SWAP1 SSTORE PUSH32 0x5DB9EE0A495BF2E6FF9C91A7834C1BA4FDD244A5E8AA4E537BD38AEAE4B073AA CALLER JUMPDEST PUSH1 0x40 MLOAD PUSH1 0x1 PUSH1 0x1 PUSH1 0xA0 SHL SUB SWAP1 SWAP2 AND DUP2 MSTORE PUSH1 0x20 ADD PUSH1 0x40 MLOAD DUP1 SWAP2 SUB SWAP1 LOG1 JUMP JUMPDEST PUSH0 DUP2 DUP2 MSTORE PUSH1 0x3 PUSH1 0x20 MSTORE PUSH1 0x40 SWAP1 KECCAK256 SLOAD PUSH1 0x1 PUSH1 0x1 PUSH1 0xA0 SHL SUB AND PUSH2 0x19F1 JUMPI PUSH1 0x40 MLOAD PUSH4 0x5747CD1B PUSH1 0xE1 SHL DUP2 MSTORE PUSH1 0x4 DUP2 ADD DUP3 SWAP1 MSTORE PUSH1 0x24 ADD PUSH2 0x2CC JUMP JUMPDEST PUSH1 0x60 PUSH0 PUSH2 0xAD0 DUP4 PUSH2 0x288E JUMP JUMPDEST PUSH0 PUSH2 0x205E DUP5 PUSH2 0xDB7 JUMP JUMPDEST SWAP1 POP DUP6 PUSH1 0x1 PUSH1 0x1 PUSH1 0xA0 SHL SUB AND DUP2 PUSH1 0x1 PUSH1 0x1 PUSH1 0xA0 SHL SUB AND EQ PUSH2 0x20AC JUMPI PUSH1 0x40 MLOAD PUSH4 0x2D938F51 PUSH1 0xE1 SHL DUP2 MSTORE PUSH1 0x1 PUSH1 0x1 PUSH1 0xA0 SHL SUB DUP1 DUP4 AND PUSH1 0x4 DUP4 ADD MSTORE PUSH1 0x24 DUP3 ADD DUP7 SWAP1 MSTORE DUP8 AND PUSH1 0x44 DUP3 ADD MSTORE PUSH1 0x64 ADD PUSH2 0x2CC JUMP JUMPDEST PUSH1 0x1 PUSH1 0x1 PUSH1 0xA0 SHL SUB DUP6 AND PUSH2 0x20D3 JUMPI PUSH1 0x40 MLOAD PUSH4 0x24ECEF4D PUSH1 0xE0 SHL DUP2 MSTORE PUSH1 0x4 ADD PUSH1 0x40 MLOAD DUP1 SWAP2 SUB SWAP1 REVERT JUMPDEST PUSH0 PUSH2 0x20DD DUP6 PUSH2 0xDB7 JUMP JUMPDEST SWAP1 POP DUP1 PUSH1 0x1 PUSH1 0x1 PUSH1 0xA0 SHL SUB AND DUP3 PUSH1 0x1 PUSH1 0x1 PUSH1 0xA0 SHL SUB AND EQ PUSH2 0x212B JUMPI PUSH1 0x40 MLOAD PUSH4 0x5A9C31D3 PUSH1 0xE0 SHL DUP2 MSTORE PUSH1 0x4 DUP2 ADD DUP7 SWAP1 MSTORE PUSH1 0x1 PUSH1 0x1 PUSH1 0xA0 SHL SUB DUP1 DUP5 AND PUSH1 0x24 DUP4 ADD MSTORE DUP3 AND PUSH1 0x44 DUP3 ADD MSTORE PUSH1 0x64 ADD PUSH2 0x2CC JUMP JUMPDEST PUSH2 0x2135 DUP8 DUP7 PUSH2 0x28E6 JUMP JUMPDEST PUSH1 0x1 PUSH1 0x1 PUSH1 0xA0 SHL SUB DUP8 AND PUSH0 SWAP1 DUP2 MSTORE PUSH1 0x4 PUSH1 0x20 MSTORE PUSH1 0x40 SWAP1 KECCAK256 PUSH2 0x2156 SWAP1 DUP7 PUSH2 0x2939 JUMP JUMPDEST POP PUSH1 0x1 PUSH1 0x1 PUSH1 0xA0 SHL SUB DUP7 AND PUSH0 SWAP1 DUP2 MSTORE PUSH1 0x4 PUSH1 0x20 MSTORE PUSH1 0x40 SWAP1 KECCAK256 PUSH2 0x2178 SWAP1 DUP7 PUSH2 0x273C JUMP JUMPDEST POP PUSH0 DUP6 DUP2 MSTORE PUSH1 0x3 PUSH1 0x20 MSTORE PUSH1 0x40 SWAP1 DUP2 SWAP1 KECCAK256 DUP1 SLOAD PUSH1 0x1 PUSH1 0x1 PUSH1 0xA0 SHL SUB NOT AND PUSH1 0x1 PUSH1 0x1 PUSH1 0xA0 SHL SUB DUP10 DUP2 AND SWAP2 DUP3 OR SWAP1 SWAP3 SSTORE SWAP2 MLOAD DUP8 SWAP3 SWAP2 DUP11 AND SWAP1 PUSH32 0xB333C813A7426A7A11E2B190CAD52C44119421594B47F6F32ACE6D8C7207B2BF SWAP1 PUSH2 0x21DE SWAP1 CALLER SWAP1 DUP11 SWAP1 DUP11 SWAP1 PUSH2 0x38D0 JUMP JUMPDEST PUSH1 0x40 MLOAD DUP1 SWAP2 SUB SWAP1 LOG4 PUSH0 CALLER DUP9 DUP9 DUP9 DUP8 PUSH1 0x40 MLOAD PUSH1 0x20 ADD PUSH2 0x2200 SWAP6 SWAP5 SWAP4 SWAP3 SWAP2 SWAP1 PUSH2 0x3904 JUMP JUMPDEST PUSH1 0x40 MLOAD PUSH1 0x20 DUP2 DUP4 SUB SUB DUP2 MSTORE SWAP1 PUSH1 0x40 MSTORE SWAP1 POP PUSH2 0x221B DUP9 DUP3 PUSH2 0x2944 JUMP JUMPDEST PUSH2 0x2226 DUP8 DUP7 DUP4 PUSH2 0x2747 JUMP JUMPDEST POP POP POP POP POP POP POP POP JUMP JUMPDEST PUSH0 DUP2 DUP2 MSTORE PUSH1 0x1 PUSH1 0x20 MSTORE PUSH1 0x40 SWAP1 KECCAK256 DUP1 SLOAD PUSH1 0x60 SWAP2 SWAP1 PUSH2 0x224C SWAP1 PUSH2 0x3800 JUMP JUMPDEST DUP1 PUSH1 0x1F ADD PUSH1 0x20 DUP1 SWAP2 DIV MUL PUSH1 0x20 ADD PUSH1 0x40 MLOAD SWAP1 DUP2 ADD PUSH1 0x40 MSTORE DUP1 SWAP3 SWAP2 SWAP1 DUP2 DUP2 MSTORE PUSH1 0x20 ADD DUP3 DUP1 SLOAD PUSH2 0x2278 SWAP1 PUSH2 0x3800 JUMP JUMPDEST DUP1 ISZERO PUSH2 0x22C3 JUMPI DUP1 PUSH1 0x1F LT PUSH2 0x229A JUMPI PUSH2 0x100 DUP1 DUP4 SLOAD DIV MUL DUP4 MSTORE SWAP2 PUSH1 0x20 ADD SWAP2 PUSH2 0x22C3 JUMP JUMPDEST DUP3 ADD SWAP2 SWAP1 PUSH0 MSTORE PUSH1 0x20 PUSH0 KECCAK256 SWAP1 JUMPDEST DUP2 SLOAD DUP2 MSTORE SWAP1 PUSH1 0x1 ADD SWAP1 PUSH1 0x20 ADD DUP1 DUP4 GT PUSH2 0x22A6 JUMPI DUP3 SWAP1 SUB PUSH1 0x1F AND DUP3 ADD SWAP2 JUMPDEST POP POP POP POP POP SWAP1 POP SWAP2 SWAP1 POP JUMP JUMPDEST PUSH0 PUSH2 0xA29 DUP3 SLOAD SWAP1 JUMP JUMPDEST PUSH0 SLOAD PUSH1 0x1 PUSH1 0x1 PUSH1 0xA0 SHL SUB DUP3 DUP2 AND SWAP2 AND EQ PUSH2 0x19F1 JUMPI PUSH0 DUP1 SLOAD PUSH1 0x40 MLOAD PUSH1 0x1 PUSH1 0x1 PUSH1 0xA0 SHL SUB DUP1 DUP6 AND SWAP4 SWAP3 AND SWAP2 PUSH32 0x8BE0079C531659141344CD1FD0A4F28419497F9722A3DAAFE3B4186F6B6457E0 SWAP2 LOG3 PUSH0 DUP1 SLOAD PUSH1 0x1 PUSH1 0x1 PUSH1 0xA0 SHL SUB DUP4 AND PUSH1 0x1 PUSH1 0x1 PUSH1 0xA0 SHL SUB NOT SWAP1 SWAP2 AND OR SWAP1 SSTORE POP JUMP JUMPDEST PUSH32 0x98A16C9E50E3E99B3E797305C146898D294E5AEC55A47E213CB3611CCF17E73 DUP3 ADD PUSH2 0x2383 JUMPI PUSH1 0x40 MLOAD PUSH4 0x1B324005 PUSH1 0xE1 SHL DUP2 MSTORE PUSH1 0x4 ADD PUSH1 0x40 MLOAD DUP1 SWAP2 SUB SWAP1 REVERT JUMPDEST PUSH2 0xE9B DUP3 DUP3 PUSH2 0x296F JUMP JUMPDEST PUSH2 0x2395 PUSH2 0x1BAF JUMP JUMPDEST PUSH1 0x7 DUP1 SLOAD PUSH1 0xFF NOT AND PUSH1 0x1 OR SWAP1 SSTORE PUSH32 0x62E78CEA01BEE320CD4E420270B5EA74000D11B0C9F74754EBDBFC544B05A258 PUSH2 0x1FF4 CALLER SWAP1 JUMP JUMPDEST PUSH0 PUSH2 0xAD0 DUP4 PUSH1 0x1 PUSH1 0x1 PUSH1 0xA0 SHL SUB DUP5 AND PUSH2 0x2979 JUMP JUMPDEST PUSH2 0xE9B DUP3 PUSH32 0x8A1C15A8799F71B547E08E2BCB2E85257E81B0A07EEE2CE6712549EEF1F00970 DUP4 PUSH2 0x29C5 JUMP JUMPDEST PUSH1 0x60 DUP2 MLOAD PUSH0 SUB PUSH2 0x2426 JUMPI POP POP PUSH1 0x40 DUP1 MLOAD PUSH1 0x20 DUP2 ADD SWAP1 SWAP2 MSTORE PUSH0 DUP2 MSTORE SWAP1 JUMP JUMPDEST PUSH0 PUSH1 0x40 MLOAD DUP1 PUSH1 0x60 ADD PUSH1 0x40 MSTORE DUP1 PUSH1 0x40 DUP2 MSTORE PUSH1 0x20 ADD PUSH2 0x3B76 PUSH1 0x40 SWAP2 CODECOPY SWAP1 POP PUSH0 PUSH1 0x3 DUP5 MLOAD PUSH1 0x2 PUSH2 0x2453 SWAP2 SWAP1 PUSH2 0x3A3C JUMP JUMPDEST PUSH2 0x245D SWAP2 SWAP1 PUSH2 0x3A4F JUMP JUMPDEST PUSH2 0x2468 SWAP1 PUSH1 0x4 PUSH2 0x3A6E JUMP JUMPDEST PUSH1 0x1 PUSH1 0x1 PUSH1 0x40 SHL SUB DUP2 GT ISZERO PUSH2 0x247F JUMPI PUSH2 0x247F PUSH2 0x2D1A JUMP JUMPDEST PUSH1 0x40 MLOAD SWAP1 DUP1 DUP3 MSTORE DUP1 PUSH1 0x1F ADD PUSH1 0x1F NOT AND PUSH1 0x20 ADD DUP3 ADD PUSH1 0x40 MSTORE DUP1 ISZERO PUSH2 0x24A9 JUMPI PUSH1 0x20 DUP3 ADD DUP2 DUP1 CALLDATASIZE DUP4 CALLDATACOPY ADD SWAP1 POP JUMPDEST POP SWAP1 POP PUSH1 0x1 DUP3 ADD PUSH1 0x20 DUP3 ADD DUP6 DUP7 MLOAD DUP8 ADD PUSH1 0x20 DUP2 ADD DUP1 MLOAD PUSH0 DUP3 MSTORE JUMPDEST DUP3 DUP5 LT ISZERO PUSH2 0x251E JUMPI PUSH1 0x3 DUP5 ADD SWAP4 POP DUP4 MLOAD PUSH1 0x3F DUP2 PUSH1 0x12 SHR AND DUP8 ADD MLOAD DUP7 MSTORE8 PUSH1 0x1 DUP7 ADD SWAP6 POP PUSH1 0x3F DUP2 PUSH1 0xC SHR AND DUP8 ADD MLOAD DUP7 MSTORE8 PUSH1 0x1 DUP7 ADD SWAP6 POP PUSH1 0x3F DUP2 PUSH1 0x6 SHR AND DUP8 ADD MLOAD DUP7 MSTORE8 PUSH1 0x1 DUP7 ADD SWAP6 POP PUSH1 0x3F DUP2 AND DUP8 ADD MLOAD DUP7 MSTORE8 POP PUSH1 0x1 DUP6 ADD SWAP5 POP PUSH2 0x24C3 JUMP JUMPDEST SWAP1 MSTORE POP POP DUP6 MLOAD PUSH1 0x3 SWAP1 MOD PUSH1 0x1 DUP2 EQ PUSH2 0x253D JUMPI PUSH1 0x2 DUP2 EQ PUSH2 0x2550 JUMPI PUSH2 0x2558 JUMP JUMPDEST PUSH1 0x3D PUSH1 0x1 DUP4 SUB MSTORE8 PUSH1 0x3D PUSH1 0x2 DUP4 SUB MSTORE8 PUSH2 0x2558 JUMP JUMPDEST PUSH1 0x3D PUSH1 0x1 DUP4 SUB MSTORE8 JUMPDEST POP SWAP2 SWAP6 SWAP5 POP POP POP POP POP JUMP JUMPDEST PUSH0 DUP4 DUP2 MSTORE PUSH1 0x5 PUSH1 0x20 MSTORE PUSH1 0x40 DUP2 KECCAK256 PUSH2 0x257A SWAP1 DUP8 PUSH2 0x2A12 JUMP JUMPDEST SWAP1 POP DUP1 PUSH2 0x25AC JUMPI PUSH1 0x40 MLOAD PUSH4 0x12A8C6A3 PUSH1 0xE2 SHL DUP2 MSTORE PUSH1 0x1 PUSH1 0x1 PUSH1 0xA0 SHL SUB DUP8 AND PUSH1 0x4 DUP3 ADD MSTORE PUSH1 0x24 DUP2 ADD DUP6 SWAP1 MSTORE PUSH1 0x44 ADD PUSH2 0x2CC JUMP JUMPDEST DUP4 DUP6 PUSH1 0x1 PUSH1 0x1 PUSH1 0xA0 SHL SUB AND DUP8 PUSH1 0x1 PUSH1 0x1 PUSH1 0xA0 SHL SUB AND PUSH32 0xC78CD419D6136F9F1C1C6AEC1D3FAE098CFFAF8BC86314A8F2685E32FE574E3C DUP7 DUP7 PUSH1 0x40 MLOAD PUSH2 0x25F2 SWAP3 SWAP2 SWAP1 PUSH2 0x3A85 JUMP JUMPDEST PUSH1 0x40 MLOAD DUP1 SWAP2 SUB SWAP1 LOG4 POP POP POP POP POP POP JUMP JUMPDEST PUSH1 0x40 DUP1 MLOAD PUSH1 0x1 PUSH1 0x1 PUSH1 0xB0 SHL SUB NOT DUP5 AND PUSH1 0x20 DUP3 ADD MSTORE PUSH0 PUSH1 0x2A DUP3 ADD DUP2 SWAP1 MSTORE PUSH1 0x1 PUSH1 0x1 PUSH1 0x60 SHL SUB NOT DUP5 AND PUSH1 0x2C DUP4 ADD MSTORE SWAP2 DUP3 SWAP2 ADD PUSH1 0x40 MLOAD PUSH1 0x20 DUP2 DUP4 SUB SUB DUP2 MSTORE SWAP1 PUSH1 0x40 MSTORE SWAP1 POP DUP1 PUSH2 0x264D SWAP1 PUSH2 0x3A9F JUMP JUMPDEST SWAP5 SWAP4 POP POP POP POP JUMP JUMPDEST PUSH0 PUSH1 0x1 PUSH1 0x1 PUSH1 0xE0 SHL SUB NOT DUP3 AND PUSH4 0x18A6A9A5 PUSH1 0xE2 SHL EQ DUP1 PUSH2 0xA29 JUMPI POP PUSH4 0x1FFC9A7 PUSH1 0xE0 SHL PUSH1 0x1 PUSH1 0x1 PUSH1 0xE0 SHL SUB NOT DUP4 AND EQ PUSH2 0xA29 JUMP JUMPDEST PUSH1 0x40 DUP1 MLOAD PUSH1 0x1 PUSH1 0x1 PUSH1 0xE0 SHL SUB NOT DUP4 AND PUSH1 0x24 DUP1 DUP4 ADD SWAP2 SWAP1 SWAP2 MSTORE DUP3 MLOAD DUP1 DUP4 SUB SWAP1 SWAP2 ADD DUP2 MSTORE PUSH1 0x44 SWAP1 SWAP2 ADD SWAP1 SWAP2 MSTORE PUSH1 0x20 DUP1 DUP3 ADD DUP1 MLOAD PUSH1 0x1 PUSH1 0x1 PUSH1 0xE0 SHL SUB AND PUSH4 0x1FFC9A7 PUSH1 0xE0 SHL OR DUP2 MSTORE DUP3 MLOAD PUSH0 SWAP4 SWAP3 DUP5 SWAP3 DUP4 SWAP3 DUP4 SWAP3 SWAP2 DUP4 SWAP2 SWAP1 DUP11 PUSH2 0x7530 STATICCALL SWAP3 POP RETURNDATASIZE SWAP2 POP PUSH0 MLOAD SWAP1 POP DUP3 DUP1 ISZERO PUSH2 0x26F9 JUMPI POP PUSH1 0x20 DUP3 LT ISZERO JUMPDEST DUP1 ISZERO PUSH2 0x2704 JUMPI POP PUSH0 DUP2 GT JUMPDEST SWAP8 SWAP7 POP POP POP POP POP POP POP JUMP JUMPDEST PUSH0 PUSH1 0x64 PUSH2 0x271C DUP4 DUP6 PUSH2 0x3A6E JUMP JUMPDEST LT ISZERO PUSH2 0x2726 JUMPI PUSH0 PUSH0 REVERT JUMPDEST PUSH1 0x64 PUSH2 0x2732 DUP4 DUP6 PUSH2 0x3A6E JUMP JUMPDEST PUSH2 0xAD0 SWAP2 SWAP1 PUSH2 0x3A4F JUMP JUMPDEST PUSH0 PUSH2 0xAD0 DUP4 DUP4 PUSH2 0x2979 JUMP JUMPDEST PUSH2 0x2758 DUP4 PUSH4 0x1AED5A85 PUSH1 0xE2 SHL PUSH2 0x2689 JUMP JUMPDEST ISZERO PUSH2 0x27ED JUMPI PUSH1 0x40 MLOAD PUSH4 0x1AED5A85 PUSH1 0xE2 SHL DUP2 MSTORE PUSH1 0x1 PUSH1 0x1 PUSH1 0xA0 SHL SUB DUP5 AND SWAP1 PUSH4 0x6BB56A14 SWAP1 PUSH2 0x27AB SWAP1 PUSH32 0xB084A55EBF70FD3C06FD755269DAC2212C4D3F0F4D09079780BFA50C1B2984D SWAP1 DUP6 SWAP1 PUSH1 0x4 ADD PUSH2 0x3AC2 JUMP JUMPDEST PUSH0 PUSH1 0x40 MLOAD DUP1 DUP4 SUB DUP2 PUSH0 DUP8 GAS CALL ISZERO DUP1 ISZERO PUSH2 0x27C6 JUMPI RETURNDATASIZE PUSH0 PUSH0 RETURNDATACOPY RETURNDATASIZE PUSH0 REVERT JUMPDEST POP POP POP POP PUSH1 0x40 MLOAD RETURNDATASIZE PUSH0 DUP3 RETURNDATACOPY PUSH1 0x1F RETURNDATASIZE SWAP1 DUP2 ADD PUSH1 0x1F NOT AND DUP3 ADD PUSH1 0x40 MSTORE PUSH2 0x17BD SWAP2 SWAP1 DUP2 ADD SWAP1 PUSH2 0x3ADA JUMP JUMPDEST DUP2 PUSH2 0xFE5 JUMPI PUSH1 0x1 PUSH1 0x1 PUSH1 0xA0 SHL SUB DUP4 AND EXTCODESIZE ISZERO PUSH2 0x2826 JUMPI PUSH1 0x40 MLOAD PUSH4 0x4349776D PUSH1 0xE0 SHL DUP2 MSTORE PUSH1 0x1 PUSH1 0x1 PUSH1 0xA0 SHL SUB DUP5 AND PUSH1 0x4 DUP3 ADD MSTORE PUSH1 0x24 ADD PUSH2 0x2CC JUMP JUMPDEST PUSH1 0x40 MLOAD PUSH4 0x3173137 PUSH1 0xE0 SHL DUP2 MSTORE PUSH1 0x1 PUSH1 0x1 PUSH1 0xA0 SHL SUB DUP5 AND PUSH1 0x4 DUP3 ADD MSTORE PUSH1 0x24 ADD PUSH2 0x2CC JUMP JUMPDEST PUSH1 0x1 PUSH1 0x1 PUSH1 0xA0 SHL SUB DUP2 AND PUSH0 SWAP1 DUP2 MSTORE PUSH1 0x1 DUP4 ADD PUSH1 0x20 MSTORE PUSH1 0x40 DUP2 KECCAK256 SLOAD ISZERO ISZERO PUSH2 0xAD0 JUMP JUMPDEST PUSH1 0x7 SLOAD PUSH1 0xFF AND PUSH2 0xEAF JUMPI PUSH1 0x40 MLOAD PUSH4 0x8DFC202B PUSH1 0xE0 SHL DUP2 MSTORE PUSH1 0x4 ADD PUSH1 0x40 MLOAD DUP1 SWAP2 SUB SWAP1 REVERT JUMPDEST PUSH1 0x60 DUP2 PUSH0 ADD DUP1 SLOAD DUP1 PUSH1 0x20 MUL PUSH1 0x20 ADD PUSH1 0x40 MLOAD SWAP1 DUP2 ADD PUSH1 0x40 MSTORE DUP1 SWAP3 SWAP2 SWAP1 DUP2 DUP2 MSTORE PUSH1 0x20 ADD DUP3 DUP1 SLOAD DUP1 ISZERO PUSH2 0x22C3 JUMPI PUSH1 0x20 MUL DUP3 ADD SWAP2 SWAP1 PUSH0 MSTORE PUSH1 0x20 PUSH0 KECCAK256 SWAP1 JUMPDEST DUP2 SLOAD DUP2 MSTORE PUSH1 0x20 ADD SWAP1 PUSH1 0x1 ADD SWAP1 DUP1 DUP4 GT PUSH2 0x28C7 JUMPI POP POP POP POP POP SWAP1 POP SWAP2 SWAP1 POP JUMP JUMPDEST PUSH0 DUP2 DUP2 MSTORE PUSH1 0x5 PUSH1 0x20 MSTORE PUSH1 0x40 DUP2 KECCAK256 SWAP1 PUSH2 0x28FD DUP3 PUSH2 0x22CF JUMP JUMPDEST SWAP1 POP PUSH0 PUSH0 JUMPDEST DUP3 DUP2 LT ISZERO PUSH2 0x14AC JUMPI PUSH2 0x2914 DUP5 PUSH0 PUSH2 0x2A26 JUMP JUMPDEST SWAP2 POP PUSH2 0x2931 DUP3 DUP8 DUP8 PUSH0 PUSH1 0x40 MLOAD DUP1 PUSH1 0x20 ADD PUSH1 0x40 MSTORE DUP1 PUSH0 DUP2 MSTORE POP PUSH2 0x2563 JUMP JUMPDEST PUSH1 0x1 ADD PUSH2 0x2902 JUMP JUMPDEST PUSH0 PUSH2 0xAD0 DUP4 DUP4 PUSH2 0x2A31 JUMP JUMPDEST PUSH2 0xE9B DUP3 PUSH32 0xB23EAE7E6D1564B295B4C3E3BE402D9A2F0776C57BDF365903496F6FA481AB00 DUP4 PUSH2 0x29C5 JUMP JUMPDEST PUSH2 0xE9B DUP3 DUP3 PUSH2 0x2B14 JUMP JUMPDEST PUSH0 DUP2 DUP2 MSTORE PUSH1 0x1 DUP4 ADD PUSH1 0x20 MSTORE PUSH1 0x40 DUP2 KECCAK256 SLOAD PUSH2 0x29BE JUMPI POP DUP2 SLOAD PUSH1 0x1 DUP2 DUP2 ADD DUP5 SSTORE PUSH0 DUP5 DUP2 MSTORE PUSH1 0x20 DUP1 DUP3 KECCAK256 SWAP1 SWAP4 ADD DUP5 SWAP1 SSTORE DUP5 SLOAD DUP5 DUP3 MSTORE DUP3 DUP7 ADD SWAP1 SWAP4 MSTORE PUSH1 0x40 SWAP1 KECCAK256 SWAP2 SWAP1 SWAP2 SSTORE PUSH2 0xA29 JUMP JUMPDEST POP PUSH0 PUSH2 0xA29 JUMP JUMPDEST PUSH2 0x29DF PUSH1 0x1 PUSH1 0x1 PUSH1 0xA0 SHL SUB DUP5 AND PUSH4 0x1AED5A85 PUSH1 0xE2 SHL PUSH2 0x2689 JUMP JUMPDEST ISZERO PUSH2 0xFE5 JUMPI PUSH1 0x40 MLOAD PUSH4 0x1AED5A85 PUSH1 0xE2 SHL DUP2 MSTORE PUSH1 0x1 PUSH1 0x1 PUSH1 0xA0 SHL SUB DUP5 AND SWAP1 PUSH4 0x6BB56A14 SWAP1 PUSH2 0x27AB SWAP1 DUP6 SWAP1 DUP6 SWAP1 PUSH1 0x4 ADD PUSH2 0x3AC2 JUMP JUMPDEST PUSH0 PUSH2 0xAD0 DUP4 PUSH1 0x1 PUSH1 0x1 PUSH1 0xA0 SHL SUB DUP5 AND PUSH2 0x2A31 JUMP JUMPDEST PUSH0 PUSH2 0xAD0 DUP4 DUP4 PUSH2 0x2C28 JUMP JUMPDEST PUSH0 DUP2 DUP2 MSTORE PUSH1 0x1 DUP4 ADD PUSH1 0x20 MSTORE PUSH1 0x40 DUP2 KECCAK256 SLOAD DUP1 ISZERO PUSH2 0x2B0B JUMPI PUSH0 PUSH2 0x2A53 PUSH1 0x1 DUP4 PUSH2 0x3B4E JUMP JUMPDEST DUP6 SLOAD SWAP1 SWAP2 POP PUSH0 SWAP1 PUSH2 0x2A66 SWAP1 PUSH1 0x1 SWAP1 PUSH2 0x3B4E JUMP JUMPDEST SWAP1 POP DUP2 DUP2 EQ PUSH2 0x2AC5 JUMPI PUSH0 DUP7 PUSH0 ADD DUP3 DUP2 SLOAD DUP2 LT PUSH2 0x2A84 JUMPI PUSH2 0x2A84 PUSH2 0x367F JUMP JUMPDEST SWAP1 PUSH0 MSTORE PUSH1 0x20 PUSH0 KECCAK256 ADD SLOAD SWAP1 POP DUP1 DUP8 PUSH0 ADD DUP5 DUP2 SLOAD DUP2 LT PUSH2 0x2AA4 JUMPI PUSH2 0x2AA4 PUSH2 0x367F JUMP JUMPDEST PUSH0 SWAP2 DUP3 MSTORE PUSH1 0x20 DUP1 DUP4 KECCAK256 SWAP1 SWAP2 ADD SWAP3 SWAP1 SWAP3 SSTORE SWAP2 DUP3 MSTORE PUSH1 0x1 DUP9 ADD SWAP1 MSTORE PUSH1 0x40 SWAP1 KECCAK256 DUP4 SWAP1 SSTORE JUMPDEST DUP6 SLOAD DUP7 SWAP1 DUP1 PUSH2 0x2AD6 JUMPI PUSH2 0x2AD6 PUSH2 0x3B61 JUMP JUMPDEST PUSH1 0x1 SWAP1 SUB DUP2 DUP2 SWAP1 PUSH0 MSTORE PUSH1 0x20 PUSH0 KECCAK256 ADD PUSH0 SWAP1 SSTORE SWAP1 SSTORE DUP6 PUSH1 0x1 ADD PUSH0 DUP7 DUP2 MSTORE PUSH1 0x20 ADD SWAP1 DUP2 MSTORE PUSH1 0x20 ADD PUSH0 KECCAK256 PUSH0 SWAP1 SSTORE PUSH1 0x1 SWAP4 POP POP POP POP PUSH2 0xA29 JUMP JUMPDEST PUSH0 SWAP2 POP POP PUSH2 0xA29 JUMP JUMPDEST PUSH32 0x2145E1D6D074577DC71EF54C3807742B41B053A9352AE6B491331509ACB9750F DUP3 ADD PUSH2 0x2B54 JUMPI PUSH1 0x40 MLOAD PUSH4 0x85C169BD PUSH1 0xE0 SHL DUP2 MSTORE PUSH1 0x4 ADD PUSH1 0x40 MLOAD DUP1 SWAP2 SUB SWAP1 REVERT JUMPDEST PUSH32 0xD0F59754F88971FE6BC5A6618CC9D5F1E859C58D16B22D1C7B2D3E2B246CD8AA DUP3 ADD PUSH2 0x2B94 JUMPI PUSH1 0x40 MLOAD PUSH4 0xECEAB67 PUSH1 0xE3 SHL DUP2 MSTORE PUSH1 0x4 ADD PUSH1 0x40 MLOAD DUP1 SWAP2 SUB SWAP1 REVERT JUMPDEST PUSH32 0x1FD9E056A24D14C4ABC642FCC325992A946906D0DBC57DD70278AAF12842024D DUP3 ADD PUSH2 0x2BD4 JUMPI PUSH1 0x40 MLOAD PUSH4 0x4EF6D7FB PUSH1 0xE0 SHL DUP2 MSTORE PUSH1 0x4 ADD PUSH1 0x40 MLOAD DUP1 SWAP2 SUB SWAP1 REVERT JUMPDEST PUSH0 DUP3 DUP2 MSTORE PUSH1 0x1 PUSH1 0x20 MSTORE PUSH1 0x40 SWAP1 KECCAK256 PUSH2 0x2BEB DUP3 DUP3 PUSH2 0x3982 JUMP JUMPDEST POP DUP2 PUSH32 0xECE574603820D07BC9B91F2A932BAADF4628AABCB8AFBA49776529C14A6104B2 DUP3 PUSH1 0x40 MLOAD PUSH2 0x2C1C SWAP2 SWAP1 PUSH2 0x2D08 JUMP JUMPDEST PUSH1 0x40 MLOAD DUP1 SWAP2 SUB SWAP1 LOG2 POP POP JUMP JUMPDEST PUSH0 DUP3 PUSH0 ADD DUP3 DUP2 SLOAD DUP2 LT PUSH2 0x2C3D JUMPI PUSH2 0x2C3D PUSH2 0x367F JUMP JUMPDEST SWAP1 PUSH0 MSTORE PUSH1 0x20 PUSH0 KECCAK256 ADD SLOAD SWAP1 POP SWAP3 SWAP2 POP POP JUMP JUMPDEST PUSH1 0x20 DUP2 MSTORE DUP2 PUSH1 0x20 DUP3 ADD MSTORE DUP2 DUP4 PUSH1 0x40 DUP4 ADD CALLDATACOPY PUSH0 DUP2 DUP4 ADD PUSH1 0x40 SWAP1 DUP2 ADD SWAP2 SWAP1 SWAP2 MSTORE PUSH1 0x1F SWAP1 SWAP3 ADD PUSH1 0x1F NOT AND ADD ADD SWAP2 SWAP1 POP JUMP JUMPDEST PUSH0 PUSH1 0x20 DUP3 DUP5 SUB SLT ISZERO PUSH2 0x2C8C JUMPI PUSH0 PUSH0 REVERT JUMPDEST POP CALLDATALOAD SWAP2 SWAP1 POP JUMP JUMPDEST PUSH0 PUSH1 0x20 DUP3 DUP5 SUB SLT ISZERO PUSH2 0x2CA3 JUMPI PUSH0 PUSH0 REVERT JUMPDEST DUP2 CALLDATALOAD PUSH1 0x1 PUSH1 0x1 PUSH1 0xE0 SHL SUB NOT DUP2 AND DUP2 EQ PUSH2 0xAD0 JUMPI PUSH0 PUSH0 REVERT JUMPDEST PUSH0 PUSH0 PUSH1 0x40 DUP4 DUP6 SUB SLT ISZERO PUSH2 0x2CCB JUMPI PUSH0 PUSH0 REVERT JUMPDEST POP POP DUP1 CALLDATALOAD SWAP3 PUSH1 0x20 SWAP1 SWAP2 ADD CALLDATALOAD SWAP2 POP JUMP JUMPDEST PUSH0 DUP2 MLOAD DUP1 DUP5 MSTORE DUP1 PUSH1 0x20 DUP5 ADD PUSH1 0x20 DUP7 ADD MCOPY PUSH0 PUSH1 0x20 DUP3 DUP7 ADD ADD MSTORE PUSH1 0x20 PUSH1 0x1F NOT PUSH1 0x1F DUP4 ADD AND DUP6 ADD ADD SWAP2 POP POP SWAP3 SWAP2 POP POP JUMP JUMPDEST PUSH1 0x20 DUP2 MSTORE PUSH0 PUSH2 0xAD0 PUSH1 0x20 DUP4 ADD DUP5 PUSH2 0x2CDA JUMP JUMPDEST PUSH4 0x4E487B71 PUSH1 0xE0 SHL PUSH0 MSTORE PUSH1 0x41 PUSH1 0x4 MSTORE PUSH1 0x24 PUSH0 REVERT JUMPDEST PUSH1 0x40 MLOAD PUSH1 0x1F DUP3 ADD PUSH1 0x1F NOT AND DUP2 ADD PUSH1 0x1 PUSH1 0x1 PUSH1 0x40 SHL SUB DUP2 GT DUP3 DUP3 LT OR ISZERO PUSH2 0x2D56 JUMPI PUSH2 0x2D56 PUSH2 0x2D1A JUMP JUMPDEST PUSH1 0x40 MSTORE SWAP2 SWAP1 POP JUMP JUMPDEST PUSH0 PUSH1 0x1 PUSH1 0x1 PUSH1 0x40 SHL SUB DUP3 GT ISZERO PUSH2 0x2D76 JUMPI PUSH2 0x2D76 PUSH2 0x2D1A JUMP JUMPDEST POP PUSH1 0x1F ADD PUSH1 0x1F NOT AND PUSH1 0x20 ADD SWAP1 JUMP JUMPDEST PUSH0 DUP3 PUSH1 0x1F DUP4 ADD SLT PUSH2 0x2D93 JUMPI PUSH0 PUSH0 REVERT JUMPDEST DUP2 CALLDATALOAD PUSH1 0x20 DUP4 ADD PUSH0 PUSH2 0x2DAB PUSH2 0x2DA6 DUP5 PUSH2 0x2D5E JUMP JUMPDEST PUSH2 0x2D2E JUMP JUMPDEST SWAP1 POP DUP3 DUP2 MSTORE DUP6 DUP4 DUP4 ADD GT ISZERO PUSH2 0x2DBE JUMPI PUSH0 PUSH0 REVERT JUMPDEST DUP3 DUP3 PUSH1 0x20 DUP4 ADD CALLDATACOPY PUSH0 SWAP3 DUP2 ADD PUSH1 0x20 ADD SWAP3 SWAP1 SWAP3 MSTORE POP SWAP4 SWAP3 POP POP POP JUMP JUMPDEST PUSH0 PUSH1 0x20 DUP3 DUP5 SUB SLT ISZERO PUSH2 0x2DE8 JUMPI PUSH0 PUSH0 REVERT JUMPDEST DUP2 CALLDATALOAD PUSH1 0x1 PUSH1 0x1 PUSH1 0x40 SHL SUB DUP2 GT ISZERO PUSH2 0x2DFD JUMPI PUSH0 PUSH0 REVERT JUMPDEST PUSH2 0x264D DUP5 DUP3 DUP6 ADD PUSH2 0x2D84 JUMP JUMPDEST PUSH0 PUSH1 0x1 PUSH1 0x1 PUSH1 0x40 SHL SUB DUP3 GT ISZERO PUSH2 0x2E21 JUMPI PUSH2 0x2E21 PUSH2 0x2D1A JUMP JUMPDEST POP PUSH1 0x5 SHL PUSH1 0x20 ADD SWAP1 JUMP JUMPDEST PUSH0 DUP3 PUSH1 0x1F DUP4 ADD SLT PUSH2 0x2E3A JUMPI PUSH0 PUSH0 REVERT JUMPDEST DUP2 CALLDATALOAD PUSH2 0x2E48 PUSH2 0x2DA6 DUP3 PUSH2 0x2E09 JUMP JUMPDEST DUP1 DUP3 DUP3 MSTORE PUSH1 0x20 DUP3 ADD SWAP2 POP PUSH1 0x20 DUP4 PUSH1 0x5 SHL DUP7 ADD ADD SWAP3 POP DUP6 DUP4 GT ISZERO PUSH2 0x2E69 JUMPI PUSH0 PUSH0 REVERT JUMPDEST PUSH1 0x20 DUP6 ADD JUMPDEST DUP4 DUP2 LT ISZERO PUSH2 0x2E86 JUMPI DUP1 CALLDATALOAD DUP4 MSTORE PUSH1 0x20 SWAP3 DUP4 ADD SWAP3 ADD PUSH2 0x2E6E JUMP JUMPDEST POP SWAP6 SWAP5 POP POP POP POP POP JUMP JUMPDEST PUSH0 PUSH0 PUSH1 0x40 DUP4 DUP6 SUB SLT ISZERO PUSH2 0x2EA1 JUMPI PUSH0 PUSH0 REVERT JUMPDEST DUP3 CALLDATALOAD PUSH1 0x1 PUSH1 0x1 PUSH1 0x40 SHL SUB DUP2 GT ISZERO PUSH2 0x2EB6 JUMPI PUSH0 PUSH0 REVERT JUMPDEST PUSH2 0x2EC2 DUP6 DUP3 DUP7 ADD PUSH2 0x2E2B JUMP JUMPDEST SWAP3 POP POP PUSH1 0x20 DUP4 ADD CALLDATALOAD PUSH1 0x1 PUSH1 0x1 PUSH1 0x40 SHL SUB DUP2 GT ISZERO PUSH2 0x2EDD JUMPI PUSH0 PUSH0 REVERT JUMPDEST PUSH2 0x2EE9 DUP6 DUP3 DUP7 ADD PUSH2 0x2E2B JUMP JUMPDEST SWAP2 POP POP SWAP3 POP SWAP3 SWAP1 POP JUMP JUMPDEST PUSH0 PUSH1 0x20 DUP3 ADD PUSH1 0x20 DUP4 MSTORE DUP1 DUP5 MLOAD DUP1 DUP4 MSTORE PUSH1 0x40 DUP6 ADD SWAP2 POP PUSH1 0x40 DUP2 PUSH1 0x5 SHL DUP7 ADD ADD SWAP3 POP PUSH1 0x20 DUP7 ADD PUSH0 JUMPDEST DUP3 DUP2 LT ISZERO PUSH2 0x2F4A JUMPI PUSH1 0x3F NOT DUP8 DUP7 SUB ADD DUP5 MSTORE PUSH2 0x2F35 DUP6 DUP4 MLOAD PUSH2 0x2CDA JUMP JUMPDEST SWAP5 POP PUSH1 0x20 SWAP4 DUP5 ADD SWAP4 SWAP2 SWAP1 SWAP2 ADD SWAP1 PUSH1 0x1 ADD PUSH2 0x2F19 JUMP JUMPDEST POP SWAP3 SWAP7 SWAP6 POP POP POP POP POP POP JUMP JUMPDEST PUSH1 0x1 PUSH1 0x1 PUSH1 0xA0 SHL SUB DUP2 AND DUP2 EQ PUSH2 0x19F1 JUMPI PUSH0 PUSH0 REVERT JUMPDEST PUSH0 PUSH0 PUSH1 0x40 DUP4 DUP6 SUB SLT ISZERO PUSH2 0x2F7B JUMPI PUSH0 PUSH0 REVERT JUMPDEST DUP3 CALLDATALOAD PUSH2 0x2F86 DUP2 PUSH2 0x2F56 JUMP JUMPDEST SWAP5 PUSH1 0x20 SWAP4 SWAP1 SWAP4 ADD CALLDATALOAD SWAP4 POP POP POP JUMP JUMPDEST PUSH0 PUSH1 0x20 DUP3 DUP5 SUB SLT ISZERO PUSH2 0x2FA4 JUMPI PUSH0 PUSH0 REVERT JUMPDEST DUP2 CALLDATALOAD PUSH2 0xAD0 DUP2 PUSH2 0x2F56 JUMP JUMPDEST PUSH1 0x20 DUP1 DUP3 MSTORE DUP3 MLOAD DUP3 DUP3 ADD DUP2 SWAP1 MSTORE PUSH0 SWAP2 DUP5 ADD SWAP1 PUSH1 0x40 DUP5 ADD SWAP1 DUP4 JUMPDEST DUP2 DUP2 LT ISZERO PUSH2 0x2FEF JUMPI DUP4 MLOAD PUSH1 0x1 PUSH1 0x1 PUSH1 0xA0 SHL SUB AND DUP4 MSTORE PUSH1 0x20 SWAP4 DUP5 ADD SWAP4 SWAP1 SWAP3 ADD SWAP2 PUSH1 0x1 ADD PUSH2 0x2FC8 JUMP JUMPDEST POP SWAP1 SWAP6 SWAP5 POP POP POP POP POP JUMP JUMPDEST PUSH0 PUSH0 PUSH1 0x40 DUP4 DUP6 SUB SLT ISZERO PUSH2 0x300B JUMPI PUSH0 PUSH0 REVERT JUMPDEST DUP3 CALLDATALOAD PUSH2 0x3016 DUP2 PUSH2 0x2F56 JUMP JUMPDEST SWAP2 POP PUSH1 0x20 DUP4 ADD CALLDATALOAD PUSH1 0xFF DUP2 AND DUP2 EQ PUSH2 0x302B JUMPI PUSH0 PUSH0 REVERT JUMPDEST DUP1 SWAP2 POP POP SWAP3 POP SWAP3 SWAP1 POP JUMP JUMPDEST DUP1 CALLDATALOAD DUP1 ISZERO ISZERO DUP2 EQ PUSH2 0xCCC JUMPI PUSH0 PUSH0 REVERT JUMPDEST PUSH0 PUSH0 PUSH0 PUSH0 PUSH0 PUSH1 0xA0 DUP7 DUP9 SUB SLT ISZERO PUSH2 0x3059 JUMPI PUSH0 PUSH0 REVERT JUMPDEST DUP6 CALLDATALOAD PUSH2 0x3064 DUP2 PUSH2 0x2F56 JUMP JUMPDEST SWAP5 POP PUSH1 0x20 DUP7 ADD CALLDATALOAD PUSH2 0x3074 DUP2 PUSH2 0x2F56 JUMP JUMPDEST SWAP4 POP PUSH1 0x40 DUP7 ADD CALLDATALOAD SWAP3 POP PUSH2 0x3089 PUSH1 0x60 DUP8 ADD PUSH2 0x3036 JUMP JUMPDEST SWAP2 POP PUSH1 0x80 DUP7 ADD CALLDATALOAD PUSH1 0x1 PUSH1 0x1 PUSH1 0x40 SHL SUB DUP2 GT ISZERO PUSH2 0x30A3 JUMPI PUSH0 PUSH0 REVERT JUMPDEST PUSH2 0x30AF DUP9 DUP3 DUP10 ADD PUSH2 0x2D84 JUMP JUMPDEST SWAP2 POP POP SWAP3 SWAP6 POP SWAP3 SWAP6 SWAP1 SWAP4 POP JUMP JUMPDEST PUSH0 PUSH0 PUSH1 0x40 DUP4 DUP6 SUB SLT ISZERO PUSH2 0x30CD JUMPI PUSH0 PUSH0 REVERT JUMPDEST DUP3 CALLDATALOAD PUSH1 0x1 PUSH1 0x1 PUSH1 0x40 SHL SUB DUP2 GT ISZERO PUSH2 0x30E2 JUMPI PUSH0 PUSH0 REVERT JUMPDEST PUSH2 0x30EE DUP6 DUP3 DUP7 ADD PUSH2 0x2D84 JUMP JUMPDEST SWAP3 POP POP PUSH1 0x20 DUP4 ADD CALLDATALOAD PUSH2 0x302B DUP2 PUSH2 0x2F56 JUMP JUMPDEST PUSH0 PUSH0 PUSH1 0x20 DUP4 DUP6 SUB SLT ISZERO PUSH2 0x3110 JUMPI PUSH0 PUSH0 REVERT JUMPDEST DUP3 CALLDATALOAD PUSH1 0x1 PUSH1 0x1 PUSH1 0x40 SHL SUB DUP2 GT ISZERO PUSH2 0x3125 JUMPI PUSH0 PUSH0 REVERT JUMPDEST DUP4 ADD PUSH1 0x1F DUP2 ADD DUP6 SGT PUSH2 0x3135 JUMPI PUSH0 PUSH0 REVERT JUMPDEST DUP1 CALLDATALOAD PUSH1 0x1 PUSH1 0x1 PUSH1 0x40 SHL SUB DUP2 GT ISZERO PUSH2 0x314A JUMPI PUSH0 PUSH0 REVERT JUMPDEST DUP6 PUSH1 0x20 DUP3 PUSH1 0x5 SHL DUP5 ADD ADD GT ISZERO PUSH2 0x315E JUMPI PUSH0 PUSH0 REVERT JUMPDEST PUSH1 0x20 SWAP2 SWAP1 SWAP2 ADD SWAP6 SWAP1 SWAP5 POP SWAP3 POP POP POP JUMP JUMPDEST PUSH0 DUP3 PUSH1 0x1F DUP4 ADD SLT PUSH2 0x317D JUMPI PUSH0 PUSH0 REVERT JUMPDEST DUP2 CALLDATALOAD PUSH2 0x318B PUSH2 0x2DA6 DUP3 PUSH2 0x2E09 JUMP JUMPDEST DUP1 DUP3 DUP3 MSTORE PUSH1 0x20 DUP3 ADD SWAP2 POP PUSH1 0x20 DUP4 PUSH1 0x5 SHL DUP7 ADD ADD SWAP3 POP DUP6 DUP4 GT ISZERO PUSH2 0x31AC JUMPI PUSH0 PUSH0 REVERT JUMPDEST PUSH1 0x20 DUP6 ADD JUMPDEST DUP4 DUP2 LT ISZERO PUSH2 0x2E86 JUMPI DUP1 CALLDATALOAD PUSH2 0x31C4 DUP2 PUSH2 0x2F56 JUMP JUMPDEST DUP4 MSTORE PUSH1 0x20 SWAP3 DUP4 ADD SWAP3 ADD PUSH2 0x31B1 JUMP JUMPDEST PUSH0 DUP3 PUSH1 0x1F DUP4 ADD SLT PUSH2 0x31E1 JUMPI PUSH0 PUSH0 REVERT JUMPDEST DUP2 CALLDATALOAD PUSH2 0x31EF PUSH2 0x2DA6 DUP3 PUSH2 0x2E09 JUMP JUMPDEST DUP1 DUP3 DUP3 MSTORE PUSH1 0x20 DUP3 ADD SWAP2 POP PUSH1 0x20 DUP4 PUSH1 0x5 SHL DUP7 ADD ADD SWAP3 POP DUP6 DUP4 GT ISZERO PUSH2 0x3210 JUMPI PUSH0 PUSH0 REVERT JUMPDEST PUSH1 0x20 DUP6 ADD JUMPDEST DUP4 DUP2 LT ISZERO PUSH2 0x2E86 JUMPI PUSH2 0x3226 DUP2 PUSH2 0x3036 JUMP JUMPDEST DUP4 MSTORE PUSH1 0x20 SWAP3 DUP4 ADD SWAP3 ADD PUSH2 0x3215 JUMP JUMPDEST PUSH0 DUP3 PUSH1 0x1F DUP4 ADD SLT PUSH2 0x3243 JUMPI PUSH0 PUSH0 REVERT JUMPDEST DUP2 CALLDATALOAD PUSH2 0x3251 PUSH2 0x2DA6 DUP3 PUSH2 0x2E09 JUMP JUMPDEST DUP1 DUP3 DUP3 MSTORE PUSH1 0x20 DUP3 ADD SWAP2 POP PUSH1 0x20 DUP4 PUSH1 0x5 SHL DUP7 ADD ADD SWAP3 POP DUP6 DUP4 GT ISZERO PUSH2 0x3272 JUMPI PUSH0 PUSH0 REVERT JUMPDEST PUSH1 0x20 DUP6 ADD JUMPDEST DUP4 DUP2 LT ISZERO PUSH2 0x2E86 JUMPI DUP1 CALLDATALOAD PUSH1 0x1 PUSH1 0x1 PUSH1 0x40 SHL SUB DUP2 GT ISZERO PUSH2 0x3294 JUMPI PUSH0 PUSH0 REVERT JUMPDEST PUSH2 0x32A3 DUP9 PUSH1 0x20 DUP4 DUP11 ADD ADD PUSH2 0x2D84 JUMP JUMPDEST DUP5 MSTORE POP PUSH1 0x20 SWAP3 DUP4 ADD SWAP3 ADD PUSH2 0x3277 JUMP JUMPDEST PUSH0 PUSH0 PUSH0 PUSH0 PUSH0 PUSH1 0xA0 DUP7 DUP9 SUB SLT ISZERO PUSH2 0x32C6 JUMPI PUSH0 PUSH0 REVERT JUMPDEST DUP6 CALLDATALOAD PUSH1 0x1 PUSH1 0x1 PUSH1 0x40 SHL SUB DUP2 GT ISZERO PUSH2 0x32DB JUMPI PUSH0 PUSH0 REVERT JUMPDEST PUSH2 0x32E7 DUP9 DUP3 DUP10 ADD PUSH2 0x316E JUMP JUMPDEST SWAP6 POP POP PUSH1 0x20 DUP7 ADD CALLDATALOAD PUSH1 0x1 PUSH1 0x1 PUSH1 0x40 SHL SUB DUP2 GT ISZERO PUSH2 0x3302 JUMPI PUSH0 PUSH0 REVERT JUMPDEST PUSH2 0x330E DUP9 DUP3 DUP10 ADD PUSH2 0x316E JUMP JUMPDEST SWAP5 POP POP PUSH1 0x40 DUP7 ADD CALLDATALOAD PUSH1 0x1 PUSH1 0x1 PUSH1 0x40 SHL SUB DUP2 GT ISZERO PUSH2 0x3329 JUMPI PUSH0 PUSH0 REVERT JUMPDEST PUSH2 0x3335 DUP9 DUP3 DUP10 ADD PUSH2 0x2E2B JUMP JUMPDEST SWAP4 POP POP PUSH1 0x60 DUP7 ADD CALLDATALOAD PUSH1 0x1 PUSH1 0x1 PUSH1 0x40 SHL SUB DUP2 GT ISZERO PUSH2 0x3350 JUMPI PUSH0 PUSH0 REVERT JUMPDEST PUSH2 0x335C DUP9 DUP3 DUP10 ADD PUSH2 0x31D2 JUMP JUMPDEST SWAP3 POP POP PUSH1 0x80 DUP7 ADD CALLDATALOAD PUSH1 0x1 PUSH1 0x1 PUSH1 0x40 SHL SUB DUP2 GT ISZERO PUSH2 0x3377 JUMPI PUSH0 PUSH0 REVERT JUMPDEST PUSH2 0x30AF DUP9 DUP3 DUP10 ADD PUSH2 0x3234 JUMP JUMPDEST PUSH0 PUSH0 PUSH1 0x40 DUP4 DUP6 SUB SLT ISZERO PUSH2 0x3394 JUMPI PUSH0 PUSH0 REVERT JUMPDEST DUP3 CALLDATALOAD SWAP2 POP PUSH1 0x20 DUP4 ADD CALLDATALOAD PUSH1 0x1 PUSH1 0x1 PUSH1 0x40 SHL SUB DUP2 GT ISZERO PUSH2 0x33B0 JUMPI PUSH0 PUSH0 REVERT JUMPDEST PUSH2 0x2EE9 DUP6 DUP3 DUP7 ADD PUSH2 0x2D84 JUMP JUMPDEST PUSH0 PUSH0 PUSH0 PUSH1 0x60 DUP5 DUP7 SUB SLT ISZERO PUSH2 0x33CE JUMPI PUSH0 PUSH0 REVERT JUMPDEST DUP4 CALLDATALOAD PUSH2 0x33D9 DUP2 PUSH2 0x2F56 JUMP JUMPDEST SWAP3 POP PUSH1 0x20 DUP5 ADD CALLDATALOAD SWAP2 POP PUSH1 0x40 DUP5 ADD CALLDATALOAD PUSH1 0x1 PUSH1 0x1 PUSH1 0x40 SHL SUB DUP2 GT ISZERO PUSH2 0x33FA JUMPI PUSH0 PUSH0 REVERT JUMPDEST PUSH2 0x3406 DUP7 DUP3 DUP8 ADD PUSH2 0x2D84 JUMP JUMPDEST SWAP2 POP POP SWAP3 POP SWAP3 POP SWAP3 JUMP JUMPDEST PUSH0 PUSH0 PUSH1 0x40 DUP4 DUP6 SUB SLT ISZERO PUSH2 0x3421 JUMPI PUSH0 PUSH0 REVERT JUMPDEST DUP3 CALLDATALOAD PUSH1 0x1 PUSH1 0x1 PUSH1 0x40 SHL SUB DUP2 GT ISZERO PUSH2 0x3436 JUMPI PUSH0 PUSH0 REVERT JUMPDEST PUSH2 0x3442 DUP6 DUP3 DUP7 ADD PUSH2 0x2E2B JUMP JUMPDEST SWAP3 POP POP PUSH1 0x20 DUP4 ADD CALLDATALOAD PUSH1 0x1 PUSH1 0x1 PUSH1 0x40 SHL SUB DUP2 GT ISZERO PUSH2 0x345D JUMPI PUSH0 PUSH0 REVERT JUMPDEST PUSH2 0x2EE9 DUP6 DUP3 DUP7 ADD PUSH2 0x3234 JUMP JUMPDEST PUSH1 0x20 DUP1 DUP3 MSTORE DUP3 MLOAD DUP3 DUP3 ADD DUP2 SWAP1 MSTORE PUSH0 SWAP2 DUP5 ADD SWAP1 PUSH1 0x40 DUP5 ADD SWAP1 DUP4 JUMPDEST DUP2 DUP2 LT ISZERO PUSH2 0x2FEF JUMPI DUP4 MLOAD DUP4 MSTORE PUSH1 0x20 SWAP4 DUP5 ADD SWAP4 SWAP1 SWAP3 ADD SWAP2 PUSH1 0x1 ADD PUSH2 0x3482 JUMP JUMPDEST PUSH0 PUSH0 PUSH0 PUSH1 0x60 DUP5 DUP7 SUB SLT ISZERO PUSH2 0x34B2 JUMPI PUSH0 PUSH0 REVERT JUMPDEST DUP4 CALLDATALOAD PUSH1 0x1 PUSH1 0x1 PUSH1 0x40 SHL SUB DUP2 GT ISZERO PUSH2 0x34C7 JUMPI PUSH0 PUSH0 REVERT JUMPDEST PUSH2 0x34D3 DUP7 DUP3 DUP8 ADD PUSH2 0x2E2B JUMP JUMPDEST SWAP4 POP POP PUSH1 0x20 DUP5 ADD CALLDATALOAD PUSH1 0x1 PUSH1 0x1 PUSH1 0x40 SHL SUB DUP2 GT ISZERO PUSH2 0x34EE JUMPI PUSH0 PUSH0 REVERT JUMPDEST PUSH2 0x34FA DUP7 DUP3 DUP8 ADD PUSH2 0x2E2B JUMP JUMPDEST SWAP3 POP POP PUSH1 0x40 DUP5 ADD CALLDATALOAD PUSH1 0x1 PUSH1 0x1 PUSH1 0x40 SHL SUB DUP2 GT ISZERO PUSH2 0x3515 JUMPI PUSH0 PUSH0 REVERT JUMPDEST PUSH2 0x3406 DUP7 DUP3 DUP8 ADD PUSH2 0x3234 JUMP JUMPDEST PUSH0 PUSH0 PUSH0 PUSH1 0x60 DUP5 DUP7 SUB SLT ISZERO PUSH2 0x3533 JUMPI PUSH0 PUSH0 REVERT JUMPDEST DUP4 CALLDATALOAD SWAP3 POP PUSH1 0x20 DUP5 ADD CALLDATALOAD SWAP2 POP PUSH1 0x40 DUP5 ADD CALLDATALOAD PUSH1 0x1 PUSH1 0x1 PUSH1 0x40 SHL SUB DUP2 GT ISZERO PUSH2 0x33FA JUMPI PUSH0 PUSH0 REVERT JUMPDEST PUSH0 PUSH0 PUSH0 PUSH0 PUSH1 0x80 DUP6 DUP8 SUB SLT ISZERO PUSH2 0x3569 JUMPI PUSH0 PUSH0 REVERT JUMPDEST DUP5 CALLDATALOAD PUSH2 0x3574 DUP2 PUSH2 0x2F56 JUMP JUMPDEST SWAP4 POP PUSH1 0x20 DUP6 ADD CALLDATALOAD SWAP3 POP PUSH2 0x3589 PUSH1 0x40 DUP7 ADD PUSH2 0x3036 JUMP JUMPDEST SWAP2 POP PUSH1 0x60 DUP6 ADD CALLDATALOAD PUSH1 0x1 PUSH1 0x1 PUSH1 0x40 SHL SUB DUP2 GT ISZERO PUSH2 0x35A3 JUMPI PUSH0 PUSH0 REVERT JUMPDEST PUSH2 0x35AF DUP8 DUP3 DUP9 ADD PUSH2 0x2D84 JUMP JUMPDEST SWAP2 POP POP SWAP3 SWAP6 SWAP2 SWAP5 POP SWAP3 POP JUMP JUMPDEST PUSH0 PUSH1 0x20 DUP3 DUP5 SUB SLT ISZERO PUSH2 0x35CB JUMPI PUSH0 PUSH0 REVERT JUMPDEST DUP2 CALLDATALOAD PUSH1 0x1 PUSH1 0x1 PUSH1 0x40 SHL SUB DUP2 GT ISZERO PUSH2 0x35E0 JUMPI PUSH0 PUSH0 REVERT JUMPDEST PUSH2 0x264D DUP5 DUP3 DUP6 ADD PUSH2 0x2E2B JUMP JUMPDEST DUP4 DUP6 DUP3 CALLDATACOPY PUSH1 0x60 SWAP3 SWAP1 SWAP3 SHL PUSH1 0x1 PUSH1 0x1 PUSH1 0x60 SHL SUB NOT AND SWAP2 SWAP1 SWAP3 ADD SWAP1 DUP2 MSTORE PUSH1 0x14 DUP2 ADD SWAP2 SWAP1 SWAP2 MSTORE PUSH1 0x34 ADD SWAP2 SWAP1 POP JUMP JUMPDEST PUSH0 DUP2 MLOAD DUP1 PUSH1 0x20 DUP5 ADD DUP6 MCOPY PUSH0 SWAP4 ADD SWAP3 DUP4 MSTORE POP SWAP1 SWAP2 SWAP1 POP JUMP JUMPDEST PUSH0 PUSH2 0xAD0 DUP3 DUP5 PUSH2 0x3617 JUMP JUMPDEST PUSH4 0x4E487B71 PUSH1 0xE0 SHL PUSH0 MSTORE PUSH1 0x11 PUSH1 0x4 MSTORE PUSH1 0x24 PUSH0 REVERT JUMPDEST PUSH1 0xFF DUP3 DUP2 AND DUP3 DUP3 AND SUB SWAP1 DUP2 GT ISZERO PUSH2 0xA29 JUMPI PUSH2 0xA29 PUSH2 0x3639 JUMP JUMPDEST PUSH1 0xFF DUP2 DUP2 AND DUP4 DUP3 AND ADD SWAP1 DUP2 GT ISZERO PUSH2 0xA29 JUMPI PUSH2 0xA29 PUSH2 0x3639 JUMP JUMPDEST PUSH4 0x4E487B71 PUSH1 0xE0 SHL PUSH0 MSTORE PUSH1 0x32 PUSH1 0x4 MSTORE PUSH1 0x24 PUSH0 REVERT JUMPDEST PUSH1 0x40 DUP2 MSTORE PUSH0 PUSH2 0x36A5 PUSH1 0x40 DUP4 ADD DUP6 PUSH2 0x2CDA JUMP JUMPDEST SWAP1 POP PUSH1 0x1 DUP1 PUSH1 0xA0 SHL SUB DUP4 AND PUSH1 0x20 DUP4 ADD MSTORE SWAP4 SWAP3 POP POP POP JUMP JUMPDEST PUSH0 PUSH0 DUP4 CALLDATALOAD PUSH1 0x1E NOT DUP5 CALLDATASIZE SUB ADD DUP2 SLT PUSH2 0x36D1 JUMPI PUSH0 PUSH0 REVERT JUMPDEST DUP4 ADD DUP1 CALLDATALOAD SWAP2 POP PUSH1 0x1 PUSH1 0x1 PUSH1 0x40 SHL SUB DUP3 GT ISZERO PUSH2 0x36EA JUMPI PUSH0 PUSH0 REVERT JUMPDEST PUSH1 0x20 ADD SWAP2 POP CALLDATASIZE DUP2 SWAP1 SUB DUP3 SGT ISZERO PUSH2 0x36FE JUMPI PUSH0 PUSH0 REVERT JUMPDEST SWAP3 POP SWAP3 SWAP1 POP JUMP JUMPDEST DUP2 DUP4 DUP3 CALLDATACOPY PUSH0 SWAP2 ADD SWAP1 DUP2 MSTORE SWAP2 SWAP1 POP JUMP JUMPDEST PUSH4 0x4E487B71 PUSH1 0xE0 SHL PUSH0 MSTORE PUSH1 0x1 PUSH1 0x4 MSTORE PUSH1 0x24 PUSH0 REVERT JUMPDEST PUSH1 0x1 DUP1 PUSH1 0xA0 SHL SUB DUP6 AND DUP2 MSTORE DUP4 PUSH1 0x20 DUP3 ADD MSTORE DUP3 ISZERO ISZERO PUSH1 0x40 DUP3 ADD MSTORE PUSH1 0x80 PUSH1 0x60 DUP3 ADD MSTORE PUSH0 PUSH2 0x3756 PUSH1 0x80 DUP4 ADD DUP5 PUSH2 0x2CDA JUMP JUMPDEST SWAP7 SWAP6 POP POP POP POP POP POP JUMP JUMPDEST PUSH32 0x646174613A6170706C69636174696F6E2F6A736F6E3B6261736536342C000000 DUP2 MSTORE PUSH0 PUSH2 0xAD0 PUSH1 0x1D DUP4 ADD DUP5 PUSH2 0x3617 JUMP JUMPDEST PUSH6 0x379ABE35001 PUSH1 0xC5 SHL DUP2 MSTORE PUSH1 0x8 DUP2 ADD DUP4 SWAP1 MSTORE PUSH0 PUSH2 0x264D PUSH1 0x28 DUP4 ADD DUP5 PUSH2 0x3617 JUMP JUMPDEST DUP1 MLOAD PUSH1 0x20 DUP3 ADD MLOAD PUSH1 0x1 PUSH1 0x1 PUSH1 0x60 SHL SUB NOT DUP2 AND SWAP2 SWAP1 PUSH1 0x14 DUP3 LT ISZERO PUSH2 0x37F9 JUMPI PUSH12 0xFFFFFFFFFFFFFFFFFFFFFFFF NOT PUSH12 0xFFFFFFFFFFFFFFFFFFFFFFFF NOT DUP4 PUSH1 0x14 SUB PUSH1 0x3 SHL SHL DUP3 AND AND SWAP3 POP JUMPDEST POP POP SWAP2 SWAP1 POP JUMP JUMPDEST PUSH1 0x1 DUP2 DUP2 SHR SWAP1 DUP3 AND DUP1 PUSH2 0x3814 JUMPI PUSH1 0x7F DUP3 AND SWAP2 POP JUMPDEST PUSH1 0x20 DUP3 LT DUP2 SUB PUSH2 0x19B3 JUMPI PUSH4 0x4E487B71 PUSH1 0xE0 SHL PUSH0 MSTORE PUSH1 0x22 PUSH1 0x4 MSTORE PUSH1 0x24 PUSH0 REVERT JUMPDEST PUSH1 0x20 DUP2 MSTORE PUSH0 PUSH0 DUP4 SLOAD PUSH2 0x3843 DUP2 PUSH2 0x3800 JUMP JUMPDEST DUP1 PUSH1 0x20 DUP7 ADD MSTORE PUSH1 0x1 DUP3 AND PUSH0 DUP2 EQ PUSH2 0x3861 JUMPI PUSH1 0x1 DUP2 EQ PUSH2 0x387D JUMPI PUSH2 0x2558 JUMP JUMPDEST PUSH1 0xFF NOT DUP4 AND PUSH1 0x40 DUP8 ADD MSTORE PUSH1 0x40 DUP3 ISZERO ISZERO PUSH1 0x5 SHL DUP8 ADD ADD SWAP4 POP PUSH2 0x2558 JUMP JUMPDEST DUP7 PUSH0 MSTORE PUSH1 0x20 PUSH0 KECCAK256 PUSH0 JUMPDEST DUP4 DUP2 LT ISZERO PUSH2 0x38A5 JUMPI DUP2 SLOAD DUP9 DUP3 ADD PUSH1 0x40 ADD MSTORE PUSH1 0x1 SWAP1 SWAP2 ADD SWAP1 PUSH1 0x20 ADD PUSH2 0x3886 JUMP JUMPDEST DUP8 ADD PUSH1 0x40 ADD SWAP5 POP POP POP SWAP2 SWAP6 SWAP5 POP POP POP POP POP JUMP JUMPDEST PUSH0 PUSH1 0x1 DUP3 ADD PUSH2 0x38C9 JUMPI PUSH2 0x38C9 PUSH2 0x3639 JUMP JUMPDEST POP PUSH1 0x1 ADD SWAP1 JUMP JUMPDEST PUSH1 0x1 PUSH1 0x1 PUSH1 0xA0 SHL SUB DUP5 AND DUP2 MSTORE DUP3 ISZERO ISZERO PUSH1 0x20 DUP3 ADD MSTORE PUSH1 0x60 PUSH1 0x40 DUP3 ADD DUP2 SWAP1 MSTORE PUSH0 SWAP1 PUSH2 0x38FB SWAP1 DUP4 ADD DUP5 PUSH2 0x2CDA JUMP JUMPDEST SWAP6 SWAP5 POP POP POP POP POP JUMP JUMPDEST PUSH1 0x1 PUSH1 0x1 PUSH1 0xA0 SHL SUB DUP7 DUP2 AND DUP3 MSTORE DUP6 DUP2 AND PUSH1 0x20 DUP4 ADD MSTORE DUP5 AND PUSH1 0x40 DUP3 ADD MSTORE PUSH1 0x60 DUP2 ADD DUP4 SWAP1 MSTORE PUSH1 0xA0 PUSH1 0x80 DUP3 ADD DUP2 SWAP1 MSTORE PUSH0 SWAP1 PUSH2 0x2704 SWAP1 DUP4 ADD DUP5 PUSH2 0x2CDA JUMP JUMPDEST PUSH1 0x1F DUP3 GT ISZERO PUSH2 0xFE5 JUMPI DUP1 PUSH0 MSTORE PUSH1 0x20 PUSH0 KECCAK256 PUSH1 0x1F DUP5 ADD PUSH1 0x5 SHR DUP2 ADD PUSH1 0x20 DUP6 LT ISZERO PUSH2 0x3963 JUMPI POP DUP1 JUMPDEST PUSH1 0x1F DUP5 ADD PUSH1 0x5 SHR DUP3 ADD SWAP2 POP JUMPDEST DUP2 DUP2 LT ISZERO PUSH2 0xF43 JUMPI PUSH0 DUP2 SSTORE PUSH1 0x1 ADD PUSH2 0x396F JUMP JUMPDEST DUP2 MLOAD PUSH1 0x1 PUSH1 0x1 PUSH1 0x40 SHL SUB DUP2 GT ISZERO PUSH2 0x399B JUMPI PUSH2 0x399B PUSH2 0x2D1A JUMP JUMPDEST PUSH2 0x39AF DUP2 PUSH2 0x39A9 DUP5 SLOAD PUSH2 0x3800 JUMP JUMPDEST DUP5 PUSH2 0x393E JUMP JUMPDEST PUSH1 0x20 PUSH1 0x1F DUP3 GT PUSH1 0x1 DUP2 EQ PUSH2 0x39E1 JUMPI PUSH0 DUP4 ISZERO PUSH2 0x39CA JUMPI POP DUP5 DUP3 ADD MLOAD JUMPDEST PUSH0 NOT PUSH1 0x3 DUP6 SWAP1 SHL SHR NOT AND PUSH1 0x1 DUP5 SWAP1 SHL OR DUP5 SSTORE PUSH2 0xF43 JUMP JUMPDEST PUSH0 DUP5 DUP2 MSTORE PUSH1 0x20 DUP2 KECCAK256 PUSH1 0x1F NOT DUP6 AND SWAP2 JUMPDEST DUP3 DUP2 LT ISZERO PUSH2 0x3A10 JUMPI DUP8 DUP6 ADD MLOAD DUP3 SSTORE PUSH1 0x20 SWAP5 DUP6 ADD SWAP5 PUSH1 0x1 SWAP1 SWAP3 ADD SWAP2 ADD PUSH2 0x39F0 JUMP JUMPDEST POP DUP5 DUP3 LT ISZERO PUSH2 0x3A2D JUMPI DUP7 DUP5 ADD MLOAD PUSH0 NOT PUSH1 0x3 DUP8 SWAP1 SHL PUSH1 0xF8 AND SHR NOT AND DUP2 SSTORE JUMPDEST POP POP POP POP PUSH1 0x1 SWAP1 DUP2 SHL ADD SWAP1 SSTORE POP JUMP JUMPDEST DUP1 DUP3 ADD DUP1 DUP3 GT ISZERO PUSH2 0xA29 JUMPI PUSH2 0xA29 PUSH2 0x3639 JUMP JUMPDEST PUSH0 DUP3 PUSH2 0x3A69 JUMPI PUSH4 0x4E487B71 PUSH1 0xE0 SHL PUSH0 MSTORE PUSH1 0x12 PUSH1 0x4 MSTORE PUSH1 0x24 PUSH0 REVERT JUMPDEST POP DIV SWAP1 JUMP JUMPDEST DUP1 DUP3 MUL DUP2 ISZERO DUP3 DUP3 DIV DUP5 EQ OR PUSH2 0xA29 JUMPI PUSH2 0xA29 PUSH2 0x3639 JUMP JUMPDEST DUP3 ISZERO ISZERO DUP2 MSTORE PUSH1 0x40 PUSH1 0x20 DUP3 ADD MSTORE PUSH0 PUSH2 0x264D PUSH1 0x40 DUP4 ADD DUP5 PUSH2 0x2CDA JUMP JUMPDEST DUP1 MLOAD PUSH1 0x20 DUP1 DUP4 ADD MLOAD SWAP2 SWAP1 DUP2 LT ISZERO PUSH2 0x19B3 JUMPI PUSH0 NOT PUSH1 0x20 SWAP2 SWAP1 SWAP2 SUB PUSH1 0x3 SHL SHL AND SWAP2 SWAP1 POP JUMP JUMPDEST DUP3 DUP2 MSTORE PUSH1 0x40 PUSH1 0x20 DUP3 ADD MSTORE PUSH0 PUSH2 0x264D PUSH1 0x40 DUP4 ADD DUP5 PUSH2 0x2CDA JUMP JUMPDEST PUSH0 PUSH1 0x20 DUP3 DUP5 SUB SLT ISZERO PUSH2 0x3AEA JUMPI PUSH0 PUSH0 REVERT JUMPDEST DUP2 MLOAD PUSH1 0x1 PUSH1 0x1 PUSH1 0x40 SHL SUB DUP2 GT ISZERO PUSH2 0x3AFF JUMPI PUSH0 PUSH0 REVERT JUMPDEST DUP3 ADD PUSH1 0x1F DUP2 ADD DUP5 SGT PUSH2 0x3B0F JUMPI PUSH0 PUSH0 REVERT JUMPDEST DUP1 MLOAD PUSH2 0x3B1D PUSH2 0x2DA6 DUP3 PUSH2 0x2D5E JUMP JUMPDEST DUP2 DUP2 MSTORE DUP6 PUSH1 0x20 DUP4 DUP6 ADD ADD GT ISZERO PUSH2 0x3B31 JUMPI PUSH0 PUSH0 REVERT JUMPDEST DUP2 PUSH1 0x20 DUP5 ADD PUSH1 0x20 DUP4 ADD MCOPY PUSH0 SWAP2 DUP2 ADD PUSH1 0x20 ADD SWAP2 SWAP1 SWAP2 MSTORE SWAP5 SWAP4 POP POP POP POP JUMP JUMPDEST DUP2 DUP2 SUB DUP2 DUP2 GT ISZERO PUSH2 0xA29 JUMPI PUSH2 0xA29 PUSH2 0x3639 JUMP JUMPDEST PUSH4 0x4E487B71 PUSH1 0xE0 SHL PUSH0 MSTORE PUSH1 0x31 PUSH1 0x4 MSTORE PUSH1 0x24 PUSH0 REVERT INVALID COINBASE TIMESTAMP NUMBER PREVRANDAO GASLIMIT CHAINID SELFBALANCE BASEFEE BLOBHASH BLOBBASEFEE 0x4B 0x4C 0x4D 0x4E 0x4F POP MLOAD MSTORE MSTORE8 SLOAD SSTORE JUMP JUMPI PC MSIZE GAS PUSH2 0x6263 PUSH5 0x6566676869 PUSH11 0x6B6C6D6E6F707172737475 PUSH23 0x7778797A303132333435363738392B2FA2646970667358 0x22 SLT KECCAK256 SWAP3 0xE5 BLOCKHASH MLOAD PUSH11 0x4EB0B7FE170936F241D652 PUSH1 0x1E 0xE4 0xF PUSH19 0x74186CFF77BD1DD9A2809564736F6C63430008 SHR STOP CALLER "
		},
		"gasEstimates": {
			"creation": {
				"codeDepositCost": "3067800",
				"executionCost": "infinite",
				"totalCost": "infinite"
			},
			"external": {
				"": "infinite",
				"LIMIT()": "248",
				"MAXSUPPLY()": "262",
				"VERSION()": "infinite",
				"_swipeCounter()": "2408",
				"_tokenIdCounter()": "2453",
				"authorizeOperator(address,bytes32,bytes)": "infinite",
				"balanceOf(address)": "infinite",
				"batchCalls(bytes[])": "infinite",
				"getBalance()": "2499",
				"getData(bytes32)": "infinite",
				"getDataBatch(bytes32[])": "infinite",
				"getDataBatchForTokenIds(bytes32[],bytes32[])": "infinite",
				"getDataForTokenId(bytes32,bytes32)": "infinite",
				"getMetadata(string)": "infinite",
				"getOperatorsOf(bytes32)": "infinite",
				"getWhitelist(address)": "2655",
				"handleMint(string)": "infinite",
				"handleSwipe(bytes32,string)": "infinite",
				"isOperatorFor(address,bytes32)": "infinite",
				"mintPool(address)": "2613",
				"mintPrice()": "2361",
				"owner()": "2396",
				"pause()": "infinite",
				"paused()": "2448",
				"renounceOwnership()": "infinite",
				"revokeOperator(address,bytes32,bool,bytes)": "infinite",
				"setData(bytes32,bytes)": "infinite",
				"setDataBatch(bytes32[],bytes[])": "infinite",
				"setDataBatchForTokenIds(bytes32[],bytes32[],bytes[])": "infinite",
				"setDataForTokenId(bytes32,bytes32,bytes)": "infinite",
				"supportsInterface(bytes4)": "infinite",
				"swipePool(bytes32)": "2582",
				"swipePrice()": "2361",
				"team(string)": "infinite",
				"tokenIdsOf(address)": "infinite",
				"tokenOwnerOf(bytes32)": "2578",
				"totalSupply()": "2426",
				"transfer(address,address,bytes32,bool,bytes)": "infinite",
				"transferBalance(address,uint256)": "infinite",
				"transferBatch(address[],address[],bytes32[],bool[],bytes[])": "infinite",
				"transferOwnership(address)": "infinite",
				"unpause()": "infinite",
				"updateMintPrice(uint256)": "25928",
				"updateSwipePrice(uint256)": "26048",
				"updateTeam(string,address)": "infinite",
				"updateWhitelist(address,uint8)": "26951",
				"whitelist(address)": "2636",
				"withdraw()": "infinite"
			},
			"internal": {
				"calcPercentage(uint256,uint256)": "infinite",
				"transferFund(uint256)": "infinite"
			}
		},
		"methodIdentifiers": {
			"LIMIT()": "af8214ef",
			"MAXSUPPLY()": "758b4e86",
			"VERSION()": "ffa1ad74",
			"_swipeCounter()": "cc40ea01",
			"_tokenIdCounter()": "84c4bd4b",
			"authorizeOperator(address,bytes32,bytes)": "86a10ddd",
			"balanceOf(address)": "70a08231",
			"batchCalls(bytes[])": "6963d438",
			"getBalance()": "12065fe0",
			"getData(bytes32)": "54f6127f",
			"getDataBatch(bytes32[])": "dedff9c6",
			"getDataBatchForTokenIds(bytes32[],bytes32[])": "1d26fce6",
			"getDataForTokenId(bytes32,bytes32)": "16e023b3",
			"getMetadata(string)": "d11a1f07",
			"getOperatorsOf(bytes32)": "49a6078d",
			"getWhitelist(address)": "30edc0f5",
			"handleMint(string)": "1b659657",
			"handleSwipe(bytes32,string)": "9c1d1883",
			"isOperatorFor(address,bytes32)": "2a3654a4",
			"mintPool(address)": "df43a36f",
			"mintPrice()": "6817c76c",
			"owner()": "8da5cb5b",
			"pause()": "8456cb59",
			"paused()": "5c975abb",
			"renounceOwnership()": "715018a6",
			"revokeOperator(address,bytes32,bool,bytes)": "db8c9663",
			"setData(bytes32,bytes)": "7f23690c",
			"setDataBatch(bytes32[],bytes[])": "97902421",
			"setDataBatchForTokenIds(bytes32[],bytes32[],bytes[])": "be9f0e6f",
			"setDataForTokenId(bytes32,bytes32,bytes)": "d6c1407c",
			"supportsInterface(bytes4)": "01ffc9a7",
			"swipePool(bytes32)": "fc7a9f30",
			"swipePrice()": "b47d510b",
			"team(string)": "6aca0b5f",
			"tokenIdsOf(address)": "a3b261f2",
			"tokenOwnerOf(bytes32)": "217b2270",
			"totalSupply()": "18160ddd",
			"transfer(address,address,bytes32,bool,bytes)": "511b6952",
			"transferBalance(address,uint256)": "56a6d9ef",
			"transferBatch(address[],address[],bytes32[],bool[],bytes[])": "7e87632c",
			"transferOwnership(address)": "f2fde38b",
			"unpause()": "3f4ba83a",
			"updateMintPrice(uint256)": "00728e46",
			"updateSwipePrice(uint256)": "6af5842e",
			"updateTeam(string,address)": "626aad6b",
			"updateWhitelist(address,uint8)": "4d399cb3",
			"whitelist(address)": "9b19251a",
			"withdraw()": "3ccfd60b"
		}
	},
	"abi": [
		{
			"inputs": [],
			"stateMutability": "nonpayable",
			"type": "constructor"
		},
		{
			"inputs": [],
			"name": "ERC725Y_DataKeysValuesEmptyArray",
			"type": "error"
		},
		{
			"inputs": [],
			"name": "ERC725Y_DataKeysValuesLengthMismatch",
			"type": "error"
		},
		{
			"inputs": [],
			"name": "ERC725Y_MsgValueDisallowed",
			"type": "error"
		},
		{
			"inputs": [],
			"name": "EnforcedPause",
			"type": "error"
		},
		{
			"inputs": [],
			"name": "ExpectedPause",
			"type": "error"
		},
		{
			"inputs": [
				{
					"internalType": "uint256",
					"name": "",
					"type": "uint256"
				}
			],
			"name": "InsufficientBalance",
			"type": "error"
		},
		{
			"inputs": [
				{
					"internalType": "bytes",
					"name": "storedData",
					"type": "bytes"
				}
			],
			"name": "InvalidExtensionAddress",
			"type": "error"
		},
		{
			"inputs": [
				{
					"internalType": "bytes",
					"name": "data",
					"type": "bytes"
				}
			],
			"name": "InvalidFunctionSelector",
			"type": "error"
		},
		{
			"inputs": [],
			"name": "LSP4TokenNameNotEditable",
			"type": "error"
		},
		{
			"inputs": [],
			"name": "LSP4TokenSymbolNotEditable",
			"type": "error"
		},
		{
			"inputs": [],
			"name": "LSP4TokenTypeNotEditable",
			"type": "error"
		},
		{
			"inputs": [
				{
					"internalType": "uint256",
					"name": "callIndex",
					"type": "uint256"
				}
			],
			"name": "LSP8BatchCallFailed",
			"type": "error"
		},
		{
			"inputs": [],
			"name": "LSP8CannotSendToAddressZero",
			"type": "error"
		},
		{
			"inputs": [],
			"name": "LSP8CannotUseAddressZeroAsOperator",
			"type": "error"
		},
		{
			"inputs": [],
			"name": "LSP8InvalidTransferBatch",
			"type": "error"
		},
		{
			"inputs": [
				{
					"internalType": "bytes32",
					"name": "tokenId",
					"type": "bytes32"
				}
			],
			"name": "LSP8NonExistentTokenId",
			"type": "error"
		},
		{
			"inputs": [
				{
					"internalType": "address",
					"name": "operator",
					"type": "address"
				},
				{
					"internalType": "bytes32",
					"name": "tokenId",
					"type": "bytes32"
				}
			],
			"name": "LSP8NonExistingOperator",
			"type": "error"
		},
		{
			"inputs": [
				{
					"internalType": "bytes32",
					"name": "tokenId",
					"type": "bytes32"
				},
				{
					"internalType": "address",
					"name": "caller",
					"type": "address"
				}
			],
			"name": "LSP8NotTokenOperator",
			"type": "error"
		},
		{
			"inputs": [
				{
					"internalType": "address",
					"name": "tokenOwner",
					"type": "address"
				},
				{
					"internalType": "bytes32",
					"name": "tokenId",
					"type": "bytes32"
				},
				{
					"internalType": "address",
					"name": "caller",
					"type": "address"
				}
			],
			"name": "LSP8NotTokenOwner",
			"type": "error"
		},
		{
			"inputs": [
				{
					"internalType": "address",
					"name": "tokenReceiver",
					"type": "address"
				}
			],
			"name": "LSP8NotifyTokenReceiverContractMissingLSP1Interface",
			"type": "error"
		},
		{
			"inputs": [
				{
					"internalType": "address",
					"name": "tokenReceiver",
					"type": "address"
				}
			],
			"name": "LSP8NotifyTokenReceiverIsEOA",
			"type": "error"
		},
		{
			"inputs": [
				{
					"internalType": "address",
					"name": "operator",
					"type": "address"
				},
				{
					"internalType": "bytes32",
					"name": "tokenId",
					"type": "bytes32"
				}
			],
			"name": "LSP8OperatorAlreadyAuthorized",
			"type": "error"
		},
		{
			"inputs": [
				{
					"internalType": "address",
					"name": "caller",
					"type": "address"
				},
				{
					"internalType": "address",
					"name": "tokenOwner",
					"type": "address"
				},
				{
					"internalType": "bytes32",
					"name": "tokenId",
					"type": "bytes32"
				}
			],
			"name": "LSP8RevokeOperatorNotAuthorized",
			"type": "error"
		},
		{
			"inputs": [],
			"name": "LSP8TokenContractCannotHoldValue",
			"type": "error"
		},
		{
			"inputs": [
				{
					"internalType": "bytes32",
					"name": "tokenId",
					"type": "bytes32"
				}
			],
			"name": "LSP8TokenIdAlreadyMinted",
			"type": "error"
		},
		{
			"inputs": [],
			"name": "LSP8TokenIdFormatNotEditable",
			"type": "error"
		},
		{
			"inputs": [],
			"name": "LSP8TokenIdsDataEmptyArray",
			"type": "error"
		},
		{
			"inputs": [],
			"name": "LSP8TokenIdsDataLengthMismatch",
			"type": "error"
		},
		{
			"inputs": [],
			"name": "LSP8TokenOwnerCannotBeOperator",
			"type": "error"
		},
		{
			"inputs": [
				{
					"internalType": "bytes32",
					"name": "tokenId",
					"type": "bytes32"
				},
				{
					"internalType": "address",
					"name": "oldOwner",
					"type": "address"
				},
				{
					"internalType": "address",
					"name": "newOwner",
					"type": "address"
				}
			],
			"name": "LSP8TokenOwnerChanged",
			"type": "error"
		},
		{
			"inputs": [
				{
					"internalType": "bytes4",
					"name": "functionSelector",
					"type": "bytes4"
				}
			],
			"name": "NoExtensionFoundForFunctionSelector",
			"type": "error"
		},
		{
			"inputs": [
				{
					"internalType": "address",
					"name": "callerAddress",
					"type": "address"
				}
			],
			"name": "OwnableCallerNotTheOwner",
			"type": "error"
		},
		{
			"inputs": [],
			"name": "OwnableCannotSetZeroAddressAsOwner",
			"type": "error"
		},
		{
			"anonymous": false,
			"inputs": [
				{
					"indexed": true,
					"internalType": "bytes32",
					"name": "dataKey",
					"type": "bytes32"
				},
				{
					"indexed": false,
					"internalType": "bytes",
					"name": "dataValue",
					"type": "bytes"
				}
			],
			"name": "DataChanged",
			"type": "event"
		},
		{
			"anonymous": false,
			"inputs": [
				{
					"indexed": false,
					"internalType": "uint256",
					"name": "price",
					"type": "uint256"
				},
				{
					"indexed": false,
					"internalType": "address",
					"name": "owner",
					"type": "address"
				}
			],
			"name": "MintPriceUpdated",
			"type": "event"
		},
		{
			"anonymous": false,
			"inputs": [
				{
					"indexed": true,
					"internalType": "address",
					"name": "operator",
					"type": "address"
				},
				{
					"indexed": true,
					"internalType": "address",
					"name": "tokenOwner",
					"type": "address"
				},
				{
					"indexed": true,
					"internalType": "bytes32",
					"name": "tokenId",
					"type": "bytes32"
				},
				{
					"indexed": false,
					"internalType": "bytes",
					"name": "operatorNotificationData",
					"type": "bytes"
				}
			],
			"name": "OperatorAuthorizationChanged",
			"type": "event"
		},
		{
			"anonymous": false,
			"inputs": [
				{
					"indexed": true,
					"internalType": "address",
					"name": "operator",
					"type": "address"
				},
				{
					"indexed": true,
					"internalType": "address",
					"name": "tokenOwner",
					"type": "address"
				},
				{
					"indexed": true,
					"internalType": "bytes32",
					"name": "tokenId",
					"type": "bytes32"
				},
				{
					"indexed": false,
					"internalType": "bool",
					"name": "notified",
					"type": "bool"
				},
				{
					"indexed": false,
					"internalType": "bytes",
					"name": "operatorNotificationData",
					"type": "bytes"
				}
			],
			"name": "OperatorRevoked",
			"type": "event"
		},
		{
			"anonymous": false,
			"inputs": [
				{
					"indexed": true,
					"internalType": "address",
					"name": "previousOwner",
					"type": "address"
				},
				{
					"indexed": true,
					"internalType": "address",
					"name": "newOwner",
					"type": "address"
				}
			],
			"name": "OwnershipTransferred",
			"type": "event"
		},
		{
			"anonymous": false,
			"inputs": [
				{
					"indexed": false,
					"internalType": "address",
					"name": "account",
					"type": "address"
				}
			],
			"name": "Paused",
			"type": "event"
		},
		{
			"anonymous": false,
			"inputs": [
				{
					"indexed": false,
					"internalType": "uint256",
					"name": "price",
					"type": "uint256"
				},
				{
					"indexed": false,
					"internalType": "address",
					"name": "owner",
					"type": "address"
				}
			],
			"name": "SwipePriceUpdated",
			"type": "event"
		},
		{
			"anonymous": false,
			"inputs": [
				{
					"indexed": false,
					"internalType": "string",
					"name": "key",
					"type": "string"
				},
				{
					"indexed": false,
					"internalType": "address",
					"name": "addr",
					"type": "address"
				}
			],
			"name": "TeamUpdated",
			"type": "event"
		},
		{
			"anonymous": false,
			"inputs": [
				{
					"indexed": true,
					"internalType": "bytes32",
					"name": "tokenId",
					"type": "bytes32"
				},
				{
					"indexed": true,
					"internalType": "bytes32",
					"name": "dataKey",
					"type": "bytes32"
				},
				{
					"indexed": false,
					"internalType": "bytes",
					"name": "dataValue",
					"type": "bytes"
				}
			],
			"name": "TokenIdDataChanged",
			"type": "event"
		},
		{
			"anonymous": false,
			"inputs": [
				{
					"indexed": false,
					"internalType": "address",
					"name": "operator",
					"type": "address"
				},
				{
					"indexed": true,
					"internalType": "address",
					"name": "from",
					"type": "address"
				},
				{
					"indexed": true,
					"internalType": "address",
					"name": "to",
					"type": "address"
				},
				{
					"indexed": true,
					"internalType": "bytes32",
					"name": "tokenId",
					"type": "bytes32"
				},
				{
					"indexed": false,
					"internalType": "bool",
					"name": "force",
					"type": "bool"
				},
				{
					"indexed": false,
					"internalType": "bytes",
					"name": "data",
					"type": "bytes"
				}
			],
			"name": "Transfer",
			"type": "event"
		},
		{
			"anonymous": false,
			"inputs": [
				{
					"indexed": false,
					"internalType": "address",
					"name": "account",
					"type": "address"
				}
			],
			"name": "Unpaused",
			"type": "event"
		},
		{
			"stateMutability": "payable",
			"type": "fallback"
		},
		{
			"inputs": [],
			"name": "LIMIT",
			"outputs": [
				{
					"internalType": "uint8",
					"name": "",
					"type": "uint8"
				}
			],
			"stateMutability": "view",
			"type": "function"
		},
		{
			"inputs": [],
			"name": "MAXSUPPLY",
			"outputs": [
				{
					"internalType": "uint256",
					"name": "",
					"type": "uint256"
				}
			],
			"stateMutability": "view",
			"type": "function"
		},
		{
			"inputs": [],
			"name": "VERSION",
			"outputs": [
				{
					"internalType": "string",
					"name": "",
					"type": "string"
				}
			],
			"stateMutability": "view",
			"type": "function"
		},
		{
			"inputs": [],
			"name": "_swipeCounter",
			"outputs": [
				{
					"internalType": "uint256",
					"name": "_value",
					"type": "uint256"
				}
			],
			"stateMutability": "view",
			"type": "function"
		},
		{
			"inputs": [],
			"name": "_tokenIdCounter",
			"outputs": [
				{
					"internalType": "uint256",
					"name": "_value",
					"type": "uint256"
				}
			],
			"stateMutability": "view",
			"type": "function"
		},
		{
			"inputs": [
				{
					"internalType": "address",
					"name": "operator",
					"type": "address"
				},
				{
					"internalType": "bytes32",
					"name": "tokenId",
					"type": "bytes32"
				},
				{
					"internalType": "bytes",
					"name": "operatorNotificationData",
					"type": "bytes"
				}
			],
			"name": "authorizeOperator",
			"outputs": [],
			"stateMutability": "nonpayable",
			"type": "function"
		},
		{
			"inputs": [
				{
					"internalType": "address",
					"name": "tokenOwner",
					"type": "address"
				}
			],
			"name": "balanceOf",
			"outputs": [
				{
					"internalType": "uint256",
					"name": "",
					"type": "uint256"
				}
			],
			"stateMutability": "view",
			"type": "function"
		},
		{
			"inputs": [
				{
					"internalType": "bytes[]",
					"name": "data",
					"type": "bytes[]"
				}
			],
			"name": "batchCalls",
			"outputs": [
				{
					"internalType": "bytes[]",
					"name": "results",
					"type": "bytes[]"
				}
			],
			"stateMutability": "nonpayable",
			"type": "function"
		},
		{
			"inputs": [],
			"name": "getBalance",
			"outputs": [
				{
					"internalType": "uint256",
					"name": "",
					"type": "uint256"
				}
			],
			"stateMutability": "view",
			"type": "function"
		},
		{
			"inputs": [
				{
					"internalType": "bytes32",
					"name": "dataKey",
					"type": "bytes32"
				}
			],
			"name": "getData",
			"outputs": [
				{
					"internalType": "bytes",
					"name": "dataValue",
					"type": "bytes"
				}
			],
			"stateMutability": "view",
			"type": "function"
		},
		{
			"inputs": [
				{
					"internalType": "bytes32[]",
					"name": "dataKeys",
					"type": "bytes32[]"
				}
			],
			"name": "getDataBatch",
			"outputs": [
				{
					"internalType": "bytes[]",
					"name": "dataValues",
					"type": "bytes[]"
				}
			],
			"stateMutability": "view",
			"type": "function"
		},
		{
			"inputs": [
				{
					"internalType": "bytes32[]",
					"name": "tokenIds",
					"type": "bytes32[]"
				},
				{
					"internalType": "bytes32[]",
					"name": "dataKeys",
					"type": "bytes32[]"
				}
			],
			"name": "getDataBatchForTokenIds",
			"outputs": [
				{
					"internalType": "bytes[]",
					"name": "dataValues",
					"type": "bytes[]"
				}
			],
			"stateMutability": "view",
			"type": "function"
		},
		{
			"inputs": [
				{
					"internalType": "bytes32",
					"name": "tokenId",
					"type": "bytes32"
				},
				{
					"internalType": "bytes32",
					"name": "dataKey",
					"type": "bytes32"
				}
			],
			"name": "getDataForTokenId",
			"outputs": [
				{
					"internalType": "bytes",
					"name": "dataValue",
					"type": "bytes"
				}
			],
			"stateMutability": "view",
			"type": "function"
		},
		{
			"inputs": [
				{
					"internalType": "string",
					"name": "metadata",
					"type": "string"
				}
			],
			"name": "getMetadata",
			"outputs": [
				{
					"internalType": "bytes",
					"name": "",
					"type": "bytes"
				}
			],
			"stateMutability": "pure",
			"type": "function"
		},
		{
			"inputs": [
				{
					"internalType": "bytes32",
					"name": "tokenId",
					"type": "bytes32"
				}
			],
			"name": "getOperatorsOf",
			"outputs": [
				{
					"internalType": "address[]",
					"name": "",
					"type": "address[]"
				}
			],
			"stateMutability": "view",
			"type": "function"
		},
		{
			"inputs": [
				{
					"internalType": "address",
					"name": "addr",
					"type": "address"
				}
			],
			"name": "getWhitelist",
			"outputs": [
				{
					"internalType": "uint8",
					"name": "",
					"type": "uint8"
				}
			],
			"stateMutability": "view",
			"type": "function"
		},
		{
			"inputs": [
				{
					"internalType": "string",
					"name": "metadata",
					"type": "string"
				}
			],
			"name": "handleMint",
			"outputs": [
				{
					"internalType": "bool",
					"name": "",
					"type": "bool"
				}
			],
			"stateMutability": "payable",
			"type": "function"
		},
		{
			"inputs": [
				{
					"internalType": "bytes32",
					"name": "tokenId",
					"type": "bytes32"
				},
				{
					"internalType": "string",
					"name": "metadata",
					"type": "string"
				}
			],
			"name": "handleSwipe",
			"outputs": [
				{
					"internalType": "bool",
					"name": "",
					"type": "bool"
				}
			],
			"stateMutability": "payable",
			"type": "function"
		},
		{
			"inputs": [
				{
					"internalType": "address",
					"name": "operator",
					"type": "address"
				},
				{
					"internalType": "bytes32",
					"name": "tokenId",
					"type": "bytes32"
				}
			],
			"name": "isOperatorFor",
			"outputs": [
				{
					"internalType": "bool",
					"name": "",
					"type": "bool"
				}
			],
			"stateMutability": "view",
			"type": "function"
		},
		{
			"inputs": [
				{
					"internalType": "address",
					"name": "",
					"type": "address"
				}
			],
			"name": "mintPool",
			"outputs": [
				{
					"internalType": "uint8",
					"name": "",
					"type": "uint8"
				}
			],
			"stateMutability": "view",
			"type": "function"
		},
		{
			"inputs": [],
			"name": "mintPrice",
			"outputs": [
				{
					"internalType": "uint256",
					"name": "",
					"type": "uint256"
				}
			],
			"stateMutability": "view",
			"type": "function"
		},
		{
			"inputs": [],
			"name": "owner",
			"outputs": [
				{
					"internalType": "address",
					"name": "",
					"type": "address"
				}
			],
			"stateMutability": "view",
			"type": "function"
		},
		{
			"inputs": [],
			"name": "pause",
			"outputs": [],
			"stateMutability": "nonpayable",
			"type": "function"
		},
		{
			"inputs": [],
			"name": "paused",
			"outputs": [
				{
					"internalType": "bool",
					"name": "",
					"type": "bool"
				}
			],
			"stateMutability": "view",
			"type": "function"
		},
		{
			"inputs": [],
			"name": "renounceOwnership",
			"outputs": [],
			"stateMutability": "nonpayable",
			"type": "function"
		},
		{
			"inputs": [
				{
					"internalType": "address",
					"name": "operator",
					"type": "address"
				},
				{
					"internalType": "bytes32",
					"name": "tokenId",
					"type": "bytes32"
				},
				{
					"internalType": "bool",
					"name": "notify",
					"type": "bool"
				},
				{
					"internalType": "bytes",
					"name": "operatorNotificationData",
					"type": "bytes"
				}
			],
			"name": "revokeOperator",
			"outputs": [],
			"stateMutability": "nonpayable",
			"type": "function"
		},
		{
			"inputs": [
				{
					"internalType": "bytes32",
					"name": "dataKey",
					"type": "bytes32"
				},
				{
					"internalType": "bytes",
					"name": "dataValue",
					"type": "bytes"
				}
			],
			"name": "setData",
			"outputs": [],
			"stateMutability": "payable",
			"type": "function"
		},
		{
			"inputs": [
				{
					"internalType": "bytes32[]",
					"name": "dataKeys",
					"type": "bytes32[]"
				},
				{
					"internalType": "bytes[]",
					"name": "dataValues",
					"type": "bytes[]"
				}
			],
			"name": "setDataBatch",
			"outputs": [],
			"stateMutability": "payable",
			"type": "function"
		},
		{
			"inputs": [
				{
					"internalType": "bytes32[]",
					"name": "tokenIds",
					"type": "bytes32[]"
				},
				{
					"internalType": "bytes32[]",
					"name": "dataKeys",
					"type": "bytes32[]"
				},
				{
					"internalType": "bytes[]",
					"name": "dataValues",
					"type": "bytes[]"
				}
			],
			"name": "setDataBatchForTokenIds",
			"outputs": [],
			"stateMutability": "nonpayable",
			"type": "function"
		},
		{
			"inputs": [
				{
					"internalType": "bytes32",
					"name": "tokenId",
					"type": "bytes32"
				},
				{
					"internalType": "bytes32",
					"name": "dataKey",
					"type": "bytes32"
				},
				{
					"internalType": "bytes",
					"name": "dataValue",
					"type": "bytes"
				}
			],
			"name": "setDataForTokenId",
			"outputs": [],
			"stateMutability": "nonpayable",
			"type": "function"
		},
		{
			"inputs": [
				{
					"internalType": "bytes4",
					"name": "interfaceId",
					"type": "bytes4"
				}
			],
			"name": "supportsInterface",
			"outputs": [
				{
					"internalType": "bool",
					"name": "",
					"type": "bool"
				}
			],
			"stateMutability": "view",
			"type": "function"
		},
		{
			"inputs": [
				{
					"internalType": "bytes32",
					"name": "",
					"type": "bytes32"
				}
			],
			"name": "swipePool",
			"outputs": [
				{
					"internalType": "uint8",
					"name": "",
					"type": "uint8"
				}
			],
			"stateMutability": "view",
			"type": "function"
		},
		{
			"inputs": [],
			"name": "swipePrice",
			"outputs": [
				{
					"internalType": "uint256",
					"name": "",
					"type": "uint256"
				}
			],
			"stateMutability": "view",
			"type": "function"
		},
		{
			"inputs": [
				{
					"internalType": "string",
					"name": "",
					"type": "string"
				}
			],
			"name": "team",
			"outputs": [
				{
					"internalType": "address",
					"name": "",
					"type": "address"
				}
			],
			"stateMutability": "view",
			"type": "function"
		},
		{
			"inputs": [
				{
					"internalType": "address",
					"name": "tokenOwner",
					"type": "address"
				}
			],
			"name": "tokenIdsOf",
			"outputs": [
				{
					"internalType": "bytes32[]",
					"name": "",
					"type": "bytes32[]"
				}
			],
			"stateMutability": "view",
			"type": "function"
		},
		{
			"inputs": [
				{
					"internalType": "bytes32",
					"name": "tokenId",
					"type": "bytes32"
				}
			],
			"name": "tokenOwnerOf",
			"outputs": [
				{
					"internalType": "address",
					"name": "",
					"type": "address"
				}
			],
			"stateMutability": "view",
			"type": "function"
		},
		{
			"inputs": [],
			"name": "totalSupply",
			"outputs": [
				{
					"internalType": "uint256",
					"name": "",
					"type": "uint256"
				}
			],
			"stateMutability": "view",
			"type": "function"
		},
		{
			"inputs": [
				{
					"internalType": "address",
					"name": "from",
					"type": "address"
				},
				{
					"internalType": "address",
					"name": "to",
					"type": "address"
				},
				{
					"internalType": "bytes32",
					"name": "tokenId",
					"type": "bytes32"
				},
				{
					"internalType": "bool",
					"name": "force",
					"type": "bool"
				},
				{
					"internalType": "bytes",
					"name": "data",
					"type": "bytes"
				}
			],
			"name": "transfer",
			"outputs": [],
			"stateMutability": "nonpayable",
			"type": "function"
		},
		{
			"inputs": [
				{
					"internalType": "address payable",
					"name": "_to",
					"type": "address"
				},
				{
					"internalType": "uint256",
					"name": "_amount",
					"type": "uint256"
				}
			],
			"name": "transferBalance",
			"outputs": [],
			"stateMutability": "nonpayable",
			"type": "function"
		},
		{
			"inputs": [
				{
					"internalType": "address[]",
					"name": "from",
					"type": "address[]"
				},
				{
					"internalType": "address[]",
					"name": "to",
					"type": "address[]"
				},
				{
					"internalType": "bytes32[]",
					"name": "tokenId",
					"type": "bytes32[]"
				},
				{
					"internalType": "bool[]",
					"name": "force",
					"type": "bool[]"
				},
				{
					"internalType": "bytes[]",
					"name": "data",
					"type": "bytes[]"
				}
			],
			"name": "transferBatch",
			"outputs": [],
			"stateMutability": "nonpayable",
			"type": "function"
		},
		{
			"inputs": [
				{
					"internalType": "address",
					"name": "newOwner",
					"type": "address"
				}
			],
			"name": "transferOwnership",
			"outputs": [],
			"stateMutability": "nonpayable",
			"type": "function"
		},
		{
			"inputs": [],
			"name": "unpause",
			"outputs": [],
			"stateMutability": "nonpayable",
			"type": "function"
		},
		{
			"inputs": [
				{
					"internalType": "uint256",
					"name": "amount",
					"type": "uint256"
				}
			],
			"name": "updateMintPrice",
			"outputs": [],
			"stateMutability": "nonpayable",
			"type": "function"
		},
		{
			"inputs": [
				{
					"internalType": "uint256",
					"name": "amount",
					"type": "uint256"
				}
			],
			"name": "updateSwipePrice",
			"outputs": [],
			"stateMutability": "nonpayable",
			"type": "function"
		},
		{
			"inputs": [
				{
					"internalType": "string",
					"name": "key",
					"type": "string"
				},
				{
					"internalType": "address",
					"name": "addr",
					"type": "address"
				}
			],
			"name": "updateTeam",
			"outputs": [],
			"stateMutability": "nonpayable",
			"type": "function"
		},
		{
			"inputs": [
				{
					"internalType": "address",
					"name": "addr",
					"type": "address"
				},
				{
					"internalType": "uint8",
					"name": "count",
					"type": "uint8"
				}
			],
			"name": "updateWhitelist",
			"outputs": [],
			"stateMutability": "nonpayable",
			"type": "function"
		},
		{
			"inputs": [
				{
					"internalType": "address",
					"name": "",
					"type": "address"
				}
			],
			"name": "whitelist",
			"outputs": [
				{
					"internalType": "uint8",
					"name": "",
					"type": "uint8"
				}
			],
			"stateMutability": "view",
			"type": "function"
		},
		{
			"inputs": [],
			"name": "withdraw",
			"outputs": [],
			"stateMutability": "nonpayable",
			"type": "function"
		},
		{
			"stateMutability": "payable",
			"type": "receive"
		}
	]
}